:10000000FAC0000026C1000024C1000022C1000087
:1000100020C100001EC100001CC100001AC1000068
:1000200018C1000016C1000014C1000012C1000078
:1000300010C100000EC100000CC100000AC1000088
:1000400008C1000006C1000004C1000002C1000098
:1000500000C10000FEC00000FCC0000062C400003F
:10006000F8C0000028C40000FDC30000F2C000007A
:10007000F0C00000EEC00000ECC00000EAC00000CC
:10008000E8C00000E6C00000E4C00000E2C00000DC
:10009000E0C00000DEC00000DCC000008CC4000036
:1000A000D8C00000D6C00000D4C00000D2C00000FC
:1000B000D0C00000CEC00000CCC00000CAC000000C
:1000C000C8C00000C6C00000C4C00000C2C000001C
:1000D000C0C00000BEC00000BCC00000BAC000002C
:1000E000B8C000007F018201710175017901B90179
:1000F00086018A019001940198019E01A201A60146
:10010000B901AC01B001B4010000220025002800B3
:100110002B002E003100340002010000050108010F
:100120000B0105050505070508080808020202027B
:100130000A0A080804040404010101010101010183
:100140000303030303030303040707070C0C0C0C4E
:100150000C0C0C0C02020202060606060606060637
:100160000B0B0B0B0B0B0B0B0102102020080810C4
:100170002040102040800201020108040201010217
:1001800004081020408080402010080402018004F0
:10019000020180402010080402010804020101024B
:1001A0000408102040800102040810204080000054
:1001B0000A0B02090C0D0E080703040100000000E1
:1001C000000000000000000000000000000000002F
:1001D00000000000000000000000121110000000EC
:1001E000000000000000000000000000000000000F
:1001F000000000000C0611241FBECFEFD1E2DEBFCD
:10020000CDBF00E00CBF23E0AAE4B2E001C01D9224
:10021000AE3DB207E1F712E0A0E0B2E0E4ECF1E1BC
:1002200000E00BBF02C007900D92AA34B107D9F7C6
:1002300010E0CBEFD0E000E005C021970109802F4E
:10024000FE01B2D7CA3FD10780E00807B1F72FD52A
:10025000B7C7D6CEEDEEF2E0A089B18982E08C93EB
:10026000A485B5851C92A685B7858FEC8C93108EDE
:10027000A489B58986E08C93A289B3898C91806129
:100280008C93A289B3898C9188608C93A289B3895D
:100290008C9180688C930288F389E02D80818F7D1A
:1002A0008083089590E0FC01E255FE4F4491FC01EB
:1002B000E859FE4F2491FC01EE5DFE4F9491992385
:1002C00009F465C0442309F454C050E0FA013197A1
:1002D000E231F10508F04DC08827EE58FF4F8F4FEF
:1002E00063C7809180008F7707C0809180008F7DE9
:1002F00003C080918000877F809380003AC084B5DE
:100300008F7702C084B58F7D84BD33C08091B000EB
:100310008F7703C08091B0008F7D8093B00029C09B
:10032000809190008F7707C0809190008F7D03C0EF
:1003300080919000877F809390001BC08091A000E7
:100340008F7707C08091A0008F7D03C08091A000AF
:10035000877F8093A0000DC0809120018F7707C018
:10036000809120018F7D03C080912001877F809341
:100370002001E92FF0E0EE0FFF1FE85FFE4FA5918F
:10038000B4918FB7F894EC912E2B2C938FBF0895D6
:10039000CF92DF92EF92FF920F931F93CF93DF9351
:1003A0006C017A018B01C0E0D0E0CE15DF0589F049
:1003B000D8016D918D01D601ED91FC910190F081F4
:1003C000E02DC6011995892B11F47E0102C02196FA
:1003D000ECCFC701DF91CF911F910F91FF90EF906C
:1003E000DF90CF9008958091E40290E02091E302A5
:1003F000821B91090895FC01538D448D252F30E017
:10040000842F90E0821B930B541710F0CF96089521
:1004100001970895FC01918D828D981761F0828D6E
:10042000DF01A80FB11D5D968C91928D9F5F9F7328
:10043000928F90E008958FEF9FEF0895FC01918DCA
:10044000828D981731F0828DE80FF11D858D90E037
:1004500008958FEF9FEF0895FC01918D228D892FD4
:1004600090E0805C9F4F821B91098F7399270895BC
:100470008DEE92E0F1DF21E0892B09F420E0822F5C
:100480000895FC01848DDF01A80FB11DA35ABF4F51
:100490002C91848D90E001968F739927848FA68983
:1004A000B7892C93A089B1898C9180648C93938DAA
:1004B000848D981306C00288F389E02D80818F7D9A
:1004C00080830895EF92FF920F931F93CF93DF9352
:1004D000EC0181E0888F9B8D8C8D981305C0E88995
:1004E000F989808185FD23C0F62E0B8D10E00F5F0A
:1004F0001F4F0F731127E02E8C8DE8120BC00FB623
:1005000007FCFACFE889F989808185FFF5CFCE0114
:10051000B8DFF2CF8B8DFE01E80FF11DE35AFF4FDC
:10052000F0820B8FEA89FB898081806207C0EE89A7
:10053000FF896083E889F98980818064808381E014
:1005400090E0DF91CF911F910F91FF90EF90089570
:10055000CF93DF93EC01888D8823C1F0EA89FB8972
:10056000808185FD05C0A889B9898C9186FD0EC062
:100570000FB607FCF5CF808185FFF2CFA889B98936
:100580008C9185FFEDCFCE017CDFE8CFDF91CF915D
:10059000089580E090E0892B19F06ADF811125C071
:1005A00080E090E0892B41F080E090E0892B21F001
:1005B0000E94000081111CC080E090E0892B41F076
:1005C00080E090E0892B21F00E940000811113C08F
:1005D00080E090E0892BA1F080E090E0892B81F011
:1005E0000E94000081110AC008950E940000D8CF27
:1005F0000E940000E1CF0E940000EACF0C940000AE
:1006000008953FB7F8948091960290919702A09137
:100610009802B091990226B5A89B05C02F3F19F00A
:100620000196A11DB11D3FBFBA2FA92F982F882772
:10063000820F911DA11DB11DBC01CD0142E0660FCD
:10064000771F881F991F4A95D1F708952FB7F894FF
:100650006091920270919302809194029091950220
:100660002FBF08958F929F92AF92BF92CF92DF9249
:10067000EF92FF926B017C01E9DF4B015C01C60E3A
:10068000D71EE81EF91EE2DF681579058A059B056D
:1006900028F0C616D706E806F906A8F7FF90EF90EF
:1006A000DF90CF90BF90AF909F908F90089585ED91
:1006B0008093BC008091BC0084FDFCCF1092C202EC
:1006C000089540916C02262F30E0240F311D213215
:1006D0003105DCF42091C2022430C9F4FC0180E031
:1006E00090E0861758F430916C022191DC01A65BF2
:1006F000BD4FA30FB11D2C930196F3CF80916C02D7
:10070000680F60936C0280E0089581E0089582E0B4
:1007100008950895E091E3028091E402E81730F42F
:10072000F0E0ED53FD4F808190E008958FEF9FEF53
:1007300008959091E3028091E402981750F4E92F14
:10074000F0E0ED53FD4F208130E09F5F9093E30296
:1007500002C02FEF3FEFC9010895CF93DF931F929F
:100760001F92CDB7DEB7CB01642F49835A83A9DF2F
:100770004981842F5A81952F0F900F90DF91CF914F
:100780000895CF93DF931F92CDB7DEB7698361E001
:10079000CE01019696DF81E090E00F90DF91CF913E
:1007A0000895089580E090E008956115710579F04D
:1007B000FB0101900020E9F73197AF01461B570B71
:1007C000DC01ED91FC910280F381E02D199480E031
:1007D00090E008954F925F926F927F92EF92FF9216
:1007E0000F931F93CF93DF93CDB7DEB7A1970FB6CB
:1007F000F894DEBF0FBECDBF7C01FA01CB0119A278
:10080000223008F42AE08E010F5D1F4F422E512C3A
:10081000612C712CBF01A3019201A4D4F901CA017A
:10082000015011096A3014F4605D01C0695CD8019F
:100830006C93232B242B252B69F7B801C701B5DF57
:10084000A1960FB6F894DEBF0FBECDBFDF91CF915A
:100850001F910F91FF90EF907F906F905F904F905E
:100860000895AAD41F920F920FB60F9211240BB6BF
:100870000F922F933F934F935F936F937F938F9339
:100880009F93AF93BF93EF93FF938DEE92E0F9DDCB
:10089000FF91EF91BF91AF919F918F917F916F9158
:1008A0005F914F913F912F910F900BBE0F900FBE14
:1008B0000F901F9018951F920F920FB60F92112450
:1008C0000BB60F922F938F939F93EF93FF93E0912B
:1008D000FD02F091FE028081E0910303F091040398
:1008E00082FD12C09081809106038F5F8F732091EB
:1008F0000703821751F0E0910603F0E0E351FD4F4A
:10090000958F8093060301C08081FF91EF919F91A5
:100910008F912F910F900BBE0F900FBE0F901F90D5
:1009200018951F920F920FB60F9211242F933F9399
:100930008F939F93AF93BF93809192029091930274
:10094000A0919402B09195023091910223E0230F7F
:100950002D3720F40196A11DB11D05C026E8230FF7
:100960000296A11DB11D2093910280939202909353
:100970009302A0939402B093950280919602909175
:100980009702A0919802B09199020196A11DB11D04
:100990008093960290939702A0939802B093990245
:1009A000BF91AF919F918F913F912F910F900FBE6B
:1009B0000F901F9018951F920F920FB60F9211244F
:1009C0000BB60F922F933F934F935F936F937F9349
:1009D0008F939F93AF93BF93EF93FF938091B90051
:1009E000887F803609F49CC068F5883209F45BC0C2
:1009F00090F4803109F454C038F4882309F4F6C027
:100A0000883009F44DC0F5C0883109F44CC08032FB
:100A100009F45DC0EEC0803409F468C048F4803346
:100A200009F455C0883309F0E4C08093C002D8C0EF
:100A3000803509F44FC0883509F45DC0883409F069
:100A4000D8C0D6C0883909F4C7C0A8F4883709F4DB
:100A500067C038F4883609F463C0803709F460C091
:100A6000C8C0883809F4B8C0803909F45FC080383C
:100A700009F0BFC05BC0803B09F486C038F4803AFF
:100A800009F466C0883A09F47FC0B3C0803C09F419
:100A9000A7C0883C09F4A4C0883B09F48AC0A9C057
:100AA0008091BD0210C09091BF028091BE02981744
:100AB00070F5E091BF0281E08E0F8093BF02F0E0FD
:100AC000E456FD4F80818093BB0085EC86C0809307
:100AD000C0028EC0E091BF0281E08E0F8093BF0202
:100AE0008091BB00F0E0E456FD4F80839091BF02FF
:100AF0008091BE026EC0E091BF0281E08E0F8093B4
:100B0000BF028091BB00F0E0E456FD4F80838091EE
:100B1000C10281116DC081E08093BC0284EA61C092
:100B200083E08093C20210929002CFCF8091900216
:100B3000803208F051C0E091900281E08E0F8093E6
:100B400090028091BB00F0E0E059FD4F8083BDCF63
:100B500085EC8093BC001092C2028091900280329A
:100B600030F4E0919002F0E0E059FD4F1082609186
:100B7000900270E0E0916E02F0916F0280E792E0E7
:100B800019951092900235C084E08093C2021092B1
:100B90006D0210926C02E0916A02F0916B0219955D
:100BA00080916C02811105C081E080936C021092EB
:100BB0004A02E0916D0281E08E0F80936D02F0E0B9
:100BC000E65BFD4F80818093BB0090916D02809128
:100BD0006C02981708F479CF85E88093BC0009C0AF
:100BE00085EC8093BC001092C20203C01092C00238
:100BF0005EDDFF91EF91BF91AF919F918F917F91BA
:100C00006F915F914F913F912F910F900BBE0F907D
:100C10000FBE0F901F901895EDEEF2E01382128236
:100C200088EE93E0A0E0B0E084839583A683B78349
:100C300024E032E03183208325EC30E035872487BF
:100C400024EC30E03787268720EC30E0318B208B96
:100C500021EC30E0338B228B22EC30E0358B248B7F
:100C600026EC30E0378B268B118E128E138E148E6D
:100C7000EAE8F3E016821782108611861286138640
:100C80001486158616861786108A118A128A138A88
:100C9000148A158AE2EDF3E013821282848395832D
:100CA000A683B78386E192E0918380830895789448
:100CB00084B5826084BD84B5816084BD85B5826061
:100CC00085BD85B5816085BD80916E008160809312
:100CD0006E0010928100809181008260809381007B
:100CE000809181008160809381008091800081608B
:100CF000809380008091B10084608093B1008091E6
:100D0000B00081608093B0008091910082608093F8
:100D1000910080919100816080939100809190007A
:100D20008160809390008091A10082608093A100F7
:100D30008091A10081608093A1008091A0008160DA
:100D40008093A00080912101826080932101809195
:100D50002101816080932101809120018160809335
:100D6000200180917A00846080937A0080917A00DB
:100D7000826080937A0080917A00816080937A000B
:100D800080917A00806880937A001092C10010925E
:100D9000CE031092CF031092D0031092D103109281
:100DA0008C0310928D0310928E0310928F0368EBC8
:100DB0007BE080E090E056DC8DEE92E09093CD03F6
:100DC0008093CC0347DA42DC60938C0370938D03ED
:100DD00080938E0390938F0364E272E08091CC0342
:100DE0009091CD03E2DC6AE070E080E090E03ADCD4
:100DF00081E08093A0031092E3021092E40210922B
:100E00009B0210929A021092C2028093C102109229
:100E1000BC0284E147DA85E145DA8091B9008E7F32
:100E20008093B9008091B9008D7F8093B90088E4E8
:100E30008093B80085E48093BC000CDA44EF842EE4
:100E400099249394A12CB12CC1E0DFEF55E0352E0D
:100E500065EE262EFBDB672B682B692B39F4F6DB5E
:100E6000623071058105910508F4F7C0EFDB6093EE
:100E7000E9027093EA028093EB029093EC020091F6
:100E8000E5021091E6022091E7023091E802601736
:100E900071078207930740F46093E5027093E602BE
:100EA0008093E7029093E8020091E5021091E60238
:100EB0002091E7023091E8026B017C01C01AD10A4F
:100EC000E20AF30A970186010A3F1105210531055F
:100ED00008F4C3C06093E5027093E6028093E702D2
:100EE0009093E8028092980390929903A0929A03BB
:100EF000B0929B0310929C0310929D0310929E034C
:100F000010929F038091900390919103A09192037E
:100F1000B09193038093940390939503A0939603C9
:100F2000B093970393DB6093900370939103809346
:100F30009203909393038ADB60938C0370938D03E9
:100F400080938E0390938F0381DB6B017C0166E3BA
:100F500072E08091CC039091CD0327DC2AE041E040
:100F600050E060E070E08091CC039091CD0332DCE2
:100F70006DE372E08091CC039091CD0316DC2AE002
:100F8000B701A6018091CC039091CD0323DC6FE3E0
:100F900072E08091CC039091CD0307DC80919003A7
:100FA00090919103A0919203B0919303B701A60190
:100FB000481B590B6A0B7B0B2AE08091CC03909164
:100FC000CD0308DC6FE372E08091CC039091CD03F8
:100FD000ECDB4091900350919103609192037091EA
:100FE00093038091940390919503A0919603B091FF
:100FF0009703481B590B6A0B7B0B2AE08091CC03AB
:101000009091CD03E7DB61E472E08091CC03909195
:10101000CD03CBDB1BDBAB01BC012AE08091CC0311
:101020009091CD03D7DB0091CC031091CD0363E405
:1010300072E0C801BADB63E372E0C801B6DB65E0C9
:1010400070E080E090E00EDB01DB60939003709332
:10105000910380939203909393038091C202811134
:10106000FCCFC093C202C093C102D093C0021092C1
:10107000BF023092BE02C093BD028091BD0280616A
:101080008093BD028091BC02813079F41092BC0241
:101090008091BD028093BB008091BC0083FDF8CF9E
:1010A00035ECD32ED092BC0002C02092BC008091BF
:1010B000C2028130E1F38091BF02863018F4809142
:1010C000BF0201C086E0ACE9B2E0E3ECF2E09E2FA3
:1010D00023ECE22E22E0F22E9E19981718F49D912F
:1010E0009193F5CF1092E3028093E4029091E40291
:1010F0008091E302981779F082ED93E01ADBE0919A
:10110000ED02F091EE020190F081E02D682F8DEE5E
:1011100092E01995EBCF75DA6B017C0184EF482ED4
:1011200055245394612C712C6CDADC01CB018C19A1
:101130009D09AE09BF09883E9340A105B10558F04D
:1011400021E0421A51086108710838EEC30E33E0FD
:10115000D31EE11CF11C411451046104710421F7F8
:1011600018DA78CEA1E21A2EAA1BBB1BFD010DC016
:10117000AA1FBB1FEE1FFF1FA217B307E407F50747
:1011800020F0A21BB30BE40BF50B661F771F881F23
:10119000991F1A9469F760957095809590959B01B9
:1011A000AC01BD01CF010895EE0FFF1F881F8BBF5B
:1011B0000790F691E02D199481E090E0F89400C03A
:0411C000F894FFCFD1
:1011C400000000006202C801FB01A8022C020A020E
:1011D4001E0200000000C103AD03D2038903F30122
:1011E40099038A03564D4450565F317C315F564D06
:1011F4004450560D0A00564D4450455F003A323A69
:0A120400007C005F564D4450450089
:00000001FF
