:100000000C945C0D0C948D0D0C948D0D0C948D0D39
:100010000C948D0D0C948D0D0C948D0D0C948D0DF8
:100020000C948D0D0C948D0D0C948D0D0C948D0DE8
:100030000C948D0D0C948D0D0C948D0D0C948D0DD8
:100040000C948D0D0C948D0D0C948D0D0C948D0DC8
:100050000C948D0D0C948D0D0C948D0D0C946833B7
:100060000C948D0D0C94B2320C9489320C948D0D3D
:100070000C948D0D0C948D0D0C948D0D0C948D0D98
:100080000C948D0D0C948D0D0C948D0D0C948D0D88
:100090000C948D0D0C948D0D0C948D0D0C94B2332D
:1000A0000C948D0D0C948D0D0C948D0D0C948D0D68
:1000B0000C948D0D0C948D0D0C948D0D0C948D0D58
:1000C0000C948D0D0C948D0D0C948D0D0C948D0D48
:1000D0000C948D0D0C948D0D0C948D0D0C948D0D38
:1000E0000C948D0D9A0E571E670F670FF910571E4F
:1000F000FE133312AB13571E3115FF154D174D1755
:100100009A0EF91A571E9A0EA3162318E50FBD185A
:100110006E19F91A521A851B801C8B1DA01DA7127F
:1001200091284A29A828A828BD284A2978282C29B6
:10013000DB284A29E528E528F928F92891282C29DF
:100140004A299128E5282C29A82807292C292C2977
:100150002C292C292C291C292C292C29BF29C229DE
:10016000B129B529B929F929C629CA29D029D429FB
:10017000D829DE29E229E629F929EC29F029F429F0
:1001800000000A0B02090C0D0E0807030401000011
:10019000000000000000000000000000000000005F
:1001A000000000000000000000000000121110001C
:1001B000000000000000000000000000000000003F
:1001C000000000000000010210202008081020405C
:1001D000102040800201020108040201010204080B
:1001E0001020408080402010080402018004020199
:1001F00080402010080402010804020101020408E2
:1002000010204080010204081020408000002200DD
:10021000250028002B002E003100340002010000D0
:10022000050108010B010505050507050808080873
:10023000020202020A0A080804040404010101017E
:100240000101010103030303030303030407070779
:100250000C0C0C0C0C0C0C0C02020202060606061E
:10026000060606060B0B0B0B0B0B0B0B2032300A92
:10027000000000000000000000FFFE0001FFFF0082
:1002800003FFFF8001FFFF600CFFFEF01E0001F87E
:100290003F0001F83F0001F83F0001F83F0001F87E
:1002A0003F0001F83F0001F83F0001F83F0001F86E
:1002B0003F0001F83F0001F83F0001F83F0001F85E
:1002C0003F0001F83E0000783800001820000008C8
:1002D0000000000020000000380000183E000078F8
:1002E0003F0001F83F0001F83F0001F83F0001F82E
:1002F0003F0001F83F0001F83F0001F83F0001F81E
:100300003F0001F83F0001F83F0001F83F0001F80D
:100310003F0001F83F0001F81E0000F00CFFFE60F6
:1003200001FFFF0003FFFF8001FFFF0000FFFE0051
:1003300000000000000000000000000000000000BD
:10034000000000000000000000000000000000604D
:10035000000000F0000001F8000001F8000001F8C2
:10036000000001F8000001F8000001F8000001F8A9
:10037000000001F8000001F8000001F8000001F899
:10038000000001F8000001F8000001F8000000780A
:10039000000000180000000800000000000000003D
:1003A0000000001800000078000001F8000001F8CB
:1003B000000001F8000001F8000001F8000001F859
:1003C000000001F8000001F8000001F8000001F849
:1003D000000001F8000001F8000001F8000001F839
:1003E000000000F0000000600000000000000000BD
:1003F00000000000000000000000000000000000FD
:10040000000000000000000000FFFE0001FFFF00F0
:1004100003FFFF8001FFFF6000FFFEF0000001F816
:10042000000001F8000001F8000001F8000001F8E8
:10043000000001F8000001F8000001F8000001F8D8
:10044000000001F8000001F8000001F8000001F8C8
:10045000000001F80000007801FFFE1803FFFF888C
:100460000FFFFFE027FFFFC039FFFF003E00000045
:100470003F0000003F0000003F0000003F00000080
:100480003F0000003F0000003F0000003F00000070
:100490003F0000003F0000003F0000003F00000060
:1004A0003F0000003F0000001E0000000CFFFE00A7
:1004B00001FFFF0003FFFF8001FFFF0000FFFE00C0
:1004C000000000000000000000000000000000002C
:1004D00000FFFE0001FFFF0003FFFF8001FFFF6040
:1004E00000FFFEF0000001F8000001F8000001F834
:1004F000000001F8000001F8000001F8000001F818
:10050000000001F8000001F8000001F8000001F807
:10051000000001F8000001F8000001F80000007878
:1005200001FFFE1803FFFF880FFFFFE007FFFFC07A
:1005300001FFFF1800000078000001F8000001F83A
:10054000000001F8000001F8000001F8000001F8C7
:10055000000001F8000001F8000001F8000001F8B7
:10056000000001F8000001F8000001F8000001F8A7
:10057000000000F000FFFE6001FFFF0003FFFF80AE
:1005800001FFFF0000FFFE0000000000000000006F
:10059000000000000000000000000000000000005B
:1005A00000000000000000600C0000F01E0001F8D8
:1005B0003F0001F83F0001F83F0001F83F0001F85B
:1005C0003F0001F83F0001F83F0001F83F0001F84B
:1005D0003F0001F83F0001F83F0001F83F0001F83B
:1005E0003F0001F83E00007839FFFE1823FFFF8826
:1005F0000FFFFFE007FFFFC001FFFF1800000078BA
:10060000000001F8000001F8000001F8000001F806
:10061000000001F8000001F8000001F8000001F8F6
:10062000000001F8000001F8000001F8000001F8E6
:10063000000001F8000001F8000000F00000006078
:1006400000000000000000000000000000000000AA
:10065000000000000000000000000000000000009A
:1006600000FFFE0001FFFF0003FFFF8001FFFF000E
:100670000CFFFE001E0000003F0000003F000000D5
:100680003F0000003F0000003F0000003F0000006E
:100690003F0000003F0000003F0000003F0000005E
:1006A0003F0000003F0000003F0000003E0000004F
:1006B00039FFFE0023FFFF800FFFFFE007FFFFC0B1
:1006C00001FFFF1800000078000001F8000001F8A9
:1006D000000001F8000001F8000001F8000001F836
:1006E000000001F8000001F8000001F8000001F826
:1006F000000001F8000001F8000001F8000001F816
:10070000000000F000FFFE6001FFFF0003FFFF801C
:1007100001FFFF0000FFFE000000000000000000DD
:10072000000000000000000000FFFE0001FFFF00CD
:1007300003FFFF8001FFFF000CFFFE001E00000012
:100740003F0000003F0000003F0000003F000000AD
:100750003F0000003F0000003F0000003F0000009D
:100760003F0000003F0000003F0000003F0000008D
:100770003F0000003E00000039FFFE0023FFFF8025
:100780000FFFFFE027FFFFC039FFFF183E00007892
:100790003F0001F83F0001F83F0001F83F0001F879
:1007A0003F0001F83F0001F83F0001F83F0001F869
:1007B0003F0001F83F0001F83F0001F83F0001F859
:1007C0003F0001F83F0001F81E0000F00CFFFE6042
:1007D00001FFFF0003FFFF8001FFFF0000FFFE009D
:1007E0000000000000000000000000000000000009
:1007F00000FFFE0001FFFF0003FFFF8001FFFF601D
:1008000000FFFEF0000001F8000001F8000001F810
:10081000000001F8000001F8000001F8000001F8F4
:10082000000001F8000001F8000001F8000001F8E4
:10083000000001F8000001F8000001F80000007855
:100840000000001800000008000000000000000088
:100850000000001800000078000001F8000001F816
:10086000000001F8000001F8000001F8000001F8A4
:10087000000001F8000001F8000001F8000001F894
:10088000000001F8000001F8000001F8000001F884
:10089000000000F000000060000000000000000008
:1008A0000000000000000000000000000000000048
:1008B000000000000000000000FFFE0001FFFF003C
:1008C00003FFFF8001FFFF600CFFFEF01E0001F838
:1008D0003F0001F83F0001F83F0001F83F0001F838
:1008E0003F0001F83F0001F83F0001F83F0001F828
:1008F0003F0001F83F0001F83F0001F83F0001F818
:100900003F0001F83E00007839FFFE1823FFFF8802
:100910000FFFFFE027FFFFC039FFFF183E00007800
:100920003F0001F83F0001F83F0001F83F0001F8E7
:100930003F0001F83F0001F83F0001F83F0001F8D7
:100940003F0001F83F0001F83F0001F83F0001F8C7
:100950003F0001F83F0001F81E0000F00CFFFE60B0
:1009600001FFFF0003FFFF8001FFFF0000FFFE000B
:100970000000000000000000000000000000000077
:1009800000FFFE0001FFFF0003FFFF8001FFFF608B
:100990000CFFFEF01E0001F83F0001F83F0001F8D7
:1009A0003F0001F83F0001F83F0001F83F0001F867
:1009B0003F0001F83F0001F83F0001F83F0001F857
:1009C0003F0001F83F0001F83F0001F83E000078C9
:1009D00039FFFE1823FFFF880FFFFFE007FFFFC06E
:1009E00001FFFF1800000078000001F8000001F886
:1009F000000001F8000001F8000001F8000001F813
:100A0000000001F8000001F8000001F8000001F802
:100A1000000001F8000001F8000001F8000001F8F2
:100A2000000000F000FFFE6001FFFF0003FFFF80F9
:100A300001FFFF0000FFFE000000000000000000BA
:100A4000080C205F00000000000000000000000013
:100A500000002020202020200020000000285050EE
:100A6000000000000000000000002828FC2850FCC6
:100A700050500000002078A8A0603028A8F0200086
:100A8000000048A8B050283454480000000020500E
:100A90005078A8A8906C0000004040800000000042
:100AA00000000000000408101010101010080400CE
:100AB00000402010101010101020400000000020F6
:100AC000A87070A8200000000000202020F820203E
:100AD00020000000000000000000000000404080F6
:100AE0000000000000F8000000000000000000000E
:100AF00000000000004000000008101010202040FE
:100B000040408000000070888888888888700000D5
:100B1000000020602020202020700000000070884D
:100B20008810204080F80000000070880830080815
:100B300088700000000010305050907810180000AD
:100B40000000F88080F008088870000000007090B5
:100B500080F08888887000000000F8901020202025
:100B6000202000000000708888708888887000004D
:100B70000000708888887808487000000000000035
:100B80002000000000200000000000000020000005
:100B9000002020000004081020402010080400005D
:100BA00000000000F80000F80000000000402010E5
:100BB00008040810204000000000708888102020E1
:100BC000002000000000708898A8A8B88078000075
:100BD000000020203050507848CC00000000F04841
:100BE0004870484848F00000000078888080808085
:100BF000887000000000F0484848484848F000006D
:100C00000000F8485070504048F800000000F848D4
:100C10005070504040E000000000384880809C88C0
:100C2000483000000000CC484878484848CC0000D4
:100C30000000F8202020202020F8000000007C1078
:100C4000101010101090E0000000EC485060505060
:100C500048EC00000000E0404040404044FC000000
:100C60000000D8D8D8D8A8A8A8A800000000DC4860
:100C70006868585848E800000000708888888888AC
:100C8000887000000000F0484870404040E00000DC
:100C900000007088888888E8987018000000F04884
:100CA0004870504848EC00000000788880601008C8
:100CB00088F000000000F8A820202020207000000C
:100CC0000000CC4848484848483000000000CC4864
:100CD00048505030202000000000A8A8A8705050B4
:100CE000505000000000D8505020205050D8000034
:100CF0000000D85050202020207000000000F89004
:100D00001020204048F8000000382020202020201B
:100D10002020380000404040202010101008000023
:100D200000701010101010101010700000205000F3
:100D300000000000000000000000000000000000B3
:100D4000000000FC00200000000000000000000087
:100D50000000000000304838483C00000000C0405F
:100D600040704848487000000000000000384840CB
:100D7000403800000000180808384848483C000087
:100D800000000000003048784038000000001C20BF
:100D9000207820202078000000000000003C48302F
:100DA000407844380000C0404070484848EC00009B
:100DB00000002000006020202070000000001000D3
:100DC00000301010101010E00000C040405C507067
:100DD00048EC00000000E0202020202020F8000047
:100DE0000000000000F0A8A8A8A800000000000073
:100DF00000F0484848EC000000000000003048487F
:100E0000483000000000000000F04848487040E012
:100E100000000000003848484838081C0000000066
:100E200000D8604040E00000000000000078403042
:100E3000087800000000002020702020201800000A
:100E40000000000000D84848483C000000000000B6
:100E500000EC4850302000000000000000A8A870FE
:100E6000505000000000000000D8502050D8000072
:100E70000000000000EC4850302020C000000000BE
:100E8000007810202078000000181010102010109A
:100E9000101018001010101010101010101010105A
:100EA00000602020201020202020600040A4180096
:100EB00000000000000000001010205F0000000093
:100EC0000000000000000000000000000000000022
:100ED0000000000000000000000000000000000012
:100EE00007000F800F800F800F800F800700070022
:100EF00000000000070007000700000000000E3897
:100F00000E380E380E3806300000000000000000D9
:100F100000000000000000000000000000000C3095
:100F20000C300C307FFE7FFE0C300C300C300C305F
:100F30007FFE7FFE0C300C300C30000000000240C1
:100F400002400FF81FF81A401A401FF00FF802581D
:100F500002581FF81FF0024002400000000000008D
:100F600000000E100E300E7000E001C0038007007C
:100F70000E700C70087000000000000000000000FF
:100F80000F001980198019800F000F080F9819F8A9
:100F900018F018E019F00F980000000000000000A1
:100FA0000700070007000E0000000000000000001E
:100FB0000000000000000000000000000000000031
:100FC00000F001C0038007000E000E000E000E00AE
:100FD0000700038001C000F00000000000000000D6
:100FE0000F00038001C000E000700070007000700E
:100FF00000E001C003800F000000000000000000BE
:1010000001801188099007E007E03FFC3FFC07E002
:1010100007E0099011880180000000000000000036
:10102000000000000180018001800FF00FF00180BE
:1010300001800180000000000000000000000000AE
:1010400000000000000000000000000000000000A0
:1010500000000700070007000E000000000000006D
:10106000000000000000000000001FF81FF8000052
:101070000000000000000000000000000000000070
:101080000000000000000000000000000000000060
:10109000000007000700070000000000000000003B
:1010A00000020006000E001C0038007000E001C0C5
:1010B000038007000E001C0000000000000000007C
:1010C0000FF01C381C781CF81CF81DB81DB81F3810
:1010D0001F381E381C380FF0000000000000000010
:1010E0000180018003801F801F80038003800380B4
:1010F0000380038003801FF0000000000000000058
:101100000FE01C701C380038007000E001C0038044
:1011100007000E381C381FF8000000000000000017
:101120000FE01C701C380038007003C003C0007052
:1011300000381C381C700FE00000000000000000A8
:1011400000E001E003E006E00CE018E01FF81FF803
:1011500000E000E000E003F80000000000000000F4
:101160001FF81C001C001C001C001FE01FF0007872
:1011700000381C381C700FE0000000000000000068
:1011800003E007000E001C001C001FF01FF81C38B5
:101190001C381C381C380FF0000000000000000054
:1011A0001FFC1C1C1C1C1C1C001C0038007000E0D8
:1011B00001C00380038003800000000000000000E5
:1011C0000FF01C381C381C381F3807E007E01CF8EB
:1011D0001C381C381C380FF0000000000000000014
:1011E0000FF01C381C381C381C381FF80FF800385A
:1011F0000038007000E007C00000000000000000A0
:1012000000000000038003800380000000000380D2
:1012100003800380000000000000000000000000C8
:1012200000000000038003800380000000000380B2
:101230000380038007000000000000000000007031
:1012400000E001C0038007000E001C001C000E001F
:101250000700038001C000E00070000000000000F3
:101260000000000000003FFC3FFC000000003FFCCD
:101270003FFC0000000000000000000000001C0017
:101280000E000700038001C000E00070007000E065
:1012900001C0038007000E001C000000000003C016
:1012A0000FF01E7818380038007000E001C001C04F
:1012B0000000000001C001C001C0000000000FF8E4
:1012C0001C1C1C1C1C1C1C1C1CFC1CFC1CFC1CFCDE
:1012D0001C001C001C001FF007F8000000000000AC
:1012E00003C007E00E701C381C381C381C381FF86F
:1012F0001C381C381C381C3800000000000000009E
:101300001FF00E380E380E380E380FF00FF00E3872
:101310000E380E380E381FF00000000000000000EC
:1013200007F00E381C381C001C001C001C001C00A0
:101330001C001C380E3807F0000000000000000000
:101340001FE00E700E380E380E380E380E380E387C
:101350000E380E380E701FE0000000000000000084
:101360001FF80E180E080E000E300FF00FF00E30A2
:101370000E000E080E181FF800000000000000000C
:101380001FF80E180E080E000E300FF00FF00E3082
:101390000E000E000E001F00000000000000000004
:1013A00007F00E381C381C381C001C001C001CF8F0
:1013B0001C381C380E3807F8000000000000000040
:1013C0001C701C701C701C701C701FF01FF01C70B7
:1013D0001C701C701C701C700000000000000000DD
:1013E0000FE0038003800380038003800380038079
:1013F0000380038003800FE0000000000000000075
:1014000001FC007000700070007000700070387097
:101410003870387038700FE00000000000000000E5
:101420001E380E380E700EE00FC00F800F800FC0F8
:101430000EE00E700E381E380000000000000000A4
:101440001F000E000E000E000E000E000E000E001B
:101450000E080E180E381FF80000000000000000F3
:101460001C1C1E3C1F7C1FFC1FFC1DDC1C9C1C1C30
:101470001C1C1C1C1C1C1C1C00000000000000008C
:101480001C1C1C1C1E1C1F1C1F9C1DDC1CFC1C7C13
:101490001C3C1C1C1C1C1C1C00000000000000004C
:1014A00003E007F00E381C1C1C1C1C1C1C1C1C1C04
:1014B0001C1C0E3807F003E00000000000000000D4
:1014C0001FF00E380E380E380E380FF00FF00E00E9
:1014D0000E000E000E001F000000000000000000C3
:1014E00003E00F780E381C1C1C1C1C1C1C1C1C7CD4
:1014F0001CFC0FF80FF8003800FC00000000000092
:101500001FF00E380E380E380E380FF00FF00E7038
:101510000E380E380E381E380000000000000000A3
:101520000FF01C381C381C381C000FE007F0003886
:101530001C381C381C380FF00000000000000000B0
:101540001FFC19CC11C401C001C001C001C001C001
:1015500001C001C001C007F0000000000000000051
:101560001C701C701C701C701C701C701C701C701B
:101570001C701C701C700FE00000000000000000D8
:101580001C701C701C701C701C701C701C701C70FB
:101590001C700EE007C00380000000000000000087
:1015A0001C1C1C1C1C1C1C1C1C1C1C9C1C9C1C9CFB
:1015B0000FF80FF80770077000000000000000002F
:1015C0001C701C701C700EE007C00380038007C0F5
:1015D0000EE01C701C701C70000000000000000079
:1015E0001C701C701C701C701C700EE007C0038007
:1015F0000380038003800FE0000000000000000073
:101600001FF81C381838107000E001C00380070074
:101610000E081C181C381FF8000000000000000015
:1016200007F0070007000700070007000700070092
:1016300007000700070007F000000000000000009E
:10164000100018001C000E000700038001C000E01D
:1016500000700038001C00070000000000000000BF
:1016600007F0007000700070007000700070007073
:1016700000700070007007F00000000000000180A2
:1016800003C007E00E701C380000000000000000DE
:10169000000000000000000000000000000000004A
:1016A000000000000000000000000000000000003A
:1016B00000000000000000007FFF7FFF000000002E
:1016C0001C001C00070007000000000000000000D4
:1016D000000000000000000000000000000000000A
:1016E00000000000000000000FE0007000700FF02C
:1016F0001C701C701C700FD800000000000000005F
:101700001E000E000E000E000FF00E380E380E38C0
:101710000E380E380E381BF00000000000000000EC
:1017200000000000000000000FE01C701C701C0096
:101730001C001C701C700FE0000000000000000086
:1017400000F80070007000700FF01C701C701C70AE
:101750001C701C701C700FD80000000000000000FE
:1017600000000000000000000FE01C701C701FF063
:101770001C001C701C700FE0000000000000000046
:1017800003E007700770070007001FE01FE0070075
:101790000700070007001FC0000000000000000055
:1017A00000000000000000000FD81C701C701C70AE
:1017B0001C700FF007F000701C700FE000000000BC
:1017C0001E000E000E000E000EF00F380F380E38FF
:1017D0000E380E380E381E380000000000000000E1
:1017E00001C001C001C000000FC001C001C001C0A4
:1017F00001C001C001C00FF800000000000000009F
:10180000007000700070000003F000700070007045
:101810000070007000701C700CF007E00000000009
:101820001E000E000E000E000E380E700EE00FC0EF
:101830000EE00E700E381E380000000000000000A0
:101840000FC001C001C001C001C001C001C001C082
:1018500001C001C001C00FF800000000000000003E
:1018600000000000000000001FF81C9C1C9C1C9C39
:101870001C9C1C9C1C9C1C9C000000000000000088
:1018800000000000000000001FE01C701C701C70B5
:101890001C701C701C701C70000000000000000018
:1018A00000000000000000000FE01C701C701C70A5
:1018B0001C701C701C700FE0000000000000000095
:1018C00000000000000000001BF00E380E380E383B
:1018D0000E380E380FF00E000E001F000000000042
:1018E00000000000000000001FB038E038E038E0E1
:1018F00038E038E01FE000E000E001F00000000008
:1019000000000000000000001EF00FF80F380E006D
:101910000E000E000E001F0000000000000000007E
:1019200000000000000000000FE01C301C300F80A1
:1019300003E0187018700FE00000000000000000C5
:1019400000000100030007001FF007000700070068
:1019500007000770077003E00000000000000000AF
:1019600000000000000000001C701C701C701C7047
:101970001C701C701C700FD80000000000000000DC
:1019800000000000000000001C701C701C701C7027
:101990001C700EE007C00380000000000000000083
:1019A00000000000000000001C1C1C1C1C1C1C9CD7
:1019B0001C9C0FF80770077000000000000000007A
:1019C00000000000000000001CE01CE00FC00780C9
:1019D00007800FC01CE01CE00000000000000000B9
:1019E00000000000000000000E380E380E380E38DF
:1019F0000E3807F003E000E001C01F800000000087
:101A000000000000000000001FE018E011C003808B
:101A100007000E201C601FE0000000000000000016
:101A200001F803800380038007001C001C000700EE
:101A300003800380038001F800000000000001C063
:101A400001C001C001C001C001C001C001C001C08E
:101A500001C001C001C001C001C0000000000000C1
:101A60001F8001C001C001C000E00038003800E064
:101A700001C001C001C01F80000000000000000084
:101A80001F1C3B9C39DC38F80000000000000000FF
:101A90000000000000000000000000000000210025
:101AA000240027002A002D0030003300010100002F
:101AB000040107010A01233511241FBECFEFD1E233
:101AC000DEBFCDBF00E00CBF25E0A4E8B3E001C05D
:101AD0001D92AA32B207E1F713E0A0E0B2E0ECEA0F
:101AE000F8E700E00BBF02C007900D92A438B107E1
:101AF000D9F71DE0CCE5DDE000E006C02197010943
:101B0000802FFE010E94183ACB35D10780E00807EC
:101B1000A9F70E9413360C94543C0C9400004F9289
:101B20005F926F927F928F929F92AF92BF92CF926D
:101B3000DF92EF92FF920F931F93CF93DF93EC010D
:101B40004B015A01F22E132F61EC72E00E94222EFB
:101B50003E0186E0680E711C2E018EE1480E511C7C
:101B600061EC72E0C3010E94222E86E0680E711CB7
:101B700064147504A9F7E0917D04F0917E049081CE
:101B800080918904809589238083809176048D31AA
:101B900061F48C2D813108F080E1682F70E081E0E4
:101BA0000E9434288FE00E94EE27E0917D04F0919E
:101BB0007E04908180918904892B8083B401CE01B9
:101BC0000E94F52DC12CD12CB5016C0D7D1D86E038
:101BD000C80ED11CCE018C0D9D1D0E94F52D88E1F3
:101BE000C816D10489F7EF2DF12FDE019896CE01AA
:101BF000C296219131912D933D93A817B907C9F74A
:101C00000AABEBAA66EA72E084E893E00E94CE2E6B
:101C100080910002909101020E94922E8091000218
:101C200090910102019711F00C94771E81E080934E
:101C30006D0461E080918E040E94E83261E0809141
:101C40008F040E94E83261E0809190040E94E832A3
:101C5000809191048F3F19F061E00E94E8328091F9
:101C60007704813131F0813049F4809178048530F6
:101C700029F461E0809192040E94E8328091770417
:101C8000813079F0813131F09FEF91B9803149F4A1
:101C900097B907C088E18093010180E283BB8BE3A1
:101CA0008DB9E0917F04F0918004908180918A0445
:101CB000892B808365E070E080E090E00E9424330F
:101CC000E0917F04F0918004908180918A04809556
:101CD000892380836FE070E080E090E00E942433ED
:101CE000E0917F04F0918004908180918A04892B97
:101CF00080836FE070E080E090E00E942433E09108
:101D00007D04F0917E0490818091890480958923DF
:101D10008083E09176048E2F90E0FC013297EE31C3
:101D2000F10510F00C94571E8827EE58FF4F8F4F87
:101D30000C94183A61E070E080E00E94342864EA74
:101D400078EA83E00E94342860E070E08CE00E9432
:101D500034286CE078E08DE00E94342860E07BE27B
:101D60008EE00E94342867EB70E08EE10E943428F8
:101D70006FE37BE281E00E94342860E076E082E05D
:101D80000E94342860E070E080E10E94342860E71F
:101D900070E681E10E94342860E070E085E00E94F6
:101DA000342860E070E086E00E9434286CE17FEE29
:101DB00086E10E94342863E070E087E10E943428C5
:101DC00063E372E087E00E94342860E070E08BE01B
:101DD0000E94342860E070E08FE00E94342860E0C8
:101DE00070E081E40E94342860E070E082E40E94A8
:101DF000342860E070E088E40E9434286FE371E0EA
:101E000089E40E94342860E070E08AE40E9434286B
:101E100060E070E08BE40E94342860E07FEE84E4B0
:101E20000E94342860E070E085E40E9434286FE36B
:101E300071E086E40E94342867E077E080E30E9446
:101E4000342864E072E081E30E94342864E072E0A8
:101E500082E30E94342862E075E083E30E94342824
:101E600067E075E084E30E94342864E072E085E373
:101E70000E94342864E072E086E30E94342862E025
:101E800075E087E30E94342862E073E08AE30E94F1
:101E9000342862E073E08BE30E94342860E070E055
:101EA00083E20E94342860E070E084E20E943428DB
:101EB00060E070E885E20E94342860E070E08FE422
:101EC0000E94342860E070E08EE40C946B1960EF9F
:101ED00078E785EE0E94342860E071E081E00E949E
:101EE000342860E072E082E00E94342860E370E110
:101EF00083E00E94342860E070E084E00E9434288F
:101F000067E072E088E00E94342860E070E089E0D9
:101F10000E94342860E070E08AE00E94342860E08B
:101F200070E08CE00E94342860E070E08DE00E9458
:101F3000342860E070E08FE00E94342860E070E0B8
:101F400080E10E94342867E070E081E10E9434283B
:101F500060E070E082E10E94342860E070E083E19C
:101F60000E94342861E070E087E00E94342868EC29
:101F700070E080E090E00E94243360E976E180E147
:101F80000E94342867E272E081E10E94342862E313
:101F900070E080E090E00E9424336DE070E082E128
:101FA0000E94342862E370E080E090E00E942433D5
:101FB00060E072E183E10E9434286AE070E089E227
:101FC0000E9434286DE070E07DC060EF78E785EE18
:101FD0000E94342860E071E081E00E94342860E0D3
:101FE00077E082E00E94342860E370E183E00E94A1
:101FF000342860E070E084E00E94342867E072E0FA
:1020000088E00E94342860E070E089E00E94342873
:1020100060E070E08AE00E94342860E070E08CE0CC
:102020000E94342860E070E08DE00E94342860E077
:1020300070E08FE00E94342860E070E080E10E9450
:10204000342867E070E081E10E94342860E070E0AD
:1020500082E10E94342860E070E083E10E9434282D
:1020600061E070E087E00E94342868EC70E080E076
:1020700090E00E94243360E975E180E10E943428F9
:1020800067E272E081E10E94342862E370E080E060
:1020900090E00E9424336CE970E082E10E943428D1
:1020A00062E370E080E090E00E94243360E079E138
:1020B00083E10E94342863E270E089E20E943428C0
:1020C0006EE070E08BE20E94342862E370E080E012
:1020D00090E00E94243360E070E080E20E943428A7
:1020E00060E070E081E20E94342860E070E080E30C
:1020F0000E94342864E074E081E30E94342863E0A5
:1021000070E082E30E94342865E074E085E30E9479
:10211000342868E078E086E30E94342867E074E0C1
:1021200087E30E94342863E073E088E30E94342848
:1021300067E077E089E30E94342864E075E08CE38F
:102140000E94342868E078E08DE30E94342860E043
:1021500070E080E50E9434286FEE70E081E50E9417
:10216000342860E070E082E50E9434286FE371E07B
:1021700083E50E94342860E077EA80E60E943428F4
:1021800061E070E081E60E94342860E070E08AE659
:102190000E94342860E070E080E80E94342860E00B
:1021A00070E081E80E94342860E070E082E80E94DC
:1021B000342860E070E083E80E94342860E070E03A
:1021C00084E80E94342860E070E085E80E943428AA
:1021D00060E170E080E90E94342860E070E082E90C
:1021E0000E94342863E371E087E00E9434280C9455
:1021F000571E64E870E086E20E94342868E270E0CE
:1022000080E090E00E94243368EB70E086E20E9458
:10221000342868E270E080E090E00E9424336CEBA8
:1022200070E086E20E94342864E170E080E090E093
:102230000E94243360E070E080E60E94342866E06B
:1022400070E081E60E94342860E070E082E60E943F
:10225000342868EC70E083E60E94342864E170E082
:1022600080E090E00E94243360E770E083E70E9402
:10227000342860E070E080E40E94342860E470E07C
:1022800081E40E94342865E470E082E40E943428EE
:1022900061E070E083E40E94342860E670E084E44A
:1022A0000E94342865E070E085E40E9434286CE0E8
:1022B00070E086E40E94342861ED70E087E40E94BB
:1022C000342865E070E088E40E94342865E770E017
:1022D00080E50E94342861E070E081E50E943428A6
:1022E00067E670E082E50E94342864E170E083E5EF
:1022F0000E94342862EF70E084E50E94342867E091
:1023000070E085E50E94342863E070E086E50E9475
:10231000342869E470E087E50E94342864E170E0C5
:1023200080E090E00E94243363E070E08FE10E943F
:10233000342860E070E080E20E94342864E270E0BB
:1023400084E20E94342864E370E085E20E9434282D
:102350006FE270E083E20E94342864E170E080E084
:1023600090E00E94243364E470E088E10E94342805
:1023700061E070E081E20E94342860E070E081E07A
:102380000E94342863E070E08CE10E94342866E00B
:1023900070E089E10E94342864E170E080E090E020
:1023A0000E94243364E870E086E20E94342868E2E8
:1023B00070E080E090E00E94243368EB70E086E2F9
:1023C0000E94342868E270E080E090E00E942433AC
:1023D0006CEB70E086E20E94342864E170E080E0FB
:1023E00090E00E94243360E070E082E00E94342894
:1023F00060E070E083E00E94342860E070E084E0F8
:102400000E9434286FEA70E085E00E94342860E082
:1024100070E086E00E94342860E070E087E00E946F
:10242000342860E070E088E00E9434286BED70E0B2
:1024300089E00E94342864E170E080E090E00E942E
:10244000243368E070E086E10E94342865E070E0A3
:1024500087E10E94342881E20E94EE2782E20E94F6
:10246000EE270C94571E81E10E94EE276CE070E08D
:1024700080E090E00E94243381EB0E94EE2781E00F
:102480000E9403288CE20E9403288DE20E94032808
:1024900082EB0E94EE2781E00E9403288CE20E94DA
:1024A00003288DE20E94032883EB0E94EE2781E03F
:1024B0000E9403288CE20E9403288DE20E940328D8
:1024C00081E00E9403288CE20E9403288DE20E9492
:1024D000032884EB0E94EE2787E00E94032880EC0B
:1024E0000E94EE2782EA0E94032882E00E940328CD
:1024F00084E80E94032881EC0E94EE2785EC0E946C
:10250000032882EC0E94EE278AE00E94032880E0E4
:102510000E94032883EC0E94EE278AE80E94032889
:102520008AE20E94032884EC0E94EE278AE80E9437
:1025300003288EEE0E94032885EC0E94EE278EE091
:102540000E94032886E30E94EE2788EC73C081E195
:102550000E94EE276CE070E080E090E00E9424335F
:1025600081EB0E94EE2781E00E9403288CE20E940A
:1025700003288DE20E94032882EB0E94EE2781E06F
:102580000E9403288CE20E9403288DE20E94032807
:1025900083EB0E94EE2781E00E9403288CE20E94D8
:1025A00003288DE20E94032881E00E9403288CE228
:1025B0000E9403288DE20E94032884EB0E94EE27EC
:1025C00087E00E94032880EC0E94EE2782EA0E94A6
:1025D000032882E00E94032884E80E94032881ECFB
:1025E0000E94EE2785EC0E94032882EC0E94EE27D1
:1025F0008AE00E94032880E00E94032883EC0E9466
:10260000EE278AE80E9403288AE20E94032884ECCD
:102610000E94EE278AE80E9403288EEE0E9403287B
:1026200085EC0E94EE278EE00E94032886E30E943C
:10263000EE2780EC0E94032880EE0E94EE278FE0B8
:102640000E9403288AE10E9403288FE00E94032849
:1026500088E10E9403288FE20E94032888E20E94FA
:10266000032880E20E94032882E20E9403288FE16F
:102670000E9403288BE10E94032883E20E94032822
:1026800087E30E94032880E00E94032887E00E94DD
:10269000032882E00E94032880E10E94032881EE43
:1026A0000E94EE278FE00E9403288BE10E940328FE
:1026B0008FE00E94032887E10E94032883E30E94A1
:1026C00003288CE20E94032889E20E9403288EE2FC
:1026D0000E94032880E30E94032880E30E940328CD
:1026E00089E30E9403288FE30E94032880E00E9470
:1026F000032887E00E94032883E00E94032880E1EA
:102700000E9403288AE20E94EE2780E00E940328AC
:1027100080E00E94032880E00E9403288FE70E9447
:1027200003288BE20E94EE2780E00E94032880E0CD
:102730000E94032880E00E9403288FE90E9403285A
:1027400080EF0E94EE2781E00E94032886EF0E941E
:10275000EE2780E09CC681E00E94EE2785E20E9481
:10276000EE2780E40E94032881E10E94EE276AE0C0
:1027700070E080E090E00E94243380E20E94EE2727
:1027800088E30E94EE2789E20E94EE2783E10E94FF
:10279000EE2786E30E94EE2780E60E9403288AE364
:1027A0000E94EE2785E00E9403288AE20E94EE271D
:1027B00080E00E9403288FE70E94032884EB0E9498
:1027C000EE2783E00E94032888E00E9403288BE024
:1027D0000E9403288EE00E9403288AEB0E94EE27C5
:1027E00087E00E9403288DE00E9403288BE20E946C
:1027F000EE2780E00E9403288FE7FEC183E80E9455
:10280000EE2782E00E94032885E80E94EE2783E0FD
:102810000E9403288BE80E94EE2781E00E94032893
:102820008CE80E94EE2783E90E94032881E90E9438
:10283000EE2781E00E94032883E80E94EE2780E0D3
:102840000E9403288EE30E94EE2780EB0E9403285B
:102850008FE30E94EE2783E00E94032880E40E9419
:10286000EE2780E10E94032881E40E94EE2786E59E
:102870000E94032882E40E94EE2783E10E9403283D
:1028800083E40E94EE2786E40E94032884E40E94E9
:10289000EE2783E20E94032885E40E94EE2786E764
:1028A0000E94032886E40E94EE2780E00E9403280D
:1028B00087E40E94EE278EE50E94032888E40E94A8
:1028C000EE278FE40E94032889E40E94EE2780E42B
:1028D0000E94032887E10E94EE2781E90E940328D5
:1028E0008BE20E94EE2789EF0E9403286AE070E0E5
:1028F00080E090E00E9424338BE10E94EE2784E187
:102900000E9403288AE10E94EE2781E10E940328A9
:102910008CE10E94EE2786E00E9403288FE10E944E
:10292000EE2782E40E94032864E170E080E090E0FA
:102930000E94243389E10E94EE278AE00E94032846
:1029400089E10E94EE278AE10E94032868E270E094
:1029500080E090E00E94243389E10E94EE2782E12A
:102960000E94032868E270E080E090E00E94243337
:102970008EE10E94EE2787E20E94032864E670E061
:1029800080E090E00E94243384E20E94EE2780E6FB
:102990000E9403288DE30E94EE2780E40E94032812
:1029A00084E30E94EE2788E30E94032885E30E94C7
:1029B000EE2788E30E94032884E20E94EE2788E342
:1029C0000E94032868E270E080E090E00E942433D7
:1029D00084E20E94EE278CE30E94032886E10E9495
:1029E000EE278CE10E94032881E00E94EE2786E01A
:1029F0000E94032885E50E94EE2780E00E940328BC
:102A000082E00E94EE2780E00E94032883E00E947B
:102A1000EE2780E00E94032884E00E94EE2780E0F9
:102A20000E94032885E00E94EE278FEE0E94032873
:102A300086E00E94EE2780E00E94032887E00E9443
:102A4000EE2780E00E94032888E00E94EE2781E0C4
:102A50000E94032889E00E94EE278FE80E94032845
:102A6000FDCC82EE0E94EE2783E20E94032882E0E2
:102A70000E94032884E50E94032880EE0E94EE272E
:102A800081E00E9403286AE070E080E090E00E940C
:102A9000243380EE0E94EE2783E00E9403286AE040
:102AA00070E080E090E00E94243381E00E94EE27F5
:102AB00064E670E080E090E00E94243386EE0E949D
:102AC000EE2781E00E9403288FE10E9403288FEF08
:102AD0000E94032880EB0E94EE2780E20E940328D8
:102AE00080E00E94032881E00E9403288FED0E946D
:102AF000032881E00E9403288FE00E94032880E0E1
:102B00000E94032884EB0E94EE2782E00E940328A3
:102B100083E10E94032880E00E94032888E00E944D
:102B200003288BE20E94032880E00E94032882E0B1
:102B30000E94032880E00E94032886EB0E94EE2773
:102B400081E00E94032880E20E94032880E00E9426
:102B5000032884E00E9403288CE00E94032880E080
:102B60000E94032882E00E9403288AEB0E94EE273D
:102B70008FE00E94032888EB0E94EE2787E00E94E6
:102B8000032881E00E94032886E30E94EE2782E268
:102B90000E94032880EF0E94EE2783E00E94032812
:102BA00061E070E080E090E00E9424332FE031E0AB
:102BB0004FED51E060E070E080E090E00E94452839
:102BC00089E20E94EE278EEB0E94EE2786E00E94AB
:102BD000032880EF0E94032881E00E94032880EFF1
:102BE0000E94032880E00E94032880E00E940328BE
:102BF00080ED0E94EE278DE00E94032889C782EEB7
:102C00000E94EE278EE10E94032882E00E940328A2
:102C100084E50E94032880EE0E94EE2781E00E9456
:102C200003286AE070E080E090E00E94243380EEA8
:102C30000E94EE2783E00E9403286AE070E080E0B3
:102C400090E00E94243381E00E94EE2764E670E069
:102C500080E090E00E94243386EE0E94EE2783E01D
:102C60000E9403288FEF0E9403288FEF0E94032801
:102C700080EB0E94EE2784E20E94032880E00E94FD
:102C8000032883E00E9403288FE10E94032881E04B
:102C90000E9403288FED0E94032880E00E940328F1
:102CA00084EB0E94EE2783E00E94032880EA0E94C2
:102CB000032880E00E9403288EE20E94032880E31C
:102CC0000E94032880E00E9403288FE00E940328CE
:102CD00080E00E94032886EB0E94EE2782E00E949B
:102CE00003288DE00E94032880E00E94032880E1F1
:102CF0000E94032880E10E94032880E00E940328AC
:102D000088E00E9403288AEB0E94EE278FE00E9451
:102D1000032888EB0E94EE2787E00E94032881E0C9
:102D20000E94032886E30E94EE2782E20E94032885
:102D300080EF0E94EE2783E00E94032861E070E0AC
:102D400080E090E0A3C082EE0E94EE2783E20E9422
:102D5000032882E00E94032884E00E94032880EE7A
:102D60000E94EE2781E00E9403286AE070E080E084
:102D700090E00E94243380EE0E94EE2783E00E94C0
:102D800003286AE070E080E090E00E94243381E054
:102D90000E94EE2764E670E080E090E00E94243319
:102DA00086EE0E94EE2784E00E94032883E90E94B9
:102DB000032880EE0E94032880EB0E94EE2780E02B
:102DC0000E94032880E00E94032883E00E940328D9
:102DD0008FE10E94032881E00E9403288FED0E946A
:102DE000032880E00E94032884EB0E94EE2783E002
:102DF0000E94032880EA0E94032880E00E940328A2
:102E00008EE20E94032880E30E94032880E00E9453
:102E100003288FE00E94032880E00E94032886EBAD
:102E20000E94EE2782E00E9403288DE00E94032882
:102E300080E00E94032880E10E94032880E10E9434
:102E4000032880E00E94032888E00E9403288AEB80
:102E50000E94EE2785E00E94032888EB0E94EE275F
:102E600087E00E94032881E00E94032886E30E94F5
:102E7000EE2782E20E94032880EF0E94EE2783E083
:102E80000E9403286AE070E080E090E00E94243312
:102E90002FED31E04FE153E08DCE64E070E281E14F
:102EA0000E94342860E07CEC83E10E94342860E0DA
:102EB00076E285E10E9434286AE275E284E10E94AC
:102EC000342863E370E082E10E94342864E07CEC03
:102ED00083E10E94342866E07CEC83E10E94342880
:102EE0006FE47CEC83E10E9434286FE477E683E1B1
:102EF0000E94342863E070E281E10E94342869E096
:102F000076E280E30E9434286CE274E281E30E945E
:102F1000342863E27FE182E30E94342865E274E2B0
:102F200083E30E94342866E272E284E30E9434283C
:102F300063E275E285E30E9434286AE17CE186E37E
:102F40000E9434286DE173E187E30E94342861E137
:102F50007BE088E30E94342860E172E189E30E940B
:102F6000342865E173E18AE30E94342869E176E35D
:102F70008BE30E94342860E07DE08CE30E943428DB
:102F80006DE070E08DE30E94342867E070E086E138
:102F90000E94342863E170E082E00E94342863E0FC
:102FA00070E083E00E94342867E271E081E00E94D3
:102FB000342863E073E088E00E9434286BE070E01E
:102FC0008AE00E94342863E070E08BE00E9434289D
:102FD00060E070E08CE00E94342860E070E081E402
:102FE0000E94342860E070E080E50E94342865E0AB
:102FF00070E080E60E9434286BE070E080E70E9479
:10300000342860E070E081E70E94342860E070E0DE
:1030100088E70E94342860E070E08AE70E94342844
:1030200067E070E089E70E94342861E570E087E09E
:103030000E94342863E570E087E00E94342860E055
:1030400070E089E748C181E10E94EE2764E170E009
:1030500080E090E00E94243380ED0E94EE2787E01C
:103060000E94032882E40E94032888E10E9403282A
:1030700081ED0E94EE2780E00E94032887E00E94F5
:10308000032880E10E94032882ED0E94EE2781E060
:103090000E94032882E00E94032880EC0E94EE2711
:1030A00080E10E9403288BE30E94032880E00E94B5
:1030B000032882E00E94032881E10E94032885EC16
:1030C0000E94EE2783E00E94032888EC0E94EE27EE
:1030D00080E00E94032882E30E94032886E30E9486
:1030E000032885E40E94032886E00E94032886E1E5
:1030F0000E94032887E30E94032885E70E94032893
:1031000087E70E94032884E50E9403288CE00E9440
:10311000032880E00E94032886E30E94EE278AE0CD
:103120000E9403288AE30E94EE2785E50E94032877
:103130008AE20E94EE2780E00E94032880E00E943D
:10314000032881E00E9403288FE30E9403288BE27A
:103150000E94EE2780E00E94032880E00E9403285E
:1031600081E00E94032880EE0E94032868E770E057
:1031700080E090E00E94243392C16AE170E081E136
:103180000E94342861E271E382E10E9434286CE6F7
:1031900070E083E10E94342869E472E484E10E94D3
:1031A000342860E078E080E10E9434286AE070E032
:1031B00080E090E00E9424336AE171E081E10E94A6
:1031C00034286AE070E080E090E00E9424336AE1F5
:1031D00073E081E10E9434286AE070E080E090E0D2
:1031E0000E9424336AE177E081E10E9434286AE09A
:1031F00070E080E090E00E9424336AE17FE081E1AA
:103200000E9434286AE070E080E090E00E9424335D
:103210006AE37FE081E10E9434286EE170E080E0A3
:1032200090E00E9424336CE171E081E00E94342838
:1032300060E071E082E00E94342860E370E183E0A6
:103240000E94342860E070E087E00E94342868E043
:1032500078E088E00E94342860E071E18BE00E9411
:10326000342860E070E08CE00E94342861E074E172
:103270008FE00E94342860E070E085E10E943428ED
:1032800060E070E080E20E94342860E070E081E25B
:103290000E9434286FEA70E086E30E94342860E0E0
:1032A00070E087E30E9434286BED70E088E30E94B1
:1032B000342860E070E089E30E94342861E07BE01C
:1032C0008FE00E94342866E170E087E00E94342895
:1032D00067E170E087E00E943428C0C881E10E9465
:1032E000EE2768E770E080E090E00E94243381EBF5
:1032F0000E94EE2785E00E9403288CE30E940328A9
:103300008CE30E94032882EB0E94EE2785E00E9456
:1033100003288CE30E9403288CE30E94032883EB9C
:103320000E94EE2785E00E9403288CE30E94032878
:103330008CE30E94032885E00E9403288CE30E940E
:1033400003288CE30E94032884EB0E94EE2783E08D
:103350000E94032880EC0E94EE2788E20E94032846
:1033600088E00E94032884E00E94032881EC0E94E8
:10337000EE2780EC0E94032882EC0E94EE278DE06D
:103380000E94032880E00E94032883EC0E94EE271D
:103390008DE80E9403288AE20E94032884EC0E94A0
:1033A000EE278DE80E9403288EEE0E94032885EC0C
:1033B0000E94EE278AE10E94032886E30E94EE27FE
:1033C00080EC0E94032880EE0E94EE2783E00E949A
:1033D000032882E20E94032887E00E9403288AE0F3
:1033E0000E9403288EE20E94032880E30E940328A3
:1033F00085E20E9403288AE20E94032888E20E9454
:10340000032886E20E9403288EE20E9403288AE3B2
:103410000E94032880E00E94032881E00E94032884
:1034200083E00E94032883E10E94032881EE0E942A
:10343000EE2784E00E94032886E10E94032886E0AC
:103440000E9403288DE00E9403288DE20E94032839
:1034500086E20E94032883E20E94032887E20E94FA
:10346000032887E20E94032885E20E9403288DE258
:103470000E9403288BE30E94032880E00E94032817
:1034800081E00E94032884E00E94032883E10E94D7
:1034900003288AE30E94EE2785E00E94032889E240
:1034A0000C942F1281E10E94EE2764E170E080E02D
:1034B00090E00E94243388E20E94EE2765E070E0ED
:1034C00080E090E00E9424338FEC0E94EE2780E0A1
:1034D0000E94032883E80E94032880E30E940328B7
:1034E0008DEE0E94EE2784E60E94032883E00E946E
:1034F000032882E10E94032881E80E94032888EEC5
:103500000E94EE2785E80E94032881E00E9403289C
:1035100089E70E9403288BEC0E94EE2789E30E9432
:1035200003288CE20E94032880E00E94032884E3A1
:103530000E94032882E00E94032887EF0E94EE2762
:1035400080E20E9403288AEE0E94EE2780E00E941B
:10355000032880E00E94032880EC0E94EE2786E288
:103560000E94032881EC0E94EE2781E10E9403283B
:1035700085EC0E94EE2785E30E9403288EE30E94DB
:10358000032887EC0E94EE278EEB0E94032881EB34
:103590000E94EE2780E00E9403288BE10E9403280E
:1035A00086EB0E94EE278AE00E94032882E80E94B0
:1035B000032887E20E94032880E00E94032887EB0B
:1035C0000E94EE2787E00E9403288AE30E94EE27EC
:1035D00085E50E94032886E30E94EE2788E40E9486
:1035E000032889E20E94EE2765E070E080E090E029
:1035F0005CC38BEC0E94EE2789E30E9403288CE2D7
:103600000E94032880E00E94032884E30E9403288C
:1036100082E00E9403288FEC0E94EE2780E00E9447
:10362000032881EC0E94032880E30E94032888EE8F
:103630000E94EE2785E80E94032880E00E9403286C
:1036400088E70E9403288AEE0E94EE2780E00E940D
:10365000032880E00E9403288DEE0E94EE2784E676
:103660000E94032883E00E94032882E10E9403282D
:1036700081E80E94032887EF0E94EE2780E20E94E3
:10368000032880EC0E94EE2783E20E94032881EC4D
:103690000E94EE2780E10E94032885EC0E94EE271D
:1036A0008EE30E94032888E20E94032887EC0E9490
:1036B000EE2786E80E94032886E30E94EE2788E42E
:1036C0000E9403288AE30E94EE2785E50E940328D2
:1036D00081EB0E94EE2780E00E94032888E10E948F
:1036E000032886EB0E94EE2788E00E94032882E8E8
:1036F0000E94032887E20E94032881E10E94EE27AE
:1037000068E770E080E090E0FEC180EB0E94EE2769
:103710008EE10E94032880EB0E94EE2780E00E9449
:10372000032883EB0E94EE2782E00E94032880E0BA
:103730000E94032880E00E94032880E10E94032861
:1037400084EB0E94EE2780E00E94032880EC0E9418
:10375000EE2783E00E9403288BE30E94032880E089
:103760000E94032880E00E94032880E00E94032832
:1037700081E00E94032880E00E94032883E40E94E5
:10378000032881EC0E94EE2788E00E94032885E14F
:103790000E94032888E00E94032888E00E940328F2
:1037A00084EC0E94EE2785E10E94032883E00E94BA
:1037B000032883E00E94032881E00E94032886EC0E
:1037C0000E94EE2782E00E94032888EC0E94EE27E8
:1037D0008CE00E94032885E00E9403288AE00E9472
:1037E00003288BE60E94032884E00E94032886E0D9
:1037F0000E94032885E10E94032880E10E9403289B
:1038000080E00E94032880E60E94032886E30E944D
:10381000EE278AE00E9403288CE00E94EE2785E5CF
:103820000E9403288AE30E94EE2785E50E94032870
:1038300088E30E94EE2780ED0E94EE2787E00E9439
:10384000032887E00E94032884E10E94032882EA7B
:103850000E94032881ED0E94EE2783E00E94032846
:103860008AE50E94032880E10E94032882ED0E94DD
:10387000EE2783E00E94032884E00E94032884E06E
:103880000E94032881E10E94EE2766E970E080E053
:1038900090E00E9424338AE20E94EE2780E00E949A
:1038A000032880E00E94032881E00E9403288FED16
:1038B0000E9403288BE20E94EE2780E00E940328EA
:1038C00080E00E94032881E00E9403288FE30E9489
:1038D000032864E670E080E090E00E94243389E2EF
:1038E0000E94EE276EE170E080E090E00E942433B9
:1038F0008CE20E94EE276EE170E080E090E0D5C19E
:1039000081E10E94EE2762E370E080E090E00E9497
:10391000243382EF0E94EE278CE10E94032883EA81
:103920000E94032882E30E94032882E00E94032869
:1039300082EB0E94032882E10E9403288FEF0E94FD
:10394000032882E10E94032880E00E94032881EF7F
:103950000E94EE2786E30E94032884EA0E9403283F
:1039600088EF0E94EE2781E20E94032884E00E94F3
:10397000032889EF0E94EE2780E00E94032888E058
:103980000E94032880EC0E94EE278DE00E9403280D
:103990008DE00E94032881EC0E94EE2783E40E94C0
:1039A000032880E00E94032882EC0E94EE2780E03A
:1039B0000E94032885EC0E94EE2780E00E940328E5
:1039C00088E40E94032886EB0E94EE2780E00E9494
:1039D000032882E20E9403288BE30E94032880EEE2
:1039E0000E94EE278FE00E94032884E20E940328B1
:1039F0008CE10E9403288AE00E9403288FE00E9445
:103A0000032888E00E94032883E40E94032888E8B2
:103A10000E94032882E30E9403288FE00E9403286B
:103A200080E10E94032886E00E9403288FE00E9424
:103A3000032887E00E94032880E00E94032881EE8B
:103A40000E94EE278FE00E94032888E30E9403284B
:103A500080E30E94032889E00E9403288FE00E94EF
:103A600003288FE00E9403288EE40E94032887E742
:103A70000E9403288CE30E94032887E00E94032809
:103A800080E10E94032885E00E94032883E20E94CF
:103A900003288BE10E94032880E00E94032880E233
:103AA0000E94EE2780E00E94032886E30E94EE2712
:103AB0008AE00E9403288AE30E94EE2785E50E949F
:103AC00003288AE20E94EE2780E00E94032880E01B
:103AD0000E94032881E00E9403288FED0E940328A2
:103AE0008BE20E94EE2780E00E94032880E00E9483
:103AF000032881E00E9403288FE30E94032862E3E9
:103B000070E080E090E00E94243389E20E94EE277A
:103B10008CE20C942F1280916D04813019F4109274
:103B20006D0403C081E080936D048FE00E94EE2756
:103B300060E170E081E00E9434288FE00C942F1245
:103B400089EB0E94EE278FEF0E94032883E80E94F2
:103B5000032883E50E94032880EB0E94EE278CE374
:103B60000E94032881E00E94032886EB0E94EE2732
:103B700084E90E9403288CE60E94032880E50E94C5
:103B8000032881EB0E94EE2780E00E94032881E059
:103B90000E9403288BE10E94032883E00E940328EF
:103BA00081E00E94032888E00E94032887E70E94A2
:103BB000032889E80E94032880EE0E94EE2780E512
:103BC0000E94032887E70E94032880E40E940328BC
:103BD00088E00E9403288FEB0E94032880E00E9467
:103BE000032883E00E9403288FE00E94032880E0DE
:103BF0000E94032881E00E94032883E70E94032893
:103C000080E00E94032882E70E94032883E00E944C
:103C1000032880EB0E9403288FE00E94032888E09D
:103C20000E94032880E00E9403288FE00E9403285E
:103C30008AE30E94EE2785E00E94032886E30E9423
:103C4000EE2780EC0E94032881E10E94EE2766E9BE
:103C500070E080E090E00E94243389E20E94EE2729
:103C600066E970E080E090E00E9424338DE20E94DB
:103C7000EE27C0E08C2F0E940328CE5FC034D1F71E
:103C8000C0E08C2F0E940328CF5FC034D1F7C0E082
:103C90008C2F0E940328CE5FC034D1F78CE20E94A3
:103CA000EE2766E970E080E090E00E942433E09126
:103CB0007D04F0917E04908180918904892B80831A
:103CC0008FEF8093690480936A0410926B041092C2
:103CD0006C041092990410929404109293040E9420
:103CE0004D2D82E090E0909301028093000266EAFD
:103CF00072E084E893E00E94CE2E809100029091C1
:103D00000102DF91CF911F910F91FF90EF90DF9013
:103D1000CF90BF90AF909F908F907F906F905F906B
:103D20004F900C94922ECF93DF93FC01C9E6D4E020
:103D3000AC89BD893C9198A1909593239C939B015C
:103D4000AF01CF010E944528888190E0982F8827F5
:103D50002981822B0E946829EC89FD89908188A1A4
:103D6000892B8083DF91CF910C9453292F923F921E
:103D70004F925F926F927F928F929F92AF92BF927B
:103D8000CF92DF92EF92FF920F931F93CF93DF9327
:103D9000CDB7DEB72C970FB6F894DEBF0FBECDBF00
:103DA0008C017C876B871A01FC0101900020E9F7E8
:103DB00031979F01281B390B3C832B8380916D0425
:103DC000811132C06F307742A1F460916E0470911E
:103DD0006F046F5F7F4F209195044B815C81249F1E
:103DE000C001259F900D1124DB01A81BB90BBC87D6
:103DF000AB87EB85FC85EE30F74209F059C0809126
:103E00006E0490916F04A0917004B09171040196BA
:103E1000A11DB11D209195044B815C81249F6001FF
:103E2000259FD00C112432C08B859C858F30974202
:103E3000A1F460917204709173046F5F7F4F2091C1
:103E40009504EB81FC812E9FC0012F9F900D1124C2
:103E50009B01281B390B3C872B874B855C854E309B
:103E6000574231F58091720490917304A0917404CB
:103E7000B09175040196A11DB11D20919504EB81AF
:103E8000FC812E9F60012F9FD00C11240D2C000C63
:103E9000EE08FF08BC01CD016C197D098E099F0950
:103EA00022E030E040E050E00E94FC393C872B8764
:103EB00018870F831E821D82ED81FE812B813C813C
:103EC000E217F3070CF098C1809195042D813E8193
:103ED000829F2001839F500C11244B855C85440EEA
:103EE000551EAF81B8850D91B887AF83E0917D04F1
:103EF000F0917E049081809189048095892380834C
:103F000020919904809195049091960410E02111DC
:103F1000FCC020916D04211179C09101290F311D40
:103F200021503109A201480F511D41505109B101E1
:103F3000C2010E94452880919504869586958695B4
:103F40009091960420919704021B1109899FC0014A
:103F50001124089F7001099FF00C189FF00C112488
:103F6000B4E0EB0EF11CA12CB12C80919504869548
:103F70008695869590919604899FC0011124A81674
:103F8000B90690F5E0919304F0919404EE0DFF1DB5
:103F9000E491F7E0CF2ED12C0E2F10E0C8010C2CAD
:103FA00002C0959587950A94E2F780FF08C080913A
:103FB000690490E0982F882720916A0407C08091B7
:103FC0006B0490E0982F882720916C04822B0E942C
:103FD0006829E1E0CE1AD10808F72FEFE21AF20AB9
:103FE0003FEFA31AB30AC1CFE0917D04F0917E04A4
:103FF000908180918904892B80830E9453294D816F
:104000005E814F5F5F4F5E834D8356CF8695869569
:10401000869520919704021B1109899FC0011124E4
:10402000089F6001099FD00C189FD00C112454E008
:10403000C50ED11CA12CB12C20919504622F669540
:104040006695669580919604689FC0011124A81614
:10405000B90650F670E0C5010E94E839620D731D83
:10406000A201420F511D415051099B01C2010E9402
:104070004528E0909504E694E694E694F12C4601F8
:1040800081E0881A9108E114F104A1F1E091930410
:10409000F0919404C4018E0D9F1DE80FF91FE49167
:1040A000612C712C0E2F10E0C801062C02C09595D2
:1040B00087950A94E2F780FF08C08091690490E038
:1040C000982F882720916A0407C080916B0490E0A4
:1040D000982F882720916C04822B0E9468299FEFDB
:1040E000691A790AA8E06A167104F1F6B1E0EB1AD0
:1040F000F108C9CF8091950486958695869590E0C4
:10410000C80ED91EA80EB91E97CF8695869586959E
:1041100020919704021B1109899FC0011124089F57
:104120003001099F700C189F700C1124E4E06E0E92
:10413000711C81018091960490E098012219330945
:104140002817390708F050CF812C912CC12CD12C85
:10415000D8011196BA87A98780919504869586958E
:10416000869590E0C816D9060CF041C0E091930402
:10417000F0919404C601860D971DE80FF91FE49194
:104180007201E80CF91C37E0A32EB12C2E2F30E081
:104190003A83298389819A810A2C02C09595879553
:1041A0000A94E2F780FF12C029853A85A7014F5F84
:1041B0005F4FB801C70169D78091690490E0982FDB
:1041C000882720916A04822B0E94682931E0A31A73
:1041D000B1084FEFE41AF40A5FEFA516B506D1F661
:1041E0008FEFC81AD80A98E0890E911CB5CF680ED7
:1041F000791E0F5F1F4F9ECF2C960FB6F894DEBF2F
:104200000FBECDBFDF91CF911F910F91FF90EF9027
:10421000DF90CF90BF90AF909F908F907F906F90E6
:104220005F904F903F902F900895A9E6B4E09B9641
:104230009C938E939A97FC0124919C962C939C9727
:104240003196E4919D96EC939D97FC013296E49112
:104250009E96EC939E97FC01339684919F968C9347
:1042600008958F929F92AF92BF92CF92DF92EF927A
:10427000FF920F931F93CF93DF93CDB7DEB75B0110
:104280004A01CDB6DEB6FC010481158198012F5F8D
:104290003F4F4DB75EB7421B530B0FB6F8945EBF4E
:1042A0000FBE4DBFEDB7FEB731967F01232B81F0D6
:1042B000309771F00115110551F0FC016081718199
:1042C000A801C7010E94453CF701E00FF11F1082D1
:1042D000A401B501C7014ADD0FB6F894DEBE0FBEDA
:1042E000CDBEDF91CF911F910F91FF90EF90DF90A6
:1042F000CF90BF90AF909F908F9008958F929F9294
:10430000AF92BF92CF92DF92EF92FF926A017B0150
:1043100082B9CB01BA0120E130E040E050E00E94D8
:10432000FC3949015A0180E090E0DC0188159905CB
:10433000AA05BB050CF064C2E0917B04F0917C04FB
:10434000308120918804209523232083E0917B04F1
:10435000F0917C04308120918804232B2083E0910C
:104360007B04F0917C0430812091880420952323E4
:104370002083E0917B04F0917C04308120918804BB
:10438000232B2083E0917B04F0917C0430812091E9
:104390008804209523232083E0917B04F0917C0402
:1043A000308120918804232B2083E0917B04F091BD
:1043B0007C04308120918804209523232083E09180
:1043C0007B04F0917C04308120918804232B20838E
:1043D000E0917B04F0917C04308120918804209549
:1043E00023232083E0917B04F0917C043081209191
:1043F0008804232B2083E0917B04F0917C0430819E
:1044000020918804209523232083E0917B04F09160
:104410007C04308120918804232B2083E0917B044D
:10442000F0917C04308120918804209523232083FF
:10443000E0917B04F0917C04308120918804232B4F
:104440002083E0917B04F0917C04308120918804EA
:10445000209523232083E0917B04F0917C0430811C
:1044600020918804232B2083E0917B04F0917C042D
:10447000308120918804209523232083E0917B04C0
:10448000F0917C04308120918804232B2083E091DB
:104490007B04F0917C0430812091880420952323B3
:1044A0002083E0917B04F0917C043081209188048A
:1044B000232B2083E0917B04F0917C0430812091B8
:1044C0008804209523232083E0917B04F0917C04D1
:1044D000308120918804232B2083E0917B04F0918C
:1044E0007C04308120918804209523232083E0914F
:1044F0007B04F0917C04308120918804232B20835D
:10450000E0917B04F0917C04308120918804209517
:1045100023232083E0917B04F0917C04308120915F
:104520008804232B2083E0917B04F0917C0430816C
:1045300020918804209523232083E0917B04F0912F
:104540007C04308120918804232B2083E0917B041C
:10455000F0917C04308120918804209523232083CE
:10456000E0917B04F0917C04308120918804232B1E
:104570002083E0917B04F0917C04308120918804B9
:10458000209523232083E0917B04F0917C043081EB
:1045900020918804232B2083E0917B04F0917C04FC
:1045A000308120918804209523232083E0917B048F
:1045B000F0917C04308120918804232B2083E091AA
:1045C0007B04F0917C043081209188042095232382
:1045D0002083E0917B04F0917C0430812091880459
:1045E000232B2083E0917B04F0917C043081209187
:1045F0008804209523232083E0917B04F0917C04A0
:10460000308120918804232B2083E0917B04F0915A
:104610007C04308120918804209523232083E0911D
:104620007B04F0917C04308120918804232B20832B
:10463000E0917B04F0917C043081209188042095E6
:1046400023232083E0917B04F0917C04308120912E
:104650008804232B2083E0917B04F0917C0430813B
:1046600020918804209523232083E0917B04F091FE
:104670007C04308120918804232B2083E0917B04EB
:10468000F0917C043081209188042095232320839D
:10469000E0917B04F0917C04308120918804232BED
:1046A0002083E0917B04F0917C0430812091880488
:1046B000209523232083E0917B04F0917C043081BA
:1046C00020918804232B2083E0917B04F0917C04CB
:1046D000308120918804209523232083E0917B045E
:1046E000F0917C04308120918804232B2083E09179
:1046F0007B04F0917C043081209188042095232351
:104700002083E0917B04F0917C0430812091880427
:10471000232B2083E0917B04F0917C043081209155
:104720008804209523232083E0917B04F0917C046E
:10473000308120918804232B2083E0917B04F09129
:104740007C04308120918804209523232083E091EC
:104750007B04F0917C04308120918804232B2083FA
:10476000E0917B04F0917C043081209188042095B5
:1047700023232083E0917B04F0917C0430812091FD
:104780008804232B2083E0917B04F0917C0430810A
:1047900020918804209523232083E0917B04F091CD
:1047A0007C04308120918804232B2083E0917B04BA
:1047B000F0917C044081309188043095342330831B
:1047C000E0917B04F0917C04208130918804322BAD
:1047D0003083E0917B04F0917C0440813091880427
:1047E000309534233083E0917B04F0917C04208168
:1047F00030918804322B30830196A11DB11D96CDD6
:10480000D701C6018F709927AA27BB27892B8A2B2E
:104810008B2BE1F1C701B60120E130E040E050E030
:104820000E94FC39C12CD12C76016C157D058E05BA
:104830009F0564F1E0917B04F0917C04308120912C
:104840008804209523232083E0917B04F0917C044D
:10485000308120918804232B2083E0917B04F09108
:104860007C04308120918804209523232083E091CB
:104870007B04F0917C04308120918804232B2083D9
:104880002FEFC21AD20AE20AF20ACFCFFF90EF90BE
:10489000DF90CF90BF90AF909F908F9008958F92B0
:1048A0009F92AF92BF92CF92DF92EF92FF926901F7
:1048B0007A0182B968B9CA01B90120E130E040E06B
:1048C00050E00E94FC3949015A0180E090E0DC018F
:1048D00088159905AA05BB050CF034C1E0917B044D
:1048E000F0917C043081209188042095232320833B
:1048F000E0917B04F0917C04308120918804232B8B
:104900002083E0917B04F0917C0430812091880425
:10491000209523232083E0917B04F0917C04308157
:1049200020918804232B2083E0917B04F0917C0468
:10493000308120918804209523232083E0917B04FB
:10494000F0917C04308120918804232B2083E09116
:104950007B04F0917C0430812091880420952323EE
:104960002083E0917B04F0917C04308120918804C5
:10497000232B2083E0917B04F0917C0430812091F3
:104980008804209523232083E0917B04F0917C040C
:10499000308120918804232B2083E0917B04F091C7
:1049A0007C04308120918804209523232083E0918A
:1049B0007B04F0917C04308120918804232B208398
:1049C000E0917B04F0917C04308120918804209553
:1049D00023232083E0917B04F0917C04308120919B
:1049E0008804232B2083E0917B04F0917C043081A8
:1049F00020918804209523232083E0917B04F0916B
:104A00007C04308120918804232B2083E0917B0457
:104A1000F0917C0430812091880420952323208309
:104A2000E0917B04F0917C04308120918804232B59
:104A30002083E0917B04F0917C04308120918804F4
:104A4000209523232083E0917B04F0917C04308126
:104A500020918804232B2083E0917B04F0917C0437
:104A6000308120918804209523232083E0917B04CA
:104A7000F0917C04308120918804232B2083E091E5
:104A80007B04F0917C0430812091880420952323BD
:104A90002083E0917B04F0917C0430812091880494
:104AA000232B2083E0917B04F0917C0430812091C2
:104AB0008804209523232083E0917B04F0917C04DB
:104AC000308120918804232B2083E0917B04F09196
:104AD0007C04308120918804209523232083E09159
:104AE0007B04F0917C04308120918804232B208367
:104AF000E0917B04F0917C044081309188043095F2
:104B000034233083E0917B04F0917C042081309148
:104B10008804322B3083E0917B04F0917C04408147
:104B200030918804309534233083E0917B04F091F8
:104B30007C04208130918804322B30830196A11DA2
:104B4000B11DC6CED701C6018F709927AA27BB27F2
:104B5000892B8A2B8B2B49F1C701B60120E130E06C
:104B600040E050E00E94FC39C12CD12C76016C153C
:104B70007D058E059F05CCF0E0917B04F0917C04CF
:104B8000308120918804209523232083E0917B04A9
:104B9000F0917C04308120918804232B20832FEF17
:104BA000C21AD20AE20AF20AE2CFFF90EF90DF9037
:104BB000CF90BF90AF909F908F9008950F931F93C9
:104BC000CF93DF93FC01EA0157FF05C0640F751F07
:104BD000D195C195D109A0917D04B0917E042C910D
:104BE00090918904909592239C939B012C0F3D1FDB
:104BF000AF01CF014AD2809177048031A9F4E091CE
:104C00007904F0917A04908180918704892B8083C4
:104C10009E01DD0F440B550B60916A0470E080919A
:104C2000690490E03CDE26C08830C1F490916904AC
:104C300080916A04981312C0E0917904F0917A048B
:104C4000908180918704892B8083AE01DD0F660BF4
:104C5000770B8091690490E051DB0CC000E010E01C
:104C600060916A0480916904E3D10F5F1F4FC01700
:104C7000D107B4F7E0917D04F0917E04908180919A
:104C80008904892B8083DF91CF911F910F910BC3F2
:104C90000F931F93CF93DF93EA0157FF05C0840F53
:104CA000951FD195C195D109E0917D04F0917E04C5
:104CB000408130918904309534233083AC014C0F0E
:104CC0005D1F9B01E2D1809177048031A9F4E091CE
:104CD0007904F0917A04908180918704892B8083F4
:104CE0009E01DD0F440B550B60916A0470E08091CA
:104CF000690490E0D4DD26C08830C1F49091690445
:104D000080916A04981312C0E0917904F0917A04BA
:104D1000908180918704892B8083AE01DD0F660B23
:104D2000770B8091690490E0E9DA0CC000E010E0B4
:104D300060916A04809169047BD10F5F1F4FC01797
:104D4000D107B4F7E0917D04F0917E0490818091C9
:104D50008904892B8083DF91CF911F910F91A3C28A
:104D60002F923F924F925F926F927F928F929F927B
:104D7000AF92BF92CF92DF92EF92FF920F931F9369
:104D8000CF93DF937C01EB018A0169014817590732
:104D90002CF4982F8F2D7A01092F182FCC16DD06B1
:104DA0002CF49C2F8D2FE601C92ED82E28014E18E9
:104DB0005F0885E0481651040CF455C016012C1A02
:104DC0003D0A85E0281631040CF44DC04E018FEFEA
:104DD000881A980A37018FEF681A780AB401C3015C
:104DE0000E94931E580181E0A81AB108B401C501C0
:104DF0000E94931E460181E0881A9108B401C30104
:104E00000E94931EB401C5010E94931E84E0481ABB
:104E10005108570182E0A80EB11CA201BE01C501D4
:104E200037DFA201B601C50133DF84E0281A31085B
:104E30002296A101BE01C701C1DEA101BE01C801C8
:104E4000DF91CF911F910F91FF90EF90DF90CF9066
:104E5000BF90AF909F908F907F906F905F904F909A
:104E60003F902F90ABCEDF91CF911F910F91FF908C
:104E7000EF90DF90CF90BF90AF909F908F907F90FA
:104E80006F905F904F903F902F9008952F923F9298
:104E90004F925F926F927F928F929F92AF92BF924A
:104EA000CF92DF92EF92FF920F931F93CF93DF93F6
:104EB000CDB7DEB728970FB6F894DEBF0FBECDBFD3
:104EC0008C016B017901481759072CF4982F812F19
:104ED0008A01492F582FEC14FD042CF49C2D8D2DA4
:104EE0006701E92EF82E9A01201B310B38872F839A
:104EF000253031050CF459C0C7018C199D09853046
:104F000091050CF452C09C01359527953A8329836D
:104F1000A12CB12C2F80388434E0231A31082801C9
:104F200082E0480E511C6F80788492E0691A710803
:104F30004801EFEF8E1A9E0A96012F5F3F4F3C8388
:104F40002B839701215031093E832D83A114B10495
:104F500071F031E0A316B10491F4A3016B817C815F
:104F6000C40196DEA3016D817E81C40115C0A1013B
:104F7000B601C2018DDEA101B701C2010DC04F8192
:104F80005885B5016C0D7D1DC80182DE4F815885A5
:104F9000B7016A197B09C8017BDE8FEFA81AB80A2E
:104FA00029813A812A153B058CF628960FB6F8948C
:104FB000DEBF0FBECDBFDF91CF911F910F91FF904C
:104FC000EF90DF90CF90BF90AF909F908F907F90A9
:104FD0006F905F904F903F902F900895682F809131
:104FE0007704813069F0E0917904F0917A042081AE
:104FF000909187049095922390834091770401C00B
:1050000041E080E032C2682F80917704813069F0FE
:10501000E0917904F0917A04808190918704982B33
:1050200090834091770480E002C041E081E01DC29E
:10503000CF9390917704913061F0E0917904F091F1
:105040007A04208190918704922B90834091770479
:1050500009C0C62F682F41E081E007D24091770454
:105060006C2F81E0CF9101C2CF93DF931F921F92EB
:10507000CDB7DEB769837A83B1DF69817A81872F03
:105080000F900F90DF91CF91D3CFCF92DF92EF921D
:10509000FF920F931F93CF93DF938C01F62EE72E91
:1050A000EA01D22EC32E80916D04813089F4809163
:1050B0007204909173049C01201B310B841B950B8F
:1050C000CD2DDC2DD22EC32E062F172FF82EE92E34
:1050D000E09176048E2F90E0FC013297EE31F105DD
:1050E00008F0D8C08827E057FF4F8F4F0C94183A2C
:1050F000612F70E082E0B8DFB80183E0B5DF6D2F8B
:1051000070E084E0B1DFBE0185E0AEDF6E2D70E0BF
:1051100086E0AADF6F2D7E2D87E0A6DF6C2D70E084
:1051200044C07C2F6627600F711F84E49DDF6F2DC4
:105130007E2D85E499DF6D2D7C2D86E495DFB80109
:105140008EE492DF6F2D7E2D8FE48EDF82E299C098
:10515000B80180E289DF6F2D7E2D81E285DFB80105
:1051600080E582DF6F2D7E2D82E57EDFBE0181E549
:105170007BDF6D2D7C2D83E5E8CF60E070E082E081
:1051800073DFB80183E070DF60E070E084E06CDF23
:10519000BE0185E069DF60E070E086E065DF6F2DCD
:1051A0007E2D87E061DF60E070E088E05DDF6D2DDF
:1051B0007C2D89E0CACF8AE211DF802F24DF8C2F7B
:1051C00022DF8BE20BDF8F2D58C08AE207DF8E2DA6
:1051D0001ADF8F2D18DF8C2D16DF8D2D14DF8BE25B
:1051E000FDDE812F10DF802F0EDF8D2F0CDF8C2F47
:1051F00046C07C2F6627602B712B86E435DF6D2D32
:105200007C2D87E431DF6F2D7E2D88E40DC0BE013B
:1052100086E32ADFB80187E327DF6D2D7C2D88E345
:1052200023DF6F2D7E2D89E31FDFB80180E21CDFB5
:105230006F2D7E2D81E289CF6F2D7E2D82E014DFD0
:10524000B80183E011DF6D2D7C2D86E00DDFBE01FE
:1052500087E00ADF8FE015C08AE2C0DE812FD3DE4F
:10526000802FD1DE8D2FCFDE8C2FCDDE8BE2B6DE10
:105270008E2DC9DE8F2DC7DE8C2DC5DE8D2DC3DEB4
:105280008CE2DF91CF911F910F91FF90EF90DF9013
:10529000CF90A4CEDF91CF911F910F91FF90EF900F
:1052A000DF90CF90089520916D04809172049091C9
:1052B000730440916E0450916F04211102C09C014F
:1052C00002C09A01AC0160E070E080E090E0DDCEC9
:1052D000682F892FADCEE4E8F3E0A089B18982E0A0
:1052E0008C93A485B5851C92A685B78580E18C93A7
:1052F000108EA489B58986E08C93A289B3898C919C
:1053000080618C93A289B3898C9188608C93A289E7
:10531000B3898C9180688C930288F389E02D808119
:105320008F7D80830895CF93C82FE8E8F1E0449102
:10533000EEECF1E02491EEE2F2E09491992309F48D
:105340006BC0442309F455C050E0FA013197E231B3
:10535000F10508F04EC08827E255FF4F8F4F0C949F
:10536000183A809180008F7707C0809180008F7DF0
:1053700003C080918000877F809380003AC084B50D
:105380008F7702C084B58F7D84BD33C08091B0001B
:105390008F7703C08091B0008F7D8093B00029C0CB
:1053A000809190008F7707C0809190008F7D03C01F
:1053B00080919000877F809390001BC08091A00017
:1053C0008F7707C08091A0008F7D03C08091A000DF
:1053D000877F8093A0000DC0309120013F7707C0E8
:1053E000309120013F7D03C030912001377F309301
:1053F0002001E92FF0E0EE0FFF1FE45FFD4FA591C4
:10540000B4918FB7F894EC91C11103C020952E236D
:1054100001C02E2B2C938FBFCF9108958F929F9216
:10542000AF92BF92CF92DF92EF92FF926B017C011D
:105430000E945C334B015C01C60ED71EE81EF91EAC
:105440000E945C33681579058A059B0528F0C6160D
:10545000D706E806F906A0F7FF90EF90DF90CF900F
:10546000BF90AF909F908F900895483009F448C145
:1054700018F4413041F00895403109F457C14131E9
:1054800009F468C1089590917804943019F5E09179
:105490008104F091820490918B04813019F4808111
:1054A000982B03C08081909598239083E09183048A
:1054B000F0918404908180918C048095892380836D
:1054C000E0918304F0918404908180918C04892B75
:1054D00080830FC0E0917904F0917A049091870461
:1054E000813019F48081982B03C080819095982396
:1054F0009083E0918104F091820480918B049081EB
:1055000067FF02C0892B02C0809589238083E091C8
:105510008304F0918404908180918C048095892388
:105520008083E0918304F0918404908180918C04C5
:10553000892B8083E0918104F091820480918B0417
:10554000908166FF02C0892B02C0809589238083E9
:10555000E0918304F0918404908180918C04809583
:1055600089238083E0918304F09184049081809169
:105570008C04892B8083E0918104F09182048091D6
:105580008B04908165FF02C0892B02C0809589231E
:105590008083E0918304F0918404908180918C0455
:1055A000809589238083E0918304F0918404908125
:1055B00080918C04892B8083E0918104F091820496
:1055C00080918B04908164FF02C0892B02C080957A
:1055D00089238083E0918304F091840490818091F9
:1055E0008C04809589238083E0918304F091840466
:1055F000908180918C04892B8083E0918104F091CB
:10560000820480918B04908163FF02C0892B02C0C9
:10561000809589238083E0918304F09184049081B4
:1056200080918C04809589238083E0918304F0919C
:105630008404908180918C04892B8083E091810483
:10564000F091820480918B04908162FF02C0892BCB
:1056500002C0809589238083E0918304F0918404C3
:10566000908180918C04809589238083E0918304CC
:10567000F0918404908180918C04892B8083E09147
:105680008104F091820480918B04908161FF02C0BB
:10569000892B02C0809589238083E0918304F09157
:1056A0008404908180918C04809589238083E0918B
:1056B0008304F0918404908180918C04892B8083F1
:1056C000E0918104F091820480918B04908160FFCD
:1056D00002C0892B02C0809589238083E0918304D6
:1056E000F0918404908180918C048095892380833B
:1056F000E0918304F0918404908180918C04CFC068
:1057000082B9E0917B04F0917C04908180918804BF
:10571000809589238083E0917B04F0917C049081C3
:1057200080918804892B808362B902C082B968B9EC
:10573000E0917B04F0917C049081809188048095B5
:1057400089238083E0917B04F0917C049081809197
:105750008804A5C0A59824B3982F9071990F922B17
:1057600094BB90910201977E909302019091020167
:10577000282F082E000C330B207C332743E035956F
:1057800027954A95E1F7292B209302019EB1947C3D
:105790009EB92EB1382F3C70330F330F982F937072
:1057A000390F8072082E000C990B95958795959569
:1057B0008795830F822B8EB9E0918504F091860442
:1057C000908180918D04809589238083E091850468
:1057D000F0918604908180918D04892B8083E091E3
:1057E0008504F0918604908180918D0480958923B1
:1057F0008083E0917D04F0917E0490818091890402
:10580000809589238083A59894B3862F8071880F13
:10581000892B84BB80910201877E809302012091B5
:105820000201862F062E000C990B807C992773E0CD
:10583000959587957A95E1F7822B809302018EB139
:10584000847C8EB98EB1962F9C70990F990F262F5C
:105850002370920F6072062E000C770B759567957A
:1058600075956795690F682B6EB9E0917B04F0918F
:105870007C04908180918804809589238083E091C5
:105880007B04F0917C04908180918804892B808333
:10589000E0917D04F0917E04908180918904892BB0
:1058A0008083089584E893E0D9D421E0892B09F41A
:1058B00020E0822F0895EF92FF920F931F93CF93D2
:1058C000DF93EC017B018A0188819981009729F09F
:1058D0002A813B8124173507F8F4B8016F5F7F4FA9
:1058E0000E944D3B009759F0998388831B830A835C
:1058F0002C813D81232B81F4FC0110820DC0888115
:105900009981009711F00E94B53A198218821D8280
:105910001C821B821A8207C01D830C83B7018881F9
:1059200099810E943E3CCE01DF91CF911F910F9152
:10593000FF90EF900895CF92DF92EF92FF92CF9376
:10594000DF93EC01E0917D04F0917E0490818091E1
:105950008904809589238083A6DC80917704813037
:1059600049F0E0917904F0917A0490818091870464
:10597000892B8083E091770440916E0450916F04ED
:10598000609170047091710480917204909173041D
:10599000A0917404B0917504E031C9F49A01AB018F
:1059A0002F5F3F4F4F4F5F4FBC01CD016F5F7F4F68
:1059B0008F4F9F4F0E949E399B01AC016C2FCC0FE3
:1059C000770B8D2FDD0F990B0E944F2456C0E830C6
:1059D000C1F4DC1316C09A01AB012F5F3F4F4F4F4C
:1059E0005F4FBC01CD016F5F7F4F8F4F9F4F0E9474
:1059F0009E39AB01BC018D2FDD0F990B0E947E21DA
:105A00003CC0C12CD12C760180916E0490916F0422
:105A1000A0917004B09171049C01AD012F5F3F4FC4
:105A20004F4F5F4F8091720490917304A091740462
:105A3000B0917504BC01CD016F5F7F4F8F4F9F4FB9
:105A40000E949E39C616D706E806F906B4F44091BE
:105A50007704413019F06C2F8D2F08C041E06D2F75
:105A600081E003DD409177046C2F81E0FEDC8FEF55
:105A7000C81AD80AE80AF80AC7CFE0917D04F09165
:105A80007E04908180918904892B8083DF91CF915E
:105A9000FF90EF90DF90CF900895CF92DF92EF923A
:105AA000FF92E0917D04F0917E04908180918904C1
:105AB000809589238083F7DB80917704813049F0DA
:105AC000E0917904F0917A04908180918704892B88
:105AD0008083E091770440916E0450916F0460914F
