:1000000042C7000071C700006FC700006DC7000045
:100010006BC7000069C7000067C7000065C7000024
:1000200063C7000061C700005FC700005DC7000034
:100030005BC7000059C7000057C7000055C7000044
:1000400053C7000051C700004FC700004DC7000054
:100050004BC7000049C7000047C700000C946E0A58
:1000600043C700000C9433090C940A093DC70000F3
:100070003BC7000039C7000037C7000035C7000084
:1000800033C7000031C700002FC700002DC7000094
:100090002BC7000029C7000027C700000C94B80A2E
:1000A00023C7000021C700001FC700001DC70000B4
:1000B0001BC7000019C7000017C7000015C70000C4
:1000C00013C7000011C700000FC700000DC70000D4
:1000D0000BC7000009C7000007C7000005C70000E4
:1000E00003C70000EE1C892A931D931DDE1E892A7A
:1000F0002021E61FE620892AF9218E2286238623E5
:10010000EE1C2B27892AEE1C03235624FC1DF02409
:10011000A1252B278426B727B228BD29D22936202E
:100120008409870976097A098009BE098B098F0934
:10013000950999099D09A309A709AB09BE09B10948
:10014000B509B909100EFD0E2C0E2C0E460EFD0E33
:10015000F10DD40E6B0EFD0E790E790E960E960EE5
:10016000100ED40EFD0E100E790ED40E2C0EA60E0F
:10017000D40ED40ED40ED40ED40EC00ED40ED40E83
:100180001010205F000000000000000000000000D0
:10019000000000000000000000000000000000005F
:1001A000000000000000000007000F800F800F809B
:1001B0000F800F8007000700000000000700070005
:1001C0000700000000000E380E380E380E380630DA
:1001D000000000000000000000000000000000001F
:1001E0000000000000000C300C300C307FFE7FFE61
:1001F0000C300C300C300C307FFE7FFE0C300C309D
:100200000C3000000000024002400FF81FF81A40B6
:100210001A401FF00FF8025802581FF81FF0024052
:10022000024000000000000000000E100E300E70B2
:1002300000E001C0038007000E700C700870000021
:1002400000000000000000000F00198019801980D4
:100250000F000F080F9819F818F018E019F00F9810
:1002600000000000000000000700070007000E006B
:10027000000000000000000000000000000000007E
:10028000000000000000000000F001C00380070033
:100290000E000E000E000E000700038001C000F0EB
:1002A00000000000000000000F00038001C000E01B
:1002B000007000700070007000E001C003800F004B
:1002C000000000000000000001801188099007E094
:1002D00007E03FFC3FFC07E007E009901188018040
:1002E000000000000000000000000000018001800C
:1002F00001800FF00FF001800180018000000000FC
:1003000000000000000000000000000000000000ED
:1003100000000000000000000000070007000700C8
:100320000E000000000000000000000000000000BF
:1003300000001FF81FF8000000000000000000008F
:1003400000000000000000000000000000000000AD
:100350000000000000000000000007000700070088
:10036000000000000000000000020006000E001C5B
:100370000038007000E001C0038007000E001C0080
:1003800000000000000000000FF01C381C781CF872
:100390001CF81DB81DB81F381F381E381C380FF048
:1003A00000000000000000000180018003801F8029
:1003B0001F800380038003800380038003801FF07D
:1003C00000000000000000000FE01C701C38003826
:1003D000007000E001C0038007000E381C381FF8D1
:1003E00000000000000000000FE01C701C38003806
:1003F000007003C003C0007000381C381C700FE090
:10040000000000000000000000E001E003E006E062
:100410000CE018E01FF81FF800E000E000E003F82F
:1004200000000000000000001FF81C001C001C0061
:100430001C001FE01FF0007800381C381C700FE013
:10044000000000000000000003E007000E001C0098
:100450001C001FF01FF81C381C381C381C380FF00B
:1004600000000000000000001FFC1C1C1C1C1C1CC9
:10047000001C0038007000E001C00380038003808E
:1004800000000000000000000FF01C381C381C3871
:100490001F3807E007E01CF81C381C381C380FF028
:1004A00000000000000000000FF01C381C381C3851
:1004B0001C381FF80FF800380038007000E007C043
:1004C0000000000000000000000000000380038026
:1004D0000380000000000380038003800000000010
:1004E0000000000000000000000000000380038006
:1004F00003800000000003800380038007000000E9
:10050000000000000000007000E001C00380070050
:100510000E001C001C000E000700038001C000E05C
:1005200000700000000000000000000000003FFC20
:100530003FFC000000003FFC3FFC0000000000000A
:100540000000000000001C000E000700038001C036
:1005500000E00070007000E001C0038007000E00A2
:100560001C000000000003C00FF01E78183800388F
:10057000007000E001C001C00000000001C001C027
:1005800001C0000000000FF81C1C1C1C1C1C1C1CC3
:100590001CFC1CFC1CFC1CFC1C001C001C001FF098
:1005A00007F800000000000003C007E00E701C38D0
:1005B0001C381C381C381FF81C381C381C381C38D8
:1005C00000000000000000001FF00E380E380E384A
:1005D0000E380FF00FF00E380E380E380E381FF0B0
:1005E000000000000000000007F00E381C381C005E
:1005F0001C001C001C001C001C001C380E3807F0DE
:1006000000000000000000001FE00E700E380E38E1
:100610000E380E380E380E380E380E380E701FE0B9
:1006200000000000000000001FF80E180E080E0069
:100630000E300FF00FF00E300E000E080E181FF8DF
:1006400000000000000000001FF80E180E080E0049
:100650000E300FF00FF00E300E000E000E001F00D7
:10066000000000000000000007F00E381C381C38A5
:100670001C001C001C001CF81C381C380E3807F825
:1006800000000000000000001C701C701C701C703A
:100690001C701FF01FF01C701C701C701C701C70F4
:1006A00000000000000000000FE0038003800380D2
:1006B00003800380038003800380038003800FE0B6
:1006C000000000000000000001FC007000700070DD
:1006D00000700070007038703870387038700FE03B
:1006E00000000000000000001E380E380E700EE002
:1006F0000FC00F800F800FC00EE00E700E381E3836
:1007000000000000000000001F000E000E000E00A0
:100710000E000E000E000E000E080E180E381FF808
:1007200000000000000000001C1C1E3C1F7C1FFC81
:100730001FFC1DDC1C9C1C1C1C1C1C1C1C1C1C1CD5
:1007400000000000000000001C1C1C1C1E1C1F1CC4
:100750001F9C1DDC1CFC1C7C1C3C1C1C1C1C1C1C35
:10076000000000000000000003E007F00E381C1C31
:100770001C1C1C1C1C1C1C1C1C1C0E3807F003E041
:1007800000000000000000001FF00E380E380E3888
:100790000E380FF00FF00E000E000E000E001F00BE
:1007A000000000000000000003E00F780E381C1C61
:1007B0001C1C1C1C1C1C1C7C1CFC0FF80FF800389B
:1007C00000FC0000000000001FF00E380E380E384C
:1007D0000E380FF00FF00E700E380E380E381E382F
:1007E00000000000000000000FF01C381C381C380E
:1007F0001C000FE007F000381C381C381C380FF0C4
:1008000000000000000000001FFC19CC11C401C052
:1008100001C001C001C001C001C001C001C007F09A
:1008200000000000000000001C701C701C701C7098
:100830001C701C701C701C701C701C701C700FE0F5
:1008400000000000000000001C701C701C701C7078
:100850001C701C701C701C701C700EE007C00380A4
:1008600000000000000000001C1C1C1C1C1C1C1CA8
:100870001C1C1C9C1C9C1C9C0FF80FF8077007701C
:1008800000000000000000001C701C701C700EE0D6
:1008900007C00380038007C00EE01C701C701C7032
:1008A00000000000000000001C701C701C701C7018
:1008B0001C700EE007C003800380038003800FE0FC
:1008C00000000000000000001FF81C3818381070ED
:1008D00000E001C0038007000E081C181C381FF838
:1008E000000000000000000007F0070007000700FC
:1008F000070007000700070007000700070007F0D0
:100900000000000000000000100018001C000E0095
:100910000700038001C000E000700038001C0007E1
:10092000000000000000000007F000700070007080
:10093000007000700070007000700070007007F0B0
:10094000000000000000018003C007E00E701C38AA
:100950000000000000000000000000000000000097
:100960000000000000000000000000000000000087
:100970000000000000000000000000000000000077
:100980007FFF7FFF000000001C001C000700070025
:100990000000000000000000000000000000000057
:1009A0000000000000000000000000000000000047
:1009B0000FE0007000700FF01C701C701C700FD8DE
:1009C00000000000000000001E000E000E000E00DF
:1009D0000FF00E380E380E380E380E380E381BF069
:1009E0000000000000000000000000000000000007
:1009F0000FE01C701C701C001C001C701C700FE0B1
:100A0000000000000000000000F80070007000709E
:100A10000FF01C701C701C701C701C701C700FD8A8
:100A200000000000000000000000000000000000C6
:100A30000FE01C701C701FF01C001C701C700FE07D
:100A4000000000000000000003E0077007700700CE
:100A500007001FE01FE007000700070007001FC096
:100A60000000000000000000000000000000000086
:100A70000FD81C701C701C701C700FF007F00070F9
:100A80001C700FE0000000001E000E000E000E00A3
:100A90000EF00F380F380E380E380E380E381E385C
:100AA000000000000000000001C001C001C0000003
:100AB0000FC001C001C001C001C001C001C00FF8DA
:100AC00000000000000000000070007000700000D6
:100AD00003F00070007000700070007000701C70F7
:100AE0000CF007E0000000001E000E000E000E00DB
:100AF0000E380E700EE00FC00EE00E700E381E386D
:100B000000000000000000000FC001C001C001C0D3
:100B100001C001C001C001C001C001C001C00FF887
:100B200000000000000000000000000000000000C5
:100B30001FF81C9C1C9C1C9C1C9C1C9C1C9C1C9C96
:100B400000000000000000000000000000000000A5
:100B50001FE01C701C701C701C701C701C701C70C2
:100B60000000000000000000000000000000000085
:100B70000FE01C701C701C701C701C701C700FE04F
:100B80000000000000000000000000000000000065
:100B90001BF00E380E380E380E380E380FF00E00DF
:100BA0000E001F0000000000000000000000000018
:100BB0001FB038E038E038E038E038E01FE000E00F
:100BC00000E001F000000000000000000000000054
:100BD0001EF00FF80F380E000E000E000E001F0062
:100BE0000000000000000000000000000000000005
:100BF0000FE01C301C300F8003E0187018700FE0FD
:100C000000000000000000000000010003000700D9
:100C10001FF007000700070007000770077003E0D8
:100C200000000000000000000000000000000000C4
:100C30001C701C701C701C701C701C701C700FD8F9
:100C400000000000000000000000000000000000A4
:100C50001C701C701C701C701C700EE007C00380A0
:100C60000000000000000000000000000000000084
:100C70001C1C1C1C1C1C1C9C1C9C0FF80770077067
:100C80000000000000000000000000000000000064
:100C90001CE01CE00FC0078007800FC01CE01CE0B8
:100CA0000000000000000000000000000000000044
:100CB0000E380E380E380E380E3807F003E000E01C
:100CC00001C01F80000000000000000000000000C4
:100CD0001FE018E011C0038007000E201C601FE019
:100CE000000000000000000001F803800380038082
:100CF00007001C001C00070003800380038001F82C
:100D000000000000000001C001C001C001C001C01E
:100D100001C001C001C001C001C001C001C001C0CB
:100D200001C00000000000001F8001C001C001C020
:100D300000E00038003800E001C001C001C01F80A1
:100D400000000000000000001F1C3B9C39DC38F84C
:100D50000000000000000000000000000000000093
:100D60000000000000002100240027002A002D00C0
:100D70003000330001010000040107010A010102F3
:100D8000102020080810204010204080020102019D
:100D90000804020101020408102040808040201055
:100DA00008040201800402018040201008040201AE
:100DB0000804020101020408102040800102040816
:100DC0001020408000002200250028002B002E006B
:100DD0003100340002010000050108010B01050586
:100DE0000505070508080808020202020A0A0808A1
:100DF00004040404010101010101010103030303CF
:100E000003030303040707070C0C0C0C0C0C0C0C5D
:100E10000202020206060606060606060B0B0B0B6E
:100E20000B0B0B0B000020002300260029002C00D8
:100E30002F0032000001000003010601090100003B
:100E40000A0B02090C0D0E08070304010000000044
:100E50000000000000000000000000000000000092
:100E6000000000000000000000001211100000004F
:100E70000000000000000000000000000000000072
:100E800000000000762C11241FBECFEFD1E2DEBFA0
:100E9000CDBF00E00CBF24E0A0E9B2E001C01D928C
:100EA000A137B207E1F712E0A0E0B2E0E8E5F0E632
:100EB00000E00BBF02C007900D92A039B107D9F72F
:100EC00017E0C3E4D7E000E006C021970109802FB6
:100ED000FE010E94EE2DC234D10780E00807A9F779
:100EE0000E94AF1B0C942A308BC8FC01538D448D9B
:100EF000252F30E0842F90E0821B930B541710F0C5
:100F0000CF96089501970895FC01918D828D9817D1
:100F100061F0828DDF01A80FB11D5D968C91928DDD
:100F20009F5F9F73928F90E008958FEF9FEF0895DA
:100F3000FC01918D828D981731F0828DE80FF11DA3
:100F4000858D90E008958FEF9FEF0895FC01918DBE
:100F5000228D892F90E0805C9F4F821B91098F73B7
:100F60009927089580E193E0F1DF21E0892B09F4CE
:100F700020E0822F0895FC01848DDF01A80FB11DB0
:100F8000A35ABF4F2C91848D90E001968F739927BF
:100F9000848FA689B7892C93A089B1898C918064AC
:100FA0008C93938D848D981306C00288F389E02D6D
:100FB00080818F7D80830895EF92FF920F931F931E
:100FC000CF93DF93EC0181E0888F9B8D8C8D9813FC
:100FD00005C0E889F989808185FD23C0F62E0B8D37
:100FE00010E00F5F1F4F0F731127E02E8C8DE8125A
:100FF0000BC00FB607FCFACFE889F989808185FF1D
:10100000F5CFCE01B8DFF2CF8B8DFE01E80FF11DD9
:10101000E35AFF4FF0820B8FEA89FB89808180625F
:1010200007C0EE89FF896083E889F989808180643F
:10103000808381E090E0DF91CF911F910F91FF902D
:10104000EF900895CF93DF93EC01888D8823C1F052
:10105000EA89FB89808185FD05C0A889B9898C91C1
:1010600086FD0EC00FB607FCF5CF808185FFF2CF5D
:10107000A889B9898C9185FFEDCFCE017CDFE8CFBF
:10108000DF91CF91089580E090E0892B19F06ADF1D
:10109000811125C080E090E0892B41F080E090E054
:1010A000892B21F00E94000081111CC080E090E09B
:1010B000892B41F080E090E0892B21F00E94000014
:1010C000811113C080E090E0892BA1F080E090E0D6
:1010D000892B81F00E94000081110AC008950E94AE
:1010E0000000D8CF0E940000E1CF0E940000EACFAC
:1010F0000C94000008953FB7F89480910C039091F0
:101100000D03A0910E03B0910F0326B5A89B05C057
:101110002F3F19F00196A11DB11D3FBFBA2FA92F76
:10112000982F8827820F911DA11DB11DBC01CD01F3
:1011300042E0660F771F881F991F4A95D1F70895DF
:1011400085ED8093BC008091BC0084FDFCCF1092A3
:10115000E10208954091BB02262F30E0240F311D9B
:1011600021323105DCF42091E1022430C9F4FC0184
:1011700080E090E0861758F43091BB022191DC01A9
:10118000A756BD4FA30FB11D2C930196F3CF8091AD
:10119000BB02680F6093BB0280E0089581E0089570
:1011A00082E0089508958FEF9FEF08958FEF9FEFEE
:1011B00008958091980290E0919581959109089504
:1011C000CF93DF931F921F92CDB7DEB7CB01642F71
:1011D00049835A83BFDF4981842F5A81952F0F900D
:1011E0000F90DF91CF910895CF93DF931F92CDB7EA
:1011F000DEB7698361E0CE010196ACDF81E090E06B
:101200000F90DF91CF910895089580E090E00895C8
:101210000E9407301F920F920FB60F9211240BB647
:101220000F922F933F934F935F936F937F938F937F
:101230009F93AF93BF93EF93FF9380E193E09BDE87
:10124000FF91EF91BF91AF919F918F917F916F919E
:101250005F914F913F912F910F900BBE0F900FBE5A
:101260000F901F9018951F920F920FB60F92112496
:101270000BB60F922F938F939F93EF93FF93E09171
:101280002003F09121038081E0912603F091270350
:1012900082FD12C09081809129038F5F8F7320910E
:1012A0002A03821751F0E0912903F0E0E05FFC4F40
:1012B000958F8093290301C08081FF91EF919F91C9
:1012C0008F912F910F900BBE0F900FBE0F901F901C
:1012D000189590E0FC013197E231F10508F04EC01D
:1012E0008827E057FF4F8F4F0C94EE2D80918000A0
:1012F0008F7703C0809180008F7D80938000089558
:1013000080918000877FF9CF84B58F7702C084B544
:101310008F7D84BD08958091B0008F7703C0809148
:10132000B0008F7D8093B0000895809190008F77FA
:1013300007C0809190008F7D03C080919000877FCF
:101340008093900008958091A0008F7707C08091CE
:10135000A0008F7D03C08091A000877F8093A000B4
:101360000895809120018F7707C0809120018F7DA3
:1013700003C080912001877F8093200108951F93EF
:10138000CF93DF93282F30E0F901E25CF14F849195
:10139000F901E258F24FD491F901E252F24FC491AF
:1013A000CC23C1F0162F811194DFEC2FF0E0EE0F6B
:1013B000FF1FEC53F24FA591B4918FB7F894111120
:1013C00005C09C91ED2FE095E92302C0EC91ED2B37
:1013D000EC938FBFDF91CF911F910895CF93DF934F
:1013E00090E0FC01E258F24F2491FC01E252F24FEE
:1013F0008491882361F190E0880F991FFC01EC59DA
:10140000F24FC591D491FC01EC53F24FA591B491E8
:10141000611109C09FB7F894888120958223888341
:10142000EC912E230BC0623061F49FB7F8943881A1
:10143000822F809583238883EC912E2B2C939FBF42
:1014400006C08FB7F894E8812E2B28838FBFDF91D9
:10145000CF9108958F929F92AF92BF92CF92DF92D9
:10146000EF92FF926B017C0146DE4B015C01C114DF
:10147000D104E104F104E9F03EDEDC01CB0188197E
:101480009909AA09BB09883E9340A105B10578F3E3
:1014900021E0C21AD108E108F10888EE880E83E045
:1014A000981EA11CB11CC114D104E104F10421F760
:1014B000DECFFF90EF90DF90CF90BF90AF909F90E6
:1014C0008F9008952FB7F8946091080370910903E5
:1014D00080910A0390910B032FBF08951F920F92E2
:1014E0000FB60F9211242F933F938F939F93AF9337
:1014F000BF938091080390910903A0910A03B091D2
:101500000B033091070323E0230F2D3720F40196BE
:10151000A11DB11D05C026E8230F0296A11DB11D16
:10152000209307038093080390930903A0930A0371
:10153000B0930B0380910C0390910D03A0910E03C7
:10154000B0910F030196A11DB11D80930C039093E0
:101550000D03A0930E03B0930F03BF91AF919F9122
:101560008F913F912F910F900FBE0F901F90189564
:101570001F920F920FB60F9211240BB60F922F935A
:101580003F934F935F936F937F938F939F93AF930B
:10159000BF93EF93FF938091B900887F803609F461
:1015A0009CC068F5883209F45BC090F4803109F47E
:1015B00054C038F4882309F4F6C0883009F44DC0CB
:1015C000F5C0883109F44CC0803209F45DC0EEC02A
:1015D000803409F468C048F4803309F455C0883376
:1015E00009F0E4C08093E002D8C0803509F44FC010
:1015F000883509F45DC0883409F0D8C0D6C0883970
:1016000009F4C7C0A8F4883709F467C038F48836ED
:1016100009F463C0803709F460C0C8C0883809F491
:10162000B8C0803909F45FC0803809F0BFC05BC022
:10163000803B09F486C038F4803A09F466C0883AE1
:1016400009F47FC0B3C0803C09F4A7C0883C09F40A
:10165000A4C0883B09F48AC0A9C08091060310C0C9
:101660009091050380910403981770F5E0910503AC
:1016700081E08E0F80930503F0E0EC51FD4F8081F7
:101680008093BB0085EC86C08093E0028EC0E09121
:10169000050381E08E0F809305038091BB00F0E08D
:1016A000EC51FD4F808390910503809104036EC03F
:1016B000E091050381E08E0F809305038091BB00CC
:1016C000F0E0EC51FD4F80838091E30281116DC009
:1016D00081E08093E20284EA61C083E08093E102CA
:1016E0001092DF02CFCF8091DF02803208F051C02C
:1016F000E091DF0281E08E0F8093DF028091BB00DA
:10170000F0E0E154FD4F8083BDCF85EC8093BC00B9
:101710001092E1028091DF02803230F4E091DF022A
:10172000F0E0E154FD4F10826091DF0270E0E09143
:10173000BD02F091BE028FEB92E019951092DF028C
:1017400035C084E08093E1021092BC021092BB028B
:10175000E091B902F091BA0219958091BB02811112
:1017600005C081E08093BB0210929902E091BC0217
:1017700081E08E0F8093BC02F0E0E756FD4F808140
:101780008093BB009091BC028091BB02981708F433
:1017900079CF85E88093BC0009C085EC8093BC00BC
:1017A0001092E10203C01092E002CADCFF91EF91B7
:1017B000BF91AF919F918F917F916F915F914F9169
:1017C0003F912F910F900BBE0F900FBE0F901F9067
:1017D00018952F923F924F925F926F927F928F92C5
:1017E0009F92AF92BF92CF92DF92EF92FF920F93B0
:1017F0001F93CF93DF93CDB7DEB728970FB6F8943A
:10180000DEBF0FBECDBF8C017B01E0910904F091DA
:101810000A04908180911504809589238083F6D2F3
:1018200080910304813049F0E0910504F0910604B1
:10183000908180911304892B8083809103048031EF
:1018400039F58091FA039091FB03A091FC03B091CC
:10185000FD039C01AD012F5F3F4F4F4F5F4F8091C4
:10186000FE039091FF03A0910004B0910104BC011C
:10187000CD016F5F7F4F8F4F9F4F0E94742D9B0153
:10188000AC0160E070E088EF9FEF0E94C5193CC09A
:10189000812C912C54018091FA039091FB03A0912B
:1018A000FC03B091FD039C01AD012F5F3F4F4F4FF3
:1018B0005F4F8091FE039091FF03A0910004B091CF
:1018C0000104BC01CD016F5F7F4F8F4F9F4F0E947E
:1018D000742D86169706A806B906B4F44091030441
:1018E000413019F060E088EF08C041E068EF81E026
:1018F000D2D34091030460E081E0CDD38FEF881A0A
:10190000980AA80AB80AC7CFE0910904F0910A041E
:10191000908180911504982B908388EF8093F70332
:101920001092F8031092250480E891E0909320042F
:1019300080931F04FC01849180932104E1E8F1E08D
:10194000849180932204E2E8F1E08491809323045F
:10195000E3E8F1E08491809324041092F50310925F
:10196000F603B801CE0101960E946A1661E070E0AC
:10197000CE0101964BD689819A810E948B2E570108
:1019800008E210E07801F8E2EF0EF11C1092F50386
:101990001092F603E016F1061CF44801370102C06C
:1019A00047013801C40186199709853091055CF417
:1019B0008FEF8093F5038093F603E016F1060CF4A5
:1019C0004AC068014AC01C0135942794C12CD12C0F
:1019D000F3013196F887EF832401F1E04F1A5108A3
:1019E0002C143D042CF3C114D10491F081E0C816ED
:1019F000D104D9F448EF50E06F81788584E290E01B
:101A00000E94BC1548EF50E0B20184E290E01DC096
:101A100046EF50E0B30185E290E00E94BC1546EF2E
:101A200050E0B40185E290E010C04AEF50E0B6010A
:101A3000660D771D83E290E00E94BC154AEF50E0EE
:101A4000B4016C197D0983E290E00E94BC159FEF00
:101A5000C91AD90AC5CF6701780147018C189D08BA
:101A6000E5E08E169104D4F13601FFEF6F1A7F0A7C
:101A7000B30184E290E00E942516B3018CE191E06D
:101A80000E942516370181E0681A7108B30184E2CB
:101A900090E00E942516B3018CE191E00E9425168A
:101AA00046EF50E0B60185E290E00E94BC1546EF9B
:101AB00050E0B70185E290E00E94BC1594E0891ADD
:101AC0009108E2E0CE0ED11CA401B60183E290E0C1
:101AD000E9D7A401B6018DE191E0E4D780E891E077
:101AE0009093200480931F04FC018491809321042F
:101AF000E1E8F1E0849180932204E2E8F1E084914E
:101B000080932304E3E8F1E084918093240410920D
:101B1000F7031092F80310922504B501CE01019647
:101B20000E946A16B801665F7F4FCE0101966ED59E
:101B300089819A810E948B2E0E5C1F4FF6E0AF0EBA
:101B4000B11C003F110509F01DCF28960FB6F8947F
:101B5000DEBF0FBECDBFDF91CF911F910F91FF90E0
:101B6000EF90DF90CF90BF90AF909F908F907F903D
:101B70006F905F904F903F902F900895CF92DF929B
:101B8000EF92FF920F931F93CF93DF938C01F62E6A
:101B9000E72EEA01D22EC32E8091F903813089F419
:101BA0008091FE039091FF039C01201B310B841B4D
:101BB000950BCD2DDC2DD22EC32E062F172FF82EF0
:101BC000E92EE09102048E2F90E0FC013297EE3175
:101BD000F10508F012C18827EE55FF4F8F4F0C9486
:101BE000EE2D612F70E082E00E949E1BB80183E021
:101BF0000E949E1B6D2F70E084E00E949E1BBE0120
:101C000085E00E949E1B6E2D70E086E00E949E1B68
:101C10006F2D7E2D87E00E949E1B6C2D70E054C0BE
:101C20007C2F6627600F711F84E40E949E1B6F2D1E
:101C30007E2D85E40E949E1B6D2D7C2D86E40E94E6
:101C40009E1BB8018EE40E949E1B6F2D7E2D8FE49B
:101C50000E949E1B82E2C7C0B80180E20E949E1BC8
:101C60006F2D7E2D81E20E949E1BB80180E50E94AF
:101C70009E1B6F2D7E2D82E50E949E1BBE0181E57D
:101C80000E949E1B6D2D7C2D83E5E2CF60E070E00D
:101C900082E00E949E1BB80183E00E949E1B60E0D0
:101CA00070E084E00E949E1BBE0185E00E949E1BA6
:101CB00060E070E086E00E949E1B6F2D7E2D87E025
:101CC0000E949E1B60E070E088E00E949E1B6D2DCC
:101CD0007C2D89E0BDCF8AE20E94541B802F0E9498
:101CE0006A1B8C2F0E946A1B8BE20E94541B8F2D53
:101CF00074C08AE20E94541B8E2D0E946A1B8F2D95
:101D00000E946A1B8C2D0E946A1B8D2D0E946A1BEB
:101D10008BE20E94541B812F0E946A1B802F0E941D
:101D20006A1B8D2F0E946A1B8C2F5AC07C2F66273E
:101D3000602B712B86E40E949E1B6D2D7C2D87E409
:101D40000E949E1B6F2D7E2D88E410C0BE0186E38D
:101D50000E949E1BB80187E30E949E1B6D2D7C2D67
:101D600088E30E949E1B6F2D7E2D89E30E949E1B9F
:101D7000B80180E20E949E1B6F2D7E2D81E268CF0C
:101D80006F2D7E2D82E00E949E1BB80183E00E9491
:101D90009E1B6D2D7C2D86E00E949E1BBE0187E060
:101DA0000E949E1B8FE01FC08AE20E94541B812F5D
:101DB0000E946A1B802F0E946A1B8D2F0E946A1B43
:101DC0008C2F0E946A1B8BE20E94541B8E2D0E9456
:101DD0006A1B8F2D0E946A1B8C2D0E946A1B8D2D01
:101DE0000E946A1B8CE2DF91CF911F910F91FF90AF
:101DF000EF90DF90CF900C94541BDF91CF911F9107
:101E00000F91FF90EF90DF90CF9008952091F9030C
:101E10008091FE039091FF034091FA035091FB03E0
:101E2000211102C09C0102C09A01AC0160E070E087
:101E300080E090E0A3CECF92DF92EF92FF92E0910C
:101E40000904F0910A0490818091150480958923FA
:101E50008083DCDF80910304813049F0E091050448
:101E6000F0910604908180911304892B8083E09186
:101E700003044091FA035091FB036091FC037091BD
:101E8000FD038091FE039091FF03A0910004B091A7
:101E90000104E031B9F49A01AB012F5F3F4F4F4F7E
:101EA0005F4FBC01CD016F5F7F4F8F4F9F4F0E94EF
:101EB000742D9B01AC0160E070E080E090E00E9436
:101EC000C51952C0E830A1F49A01AB012F5F3F4F12
:101ED0004F4F5F4FBC01CD016F5F7F4F8F4F9F4FC3
:101EE0000E94742DAB01BC0180E090E07DD73CC026
:101EF000C12CD12C76018091FA039091FB03A09123
:101F0000FC03B091FD039C01AD012F5F3F4F4F4F8C
:101F10005F4F8091FE039091FF03A0910004B09168
:101F20000104BC01CD016F5F7F4F8F4F9F4F0E9417
:101F3000742DC616D706E806F906B4F440910304DA
:101F4000413019F060E080E008C041E060E081E0ED
:101F5000A2D04091030460E081E09DD08FEFC81AC9
:101F6000D80AE80AF80AC7CFE0910904F0910A04F8
:101F7000908180911504892B8083FF90EF90DF90F2
:101F8000CF9008958F929F92AF92BF92CF92DF929F
:101F9000EF92FF926B017C0195DA4B015C01C60E5A
:101FA000D71EE81EF91E8EDA681579058A059B058D
:101FB00028F0C616D706E806F906A8F7FF90EF90B6
:101FC000DF90CF90BF90AF909F908F900895CF9269
:101FD000DF92EF92FF92CF93DF936C01990FEE089F
:101FE000FF08F7FE1BC0E0911003F0911103019070
:101FF000F081E02D6DE280E193E01995EC0144273A
:102000005527BA014C195D096E097F092AE080E164
:1020100093E0A2D67C01EC0EFD1E07C02AE0B701BA
:10202000A60180E193E098D67C0169E372E080E14B
:1020300093E07DD68E0D9F1DDF91CF91FF90EF90A5
:10204000DF90CF900895E0E1F3E0A089B18982E0CC
:102050008C93A485B5851C92A685B78580E18C9369
:10206000108EA489B58986E08C93A289B3898C915E
:1020700080618C93A289B3898C9188608C93A289AA
:10208000B3898C9180688C930288F389E02D8081DC
:102090008F7D80830895483009F448C118F4413099
:1020A00041F00895403109F457C1413109F468C144
:1020B000089590910404943019F5E0910D04F09185
:1020C0000E0490911704813019F48081982B03C07D
:1020D0008081909598239083E0910F04F0911004F3
:1020E000908180911804809589238083E0910F046A
:1020F000F0911004908180911804892B80830FC087
:10210000E0910504F091060490911304813019F4D4
:102110008081982B03C08081909598239083E091D3
:102120000D04F0910E0480911704908167FF02C0A6
:10213000892B02C0809589238083E0910F04F09160
:102140001004908180911804809589238083E09108
:102150000F04F0911004908180911804892B8083E2
:10216000E0910D04F0910E0480911704908166FFB8
:1021700002C0892B02C0809589238083E0910F04DF
:10218000F0911004908180911804809589238083B8
:10219000E0910F04F0911004908180911804892B34
:1021A0008083E0910D04F0910E04809117049081DA
:1021B00065FF02C0892B02C0809589238083E0914E
:1021C0000F04F09110049081809118048095892368
:1021D0008083E0910F04F0911004908180911804A5
:1021E000892B8083E0910D04F0910E0480911704F7
:1021F000908164FF02C0892B02C08095892380836F
:10220000E0910F04F0911004908180911804809562
:1022100089238083E0910F04F091100490818091D4
:102220001804892B8083E0910D04F0910E048091B5
:102230001704908163FF02C0892B02C08095892317
:102240008083E0910F04F091100490818091180434
:10225000809589238083E0910F04F0911004908190
:1022600080911804892B8083E0910D04F0910E0475
:1022700080911704908162FF02C0892B02C0809573
:1022800089238083E0910F04F09110049081809164
:102290001804809589238083E0910F04F091100445
:1022A000908180911804892B8083E0910D04F09136
:1022B0000E0480911704908161FF02C0892B02C037
:1022C000809589238083E0910F04F0911004908120
:1022D00080911804809589238083E0910F04F09108
:1022E0001004908180911804892B8083E0910D0463
:1022F000F0910E0480911704908160FF02C0892B39
:1023000002C0809589238083E0910F04F09110042E
:10231000908180911804809589238083E0910F0437
:10232000F0911004908180911804CFC082B9E0919F
:102330000704F0910804908180911404809589230A
:102340008083E0910704F091080490818091140447
:10235000892B808362B902C082B968B9E091070411
:10236000F0910804908180911404809589238083E2
:10237000E0910704F0910804908180911404A5C0B5
:10238000A59824B3982F9071990F922B94BB90919C
:102390000201977E9093020190910201282F082E4E
:1023A000000C330B207C332743E0359527954A9565
:1023B000E1F7292B209302019EB1947C9EB92EB1A6
:1023C000382F3C70330F330F982F9370390F807272
:1023D000082E000C990B9595879595958795830FF9
:1023E000822B8EB9E0911104F091120490818091BA
:1023F0001904809589238083E0911104F0911204DF
:10240000908180911904892B8083E0911104F091CF
:102410001204908180911904809589238083E09132
:102420000904F0910A049081809115048095892314
:102430008083A59894B3862F8071880F892B84BBE5
:1024400080910201877E8093020120910201862FF4
:10245000062E000C990B807C992773E09595879543
:102460007A95E1F7822B809302018EB1847C8EB93C
:102470008EB1962F9C70990F990F262F2370920F73
:102480006072062E000C770B7595679575956795AC
:10249000690F682B6EB9E0910704F09108049081F0
:1024A00080911404809589238083E0910704F09142
:1024B0000804908180911404892B8083E0910904A1
:1024C000F0910A04908180911504892B80830895EE
:1024D000CF92DF92EF92FF920F931F93CF93DF93F0
:1024E0006C017A018B01C0E0D0E0CE15DF0589F0E8
:1024F000D8016D918D01D601ED91FC910190F08193
:10250000E02DC6011995892B11F47E0102C0219698
:10251000ECCFC701DF91CF911F910F91FF90EF900A
:10252000DF90CF900895682F892F0C94801BEF9235
:10253000FF920F931F93CF93DF93EC017B018A01EE
:1025400088819981009729F02A813B8124173507DA
:10255000F8F4B8016F5F7F4F0E94232F009759F066
:10256000998388831B830A832C813D81232B81F4EB
:10257000FC0110820DC088819981009711F00E94A2
:102580008B2E198218821D821C821B821A8207C020
:102590001D830C83B701888199810E941430CE017C
:1025A000DF91CF911F910F91FF90EF9008952091AF
:1025B0007B00277F20937B0021E420937C002091E7
:1025C0007A00206420937A0020917A0026FDFCCFC7
:1025D000209178004091790030E0342B2F3E42E08A
:1025E000340728F0823091054CF4019607C02A3F49
:1025F000310520F4181619060CF40197E8DC64EF95
:1026000071E080E090E00C942A0A08952F923F92A6
:102610004F925F926F927F928F929F92AF92BF92F2
:10262000CF92DF92EF92FF920F931F93CF93DF939E
:10263000CDB7DEB72E970FB6F894DEBF0FBECDBF75
:102640001B012DB73EB73C872B87FC01E480F5804A
:1026500097012F5F3F4F4DB75EB7421B530B0FB62D
:10266000F8945EBF0FBE4DBF0DB71EB70F5F1F4F73
:10267000232B99F00115110581F0E114F10411F4F7
:10268000F8010AC0FC0160817181A701C8010E94A4
:102690001B30F801EE0DFF1D1082F80101900020A3
:1026A000E9F731979F01201B310B3E832D838091E9
:1026B000F90320912104811113C08091FA039091B4
:1026C000FB03A091FC03B091FD030196A11DB11D78
:1026D0004D815E81249F6001259FD00C112412C082
:1026E0008091FE039091FF03A0910004B09101043A
:1026F0000196A11DB11DED81FE812E9F60012F9FCE
:10270000D00C11240D2C000CEE08FF08BC01CD01EB
:102710006C197D098E099F0922E030E040E050E00D
:102720000E94D22D38872F831A8709871C821B822B
:102730008B819C81ED81FE818E179F070CF092C1E9
:10274000809121042B813C81829F2001839F500C2A
:1027500011244F815885440E551EE985FA85019153
:10276000FA87E987E0910904F0910A049081809149
:10277000150480958923808320912504809121046C
:102780009091220410E02111F6C02091F90321114B
:1027900075C09101290F311D21503109A201480F47
:1027A000511D41505109B101C201E8D98091210464
:1027B0008695869586959091220420912304021B8C
:1027C0001109899FC0011124089F7001099FF00C15
:1027D000189FF00C1124F4E0EF0EF11CA12CB12C89
:1027E0008091210486958695869590912204899FF3
:1027F000C0011124A816B90688F5E0911F04F091D4
:102800002004EE0DFF1DE491F7E0CF2ED12C0E2F0A
:1028100010E0C8010C2C02C0959587950A94E2F748
:1028200080FF08C08091F50390E0982F88272091C1
:10283000F60307C08091F70390E0982F8827209136
:10284000F803822B70DE21E0C21AD10810F74FEF97
:10285000E41AF40A5FEFA51AB50AC2CFE0910904A1
:10286000F0910A04908180911504892B8083CEDA3F
:102870008B819C8101969C838B835ACF869586950C
:10288000869520912304021B1109899FC001112400
:10289000089F6001099FD00C189FD00C112494E070
:1028A000C90ED11CA12CB12C30912104632F669547
:1028B0006695669580912204689FC0011124A81630
:1028C000B90660F670E0C5010E94BE2D620D731D51
:1028D000A201430F511D415051099B01C2014ED924
:1028E000E0902104E694E694E694F12C4601E1E0C0
:1028F0008E1A9108E114F10499F1E0911F04F0910E
:102900002004C4018E0D9F1DE80FF91FE491612C76
:10291000712C0E2F10E0C801062C02C095958795EA
:102920000A94E2F780FF08C08091F50390E0982FA9
:1029300088272091F60307C08091F70390E0982F35
:1029400088272091F803822BEEDDFFEF6F1A7F0AB4
:1029500028E062167104F9F631E0E31AF108CACFF3
:102960008091210486958695869590E0C80ED91EA3
:10297000A80EB91E99CF8695869586952091230439
:10298000021B1109899FC0011124089F3001099F72
:10299000700C189F700C112444E0640E711C8101AE
:1029A0008091220490E098012219330928173907F1
:1029B00008F054CF812C912CE12CF12CA8014F5F11
:1029C0005F4F5E874D878091210486958695869519
:1029D00090E0E816F9060CF040C0E0911F04F09179
:1029E0002004C701860D971DE80FF91FE4916201CD
:1029F000C80CD91C37E0A32EB12C8E2F90E09A83FF
:102A0000898389819A810A2C02C0959587950A94B9
:102A1000E2F780FF11C02D853E85A6014F5F5F4F15
:102A2000B801C601ABD88091F50390E0982F8827B4
:102A30002091F603822B77DD91E0A91AB108EFEF20
:102A4000CE1ADE0AFFEFAF16BF06D9F62FEFE21A55
:102A5000F20A38E0830E911CB6CF680E791E0F5F24
:102A60001F4F9ECF2B853C850FB6F8943EBF0FBEFF
:102A70002DBF2E960FB6F894DEBF0FBECDBFDF91EF
:102A8000CF911F910F91FF90EF90DF90CF90BF906B
:102A9000AF909F908F907F906F905F904F903F90FE
:102AA0002F9008950F931F93CF93DF93FC01EA01BA
:102AB00057FF05C0640F751FD195C195D109A0912D
:102AC0000904B0910A042C919091150490959223D9
:102AD0009C939B012C0F3D1FAF01CF014FD88091DC
:102AE00003048031A9F4E0910504F091060490817B
:102AF00080911304892B80839E01DD0F440B550BBD
:102B00006091F60370E08091F50390E03ED426C01A
:102B10008830C1F49091F5038091F603981312C0A8
:102B2000E0910504F0910604908180911304892BB3
:102B30008083AE01DD0F660B770B8091F50390E08B
:102B400053D10CC000E010E06091F6038091F503D2
:102B5000D7D50F5F1F4FC017D107B4F7E091090415
:102B6000F0910A04908180911504892B8083DF9174
:102B7000CF911F910F914AC90F931F93CF93DF936A
:102B8000EA0157FF05C0840F951FD195C195D10962
:102B9000E0910904F0910A044081309115043095C8
:102BA00034233083AC014C0F5D1F9B010E94BE0D8E
:102BB000809103048031A9F4E0910504F0910604AA
:102BC000908180911304892B80839E01DD0F440B3B
:102BD000550B6091F60370E08091F50390E0D5D33A
:102BE00026C08830C1F49091F5038091F6039813C4
:102BF00012C0E0910504F0910604908180911304C5
:102C0000892B8083AE01DD0F660B770B8091F50376
:102C100090E0EAD00CC000E010E06091F6038091F3
:102C2000F5036ED50F5F1F4FC017D107B4F7E091C2
:102C30000904F0910A04908180911504892B808306
:102C4000DF91CF911F910F91E1C8CF93DF93FC01EA
:102C5000C5EFD3E0AC89BD893C9198A190959323B1
:102C60009C939B01AF01CF010E94BE0D888190E033
:102C7000982F88272981822B56DCEC89FD89908149
:102C800088A1892B8083DF91CF91C0C8CF93DF9338
:102C9000E0E4FEE08491E0E8FDE0D491E0EEFDE0C8
:102CA000C491CC2391F081110E946909EC2FF0E0CE
:102CB000EE0FFF1FEC5DF14FA591B491EC91ED2368
:102CC00081E090E021F480E002C080E090E0DF91BC
:102CD000CF910895FB01DC0111961C921E92139670
:102CE0001C921E92129715961C921E92149786178C
:102CF000970741F0608171816115710519F0448178
:102D0000558115CC0895FC01118210821382128224
:102D1000158214826115710549F0FB0101900020B4
:102D2000E9F73197AF01461B570B01CC08956115A8
:102D3000710579F0FB0101900020E9F73197AF01AF
:102D4000461B570BDC01ED91FC910280F381E02DD5
:102D5000199480E090E008954F925F926F927F9275
:102D6000EF92FF920F931F93CF93DF93CDB7DEB710
:102D7000A1970FB6F894DEBF0FBECDBF7C01FA015C
:102D8000CB0119A2223008F42AE08E010F5D1F4FFB
:102D9000422E512C612C712CBF01A30192010E9483
:102DA000832DF901CA01015011096A3014F4605DE4
:102DB00001C0695CD8016C93232B242B252B61F770
:102DC000B801C701B4DFA1960FB6F894DEBF0FBEFD
:102DD000CDBFDF91CF911F910F91FF90EF907F902A
:102DE0006F905F904F9008958F929F92AF92BF9295
:102DF000CF92DF92EF92FF926A017B0182B9CB0101
:102E0000BA0120E130E040E050E00E94D22D4901BB
:102E10005A0180E090E0DC0188159905AA05BB0500
:102E20000CF064C2E0910704F09108043081209115
:102E30001404209523232083E0910704F0910804D3
:102E4000308120911404232B2083E0910704F0911A
:102E50000804308120911404209523232083E091DD
:102E60000704F0910804308120911404232B20835F
:102E7000E0910704F091080430812091140420951A
:102E800023232083E0910704F091080430812091EE
:102E90001404232B2083E0910704F091080430816F
:102EA00020911404209523232083E0910704F091BE
:102EB0000804308120911404232B2083E09107041F
:102EC000F09108043081209114042095232320835D
:102ED000E0910704F0910804308120911404232B21
:102EE0002083E0910704F0910804308120911404BC
:102EF000209523232083E0910704F091080430817A
:102F000020911404232B2083E0910704F0910804FE
:102F1000308120911404209523232083E09107041D
:102F2000F0910804308120911404232B2083E09138
:102F30000704F09108043081209114042095232384
:102F40002083E0910704F09108043081209114045B
:102F5000232B2083E0910704F09108043081209115
:102F60001404209523232083E0910704F0910804A2
:102F7000308120911404232B2083E0910704F091E9
:102F80000804308120911404209523232083E091AC
:102F90000704F0910804308120911404232B20832E
:102FA000E0910704F09108043081209114042095E9
:102FB00023232083E0910704F091080430812091BD
:102FC0001404232B2083E0910704F091080430813E
:102FD00020911404209523232083E0910704F0918D
:102FE0000804308120911404232B2083E0910704EE
:102FF000F09108043081209114042095232320832C
:10300000E0910704F0910804308120911404232BEF
:103010002083E0910704F09108043081209114048A
:10302000209523232083E0910704F0910804308148
:1030300020911404232B2083E0910704F0910804CD
:10304000308120911404209523232083E0910704EC
:10305000F0910804308120911404232B2083E09107
:103060000704F09108043081209114042095232353
:103070002083E0910704F09108043081209114042A
:10308000232B2083E0910704F091080430812091E4
:103090001404209523232083E0910704F091080471
:1030A000308120911404232B2083E0910704F091B8
:1030B0000804308120911404209523232083E0917B
:1030C0000704F0910804308120911404232B2083FD
:1030D000E0910704F09108043081209114042095B8
:1030E00023232083E0910704F0910804308120918C
:1030F0001404232B2083E0910704F091080430810D
:1031000020911404209523232083E0910704F0915B
:103110000804308120911404232B2083E0910704BC
:10312000F0910804308120911404209523232083FA
:10313000E0910704F0910804308120911404232BBE
:103140002083E0910704F091080430812091140459
:10315000209523232083E0910704F0910804308117
:1031600020911404232B2083E0910704F09108049C
:10317000308120911404209523232083E0910704BB
:10318000F0910804308120911404232B2083E091D6
:103190000704F09108043081209114042095232322
:1031A0002083E0910704F0910804308120911404F9
:1031B000232B2083E0910704F091080430812091B3
:1031C0001404209523232083E0910704F091080440
:1031D000308120911404232B2083E0910704F09187
:1031E0000804308120911404209523232083E0914A
:1031F0000704F0910804308120911404232B2083CC
:10320000E0910704F0910804308120911404209586
:1032100023232083E0910704F0910804308120915A
:103220001404232B2083E0910704F09108043081DB
:1032300020911404209523232083E0910704F0912A
:103240000804308120911404232B2083E09107048B
:10325000F0910804308120911404209523232083C9
:10326000E0910704F0910804308120911404232B8D
:103270002083E0910704F091080430812091140428
:10328000209523232083E0910704F09108043081E6
:1032900020911404232B2083E0910704F09108046B
:1032A000408130911404309534233083E091070439
:1032B000F0910804208130911404322B3083E09186
:1032C0000704F091080440813091140430953423B0
:1032D0003083E0910704F0910804208130911404B8
:1032E000322B30830196A11DB11D96CDD701C601A9
:1032F0008F709927AA27BB27892B8A2B8B2BE1F16B
:10330000C701B60120E130E040E050E00E94D22D3C
:10331000C12CD12C76016C157D058E059F0564F1BD
:10332000E0910704F0910804308120911404209565
:1033300023232083E0910704F09108043081209139
:103340001404232B2083E0910704F09108043081BA
:1033500020911404209523232083E0910704F09109
:103360000804308120911404232B20832FEFC21AEC
:10337000D20AE20AF20ACFCFFF90EF90DF90CF900F
:10338000BF90AF909F908F9008958F929F92AF9231
:10339000BF92CF92DF92EF92FF9269017A0182B9D8
:1033A00068B9CA01B90120E130E040E050E00E9474
:1033B000D22D49015A0180E090E0DC018815990581
:1033C000AA05BB050CF034C1E0910704F091080494
:1033D000308120911404209523232083E091070459
:1033E000F0910804308120911404232B2083E09174
:1033F0000704F091080430812091140420952323C0
:103400002083E0910704F091080430812091140496
:10341000232B2083E0910704F09108043081209150
:103420001404209523232083E0910704F0910804DD
:10343000308120911404232B2083E0910704F09124
:103440000804308120911404209523232083E091E7
:103450000704F0910804308120911404232B208369
:10346000E0910704F0910804308120911404209524
:1034700023232083E0910704F091080430812091F8
:103480001404232B2083E0910704F0910804308179
:1034900020911404209523232083E0910704F091C8
:1034A0000804308120911404232B2083E091070429
:1034B000F091080430812091140420952323208367
:1034C000E0910704F0910804308120911404232B2B
:1034D0002083E0910704F0910804308120911404C6
:1034E000209523232083E0910704F0910804308184
:1034F00020911404232B2083E0910704F091080409
:10350000308120911404209523232083E091070427
:10351000F0910804308120911404232B2083E09142
:103520000704F0910804308120911404209523238E
:103530002083E0910704F091080430812091140465
:10354000232B2083E0910704F0910804308120911F
:103550001404209523232083E0910704F0910804AC
:10356000308120911404232B2083E0910704F091F3
:103570000804308120911404209523232083E091B6
:103580000704F0910804308120911404232B208338
:10359000E0910704F09108043081209114042095F3
:1035A00023232083E0910704F091080430812091C7
:1035B0001404232B2083E0910704F0910804308148
:1035C00020911404209523232083E0910704F09197
:1035D0000804308120911404232B2083E0910704F8
:1035E000F0910804408130911404309534233083E5
:1035F000E0910704F0910804208130911404322BEB
:103600003083E0910704F091080440813091140464
:10361000309534233083E0910704F0910804208131
:1036200030911404322B30830196A11DB11DC6CEFA
:10363000D701C6018F709927AA27BB27892B8A2B10
:103640008B2B49F1C701B60120E130E040E050E0AA
:103650000E94D22DC12CD12C76016C157D058E05D2
:103660009F05CCF0E0910704F0910804308120918F
:103670001404209523232083E0910704F09108048B
:10368000308120911404232B20832FEFC21AD20AF9
:10369000E20AF20AE2CFFF90EF90DF90CF90BF9066
:1036A000AF909F908F900895682F80910304813090
:1036B00069F0E0910504F0910604208190911304D3
:1036C0009095922390834091030401C041E080E0F3
:1036D0000C944B10682F80910304813069F0E091C5
:1036E0000504F0910604808190911304982B908337
:1036F0004091030480E002C041E081E00C944B1053
:10370000CF9390910304913061F0E0910504F09122
:103710000604208190911304922B9083409103041E
:103720000AC0C62F682F41E081E00E944B104091F3
:1037300003046C2F81E0CF910C944B10CF93DF9357
:103740001F921F92CDB7DEB769837A83ADDF69819F
:103750007A81872F0F900F90DF91CF91D1CFCF93A8
:10376000DF93CDB7DEB7E6970FB6F894DEBF0FBE96
:10377000CDBF789484B5826084BD84B5816084BDFA
:1037800085B5826085BD85B5816085BD80916E00FF
:10379000816080936E001092810080918100826030
:1037A000809381008091810081608093810080916D
:1037B00080008160809380008091B100846080935C
:1037C000B1008091B00081608093B0008091910041
:1037D000826080939100809191008160809391003C
:1037E000809190008160809390008091A100826020
:1037F0008093A1008091A10081608093A1008091BD
:10380000A00081608093A00080912101826080935C
:10381000210180912101816080932101809120010B
:1038200081608093200180917A00846080937A0087
:1038300080917A00826080937A0080917A00816022
:1038400080937A0080917A00806880937A00109249
:10385000C1001092F1031092F2031092F303109240
:10386000F4031092AF031092B0031092B1031092C0
:10387000B20368EB7BE080E090E00E94C20F80E141
:1038800093E09093F0038093EF030E9423100E9433
:10389000620A6093AF037093B0038093B103909377
:1038A000B2036AE272E08091EF039091F0033FDA95
:1038B0006AE070E080E090E00E94C20F11E0109397
:1038C000C30360E082E00E94EE0961E082E00E94B2
:1038D000BF090E9423101093F90361E080911A043C
:1038E0000E94EE0961E080911B040E94EE0961E0F4
:1038F00080911C040E94EE0980911D048F3F19F0F5
:1039000061E00E94EE0980910304813131F0813041
:1039100049F480910404853029F461E080911E040B
:103920000E94EE0980910304813079F0813131F0F9
:103930009FEF91B9803149F497B907C088E180932E
:10394000010180E283BB8BE38DB9E0910B04F09120
:103950000C04908180911604892B808365E070E0CF
:1039600080E090E00E942A0AE0910B04F0910C04A0
:103970009081809116048095892380836FE070E0A8
:1039800080E090E00E942A0AE0910B04F0910C0480
:10399000908180911604892B80836FE070E080E035
:1039A00090E00E942A0AE0910904F0910A049081B3
:1039B00080911504809589238083E09102048E2FE5
:1039C00090E0FC013297EE31F10510F00C94892A59
:1039D0008827EE58FF4F8F4F0C94EE2D61E070E07A
:1039E00080E0ACDE64EA78EA83E0A8DE60E070E0C4
:1039F0008CE0A4DE6CE078E08DE0A0DE60E07BE2AD
:103A00008EE09CDE67EB70E08EE198DE6FE37BE298
:103A100081E094DE60E076E082E090DE60E070E0DD
:103A200080E18CDE60E770E681E188DE60E070E0D6
:103A300085E084DE60E070E086E080DE6CE17FEEB1
:103A400086E17CDE63E070E087E178DE63E372E0CC
:103A500087E074DE60E070E08BE070DE60E070E0D4
:103A60008FE06CDE60E070E081E468DE60E070E0D2
:103A700082E464DE60E070E088E460DE6FE371E0C1
:103A800089E45CDE60E070E08AE458DE60E070E0CB
:103A90008BE454DE60E07FEE84E450DE60E070E0B2
:103AA00085E44CDE6FE371E086E448DE67E077E0B2
:103AB00080E344DE64E072E081E340DE64E072E0D3
:103AC00082E33CDE62E075E083E338DE67E075E0C8
:103AD00084E334DE64E072E085E330DE64E072E0CB
:103AE00086E32CDE62E075E087E328DE62E073E0C7
:103AF0008AE324DE62E073E08BE320DE60E070E0C6
:103B000083E21CDE60E070E084E218DE60E070E8D2
:103B100085E214DE60E070E08FE410DE60E070E0CB
:103B20008EE40C949E2560EF78E785EE07DE60E07A
:103B300071E081E003DE60E072E082E0FFDD60E3DF
:103B400070E183E0FBDD60E070E084E0F7DD67E0DA
:103B500072E088E0F3DD60E070E089E0EFDD60E0D6
:103B600070E08AE0EBDD60E070E08CE0E7DD60E0D3
:103B700070E08DE0E3DD60E070E08FE0DFDD60E0CD
:103B800070E080E1DBDD67E070E081E1D7DD60E0DF
:103B900070E082E1D3DD60E070E083E1CFDD61E0E1
:103BA00070E087E0CBDD68EC70E080E090E00E94A0
:103BB0002A0A60E976E180E1C1DD67E272E081E135
:103BC000BDDD62E370E080E090E00E942A0A6DE0D3
:103BD00070E082E1B3DD62E370E080E090E00E949B
:103BE0002A0A60E072E183E1A9DD6AE070E089E21F
:103BF000A5DD6DE070E068C060EF78E785EE9EDDE2
:103C000060E071E081E09ADD60E077E082E096DDDF
:103C100060E370E183E092DD60E070E084E08EDDDF
:103C200067E072E088E08ADD60E070E089E086DDD0
:103C300060E070E08AE082DD60E070E08CE07EDDD4
:103C400060E070E08DE07ADD60E070E08FE076DDCE
:103C500060E070E080E172DD67E070E081E16EDDE0
:103C600060E070E082E16ADD60E070E083E166DDE3
:103C700061E070E087E062DD68EC70E080E090E099
:103C80000E942A0A60E975E180E158DD67E272E08E
:103C900081E154DD62E370E080E090E00E942A0A56
:103CA0006CE970E082E14ADD62E370E080E090E080
:103CB0000E942A0A60E079E183E140DD63E270E07E
:103CC00089E23CDD6EE070E08BE238DD62E370E0BB
:103CD00080E090E00E942A0A60E070E080E22EDD41
:103CE00060E070E081E22ADD60E070E080E326DDE4
:103CF00064E074E081E322DD63E070E082E31EDDD6
:103D000065E074E085E31ADD68E078E086E316DDBF
:103D100067E074E087E312DD63E073E088E30EDDC3
:103D200067E077E089E30ADD64E075E08CE306DDB7
:103D300068E078E08DE302DD60E070E080E5FEDCC5
:103D40006FEE70E081E5FADC60E070E082E5F6DCC1
:103D50006FE371E083E5F2DC60E077EA80E6EEDCB9
:103D600061E070E081E6EADC60E070E08AE6E6DCD3
:103D700060E070E080E8E2DC60E070E081E8DEDCDA
:103D800060E070E082E8DADC60E070E083E8D6DCD6
:103D900060E070E084E8D2DC60E070E085E8CEDCD2
:103DA00060E170E080E9CADC60E070E082E9C6DCD6
:103DB00063E371E087E0C2DC0C94892A64E870E078
:103DC00086E2BCDC68E270E080E090E00E942A0AB3
:103DD00068EB70E086E2B2DC68E270E080E090E0E0
:103DE0000E942A0A6CEB70E086E2A8DC64E170E0D5
:103DF00080E090E00E942A0A60E070E080E69EDCAD
:103E000066E070E081E69ADC60E070E082E696DCD5
:103E100068EC70E083E692DC64E170E080E090E0C2
:103E20000E942A0A60E770E083E788DC60E070E0C7
:103E300080E484DC60E470E081E480DC65E470E0D0
:103E400082E47CDC61E070E083E478DC60E670E0D2
:103E500084E474DC65E070E085E470DC6CE070E0C4
:103E600086E46CDC61ED70E087E468DC65E070E0BE
:103E700088E464DC65E770E080E560DC61E070E0C8
:103E800081E55CDC67E670E082E558DC64E170E0C7
:103E900083E554DC62EF70E084E550DC67E070E0BD
:103EA00085E54CDC63E070E086E548DC69E470E0C1
:103EB00087E544DC64E170E080E090E00E942A0A3B
:103EC00063E070E08FE13ADC60E070E080E236DCD5
:103ED00064E270E084E232DC64E370E085E22EDCD0
:103EE0006FE270E083E22ADC64E170E080E090E061
:103EF0000E942A0A64E470E088E120DC61E070E05E
:103F000081E21CDC60E070E081E018DC63E070E0DE
:103F10008CE114DC66E070E089E110DC64E170E0C3
:103F200080E090E00E942A0A64E870E086E206DC05
:103F300068E270E080E090E00E942A0A68EB70E09E
:103F400086E2FCDB68E270E080E090E00E942A0AF2
:103F50006CEB70E086E2F2DB64E170E080E090E020
:103F60000E942A0A60E070E082E0E8DB60E070E036
:103F700083E0E4DB60E070E084E0E0DB6FEA70E0C7
:103F800085E0DCDB60E070E086E0D8DB60E070E0DC
:103F900087E0D4DB60E070E088E0D0DB6BED70E0C0
:103FA00089E0CCDB64E170E080E090E00E942A0AC6
:103FB00068E070E086E1C2DB65E070E087E1BEDBCF
:103FC00081E272DB82E270DB0C94892A81E16CDB96
:103FD0006CE070E080E090E00E942A0A81EB64DBF4
:103FE00081E078DB8CE276DB8DE274DB82EB5CDBFC
:103FF00081E070DB8CE26EDB8DE26CDB83EB54DB0B
:1040000081E068DB8CE266DB8DE264DB81E062DB11
:104010008CE260DB8DE25EDB84EB46DB87E05ADB23
:1040200080EC42DB82EA56DB82E054DB84E852DB40
:1040300081EC3ADB85EC4EDB82EC36DB8AE04ADB56
:1040400080E048DB83EC30DB8AE844DB8AE242DB59
:1040500084EC2ADB8AE83EDB8EEE3CDB85EC24DB5D
:104060008EE038DB86E320DB88EC4FC081E11CDB8F
:104070006CE070E080E090E00E942A0A81EB14DBA3
:1040800081E028DB8CE226DB8DE224DB82EB0CDB9B
:1040900081E020DB8CE21EDB8DE21CDB83EB04DBAA
:1040A00081E018DB8CE216DB8DE214DB81E012DBB1
:1040B0008CE210DB8DE20EDB84EBF6DA87E00ADBC4
:1040C00080ECF2DA82EA06DB82E004DB84E802DBE1
:1040D00081ECEADA85ECFEDA82ECE6DA8AE0FADAFA
:1040E00080E0F8DA83ECE0DA8AE8F4DA8AE2F2DAFD
:1040F00084ECDADA8AE8EEDA8EEEECDA85ECD4DA01
:104100008EE0E8DA86E3D0DA80ECE4DA80EECCDA2E
:104110008FE0E0DA8AE1DEDA8FE0DCDA88E1DADA11
:104120008FE2D8DA88E2D6DA80E2D4DA82E2D2DA32
:104130008FE1D0DA8BE1CEDA83E2CCDA87E3CADA38
:1041400080E0C8DA87E0C6DA82E0C4DA80E1C2DA69
:1041500081EEAADA8FE0BEDA8BE1BCDA8FE0BADA60
:1041600087E1B8DA83E3B6DA8CE2B4DA89E2B2DA6C
:104170008EE2B0DA80E3AEDA80E3ACDA89E3AADA81
:104180008FE3A8DA80E0A6DA87E0A4DA83E0A2DA97
:1041900080E1A0DA8AE288DA80E09CDA80E09ADACC
:1041A00080E098DA8FE796DA8BE27EDA80E092DAC6
:1041B00080E090DA80E08EDA8FE98CDA80EF74DAD2
:1041C00081E088DA86EF70DA80E094C581E06CDA0D
:1041D00085E26ADA80E47EDA81E166DA6AE070E03C
:1041E00080E090E00E942A0A80E25EDA88E35CDAEE
:1041F00089E25ADA83E158DA86E356DA80E66ADA47
:104200008AE352DA85E066DA8AE24EDA80E062DA40
:104210008FE760DA84EB48DA83E05CDA88E05ADA28
:104220008BE058DA8EE056DA8AEB3EDA87E052DA33
:104230008DE050DA8BE238DA80E04CDA8FE76CC13F
:1042400083E832DA82E046DA85E82EDA83E042DA81
:104250008BE82ADA81E03EDA8CE826DA83E93ADA7A
:1042600081E922DA81E036DA83E81EDA80E032DAA8
:104270008EE31ADA80EB2EDA8FE316DA83E02ADA9D
:1042800080E412DA80E126DA81E40EDA86E522DAC9
:1042900082E40ADA83E11EDA83E406DA86E41ADAD3
:1042A00084E402DA83E216DA85E4FED986E712DADC
:1042B00086E4FAD980E00EDA87E4F6D98EE50ADAE8
:1042C00088E4F2D98FE406DA89E4EED980E402DAF0
:1042D00087E1EAD981E9FED98BE2E6D989EFFAD9FB
:1042E0006AE070E080E090E00E942A0A8BE1DCD96D
:1042F00084E1F0D98AE1D8D981E1ECD98CE1D4D933
:1043000086E0E8D98FE1D0D982E4E4D964E170E0B5
:1043100080E090E00E942A0A89E1C6D98AE0DAD9D1
:1043200089E1C2D98AE1D6D968E270E080E090E004
:104330000E942A0A89E1B8D982E1CCD968E270E00A
:1043400080E090E00E942A0A8EE1AED987E2C2D9CD
:1043500064E670E080E090E00E942A0A84E2A4D93A
:1043600080E6B8D98DE3A0D980E4B4D984E39CD9A0
:1043700088E3B0D985E398D988E3ACD984E294D9AD
:1043800088E3A8D968E270E080E090E00E942A0A01
:1043900084E28AD98CE39ED986E186D98CE19AD9C8
:1043A00081E082D986E096D985E57ED980E092D9F0
:1043B00082E07AD980E08ED983E076D980E08AD90C
:1043C00084E072D980E086D985E06ED98FEE82D9FB
:1043D00086E06AD980E07ED987E066D980E07AD924
:1043E00088E062D981E076D989E05ED98FE872D918
:1043F000E9CD82EE59D983E26DD982E06BD984E5AB
:1044000069D980EE51D981E065D96AE070E080E039
:1044100090E00E942A0A80EE47D983E05BD96AE0E7
:1044200070E080E090E00E942A0A81E03DD964E6D5
:1044300070E080E090E00E942A0A86EE35D981E0A3
:1044400049D98FE147D98FEF45D980EB2DD980E24B
:1044500041D980E03FD981E03DD98FED3BD981E062
:1044600039D98FE037D980E035D984EB1DD982E086
:1044700031D983E12FD980E02DD988E02BD98BE287
:1044800029D980E027D982E025D980E023D986EB9D
:104490000BD981E01FD980E21DD980E01BD984E0CF
:1044A00019D98CE017D980E015D982E013D98AEBAD
:1044B000FBD88FE00FD988EBF7D887E00BD981E0E4
:1044C00009D986E3F1D882E205D980EFEDD883E0FF
:1044D00001D961E070E080E090E00E942A0A2FE0BC
:1044E00031E04FED51E060E070E080E090E00E944C
:1044F000BE0D89E2D9D88EEBD7D886E0EBD880EF15
:10450000E9D881E0E7D880EFE5D880E0E3D880E023
:10451000E1D880EDC9D88DE0DDD82CC782EEC4D8B3
:104520008EE1D8D882E0D6D884E5D4D880EEBCD845
:1045300081E0D0D86AE070E080E090E00E942A0A32
:1045400080EEB2D883E0C6D86AE070E080E090E008
:104550000E942A0A81E0A8D864E670E080E090E03A
:104560000E942A0A86EEA0D883E0B4D88FEFB2D892
:104570008FEFB0D880EB98D884E2ACD880E0AAD88E
:1045800083E0A8D88FE1A6D881E0A4D88FEDA2D887
:1045900080E0A0D884EB88D883E09CD880EA9AD8C1
:1045A00080E098D88EE296D880E394D880E092D8C4
:1045B0008FE090D880E08ED886EB76D882E08AD8DB
:1045C0008DE088D880E086D880E184D880E182D8E8
:1045D00080E080D888E07ED88AEB66D88FE07AD8F1
:1045E00088EB62D887E076D881E074D886E35CD81F
:1045F00082E270D880EF58D883E06CD861E070E038
:1046000080E090E07CC082EE4FD883E263D882E005
:1046100061D884E05FD880EE47D881E05BD86AE05B
:1046200070E080E090E00E942A0A80EE3DD883E0AE
:1046300051D86AE070E080E090E00E942A0A81E0B0
:1046400033D864E670E080E090E00E942A0A86EEAB
:104650002BD884E03FD883E93DD880EE3BD880EB6F
:1046600023D880E037D880E035D883E033D88FE195
:1046700031D881E02FD88FED2DD880E02BD884EB76
:1046800013D883E027D880EA25D880E023D88EE2AB
:1046900021D880E31FD880E01DD88FE01BD880E0B0
:1046A00019D886EB01D882E015D88DE013D880E0C8
:1046B00011D880E10FD880E10DD880E00BD888E0D8
:1046C00009D88AEB0E94541B85E004D888EB0E942D
:1046D000541B87E00E946A1B81E00E946A1B86E3EC
:1046E0000E94541B82E20E946A1B80EF0E94541BAE
:1046F00083E00E946A1B6AE070E080E090E00E9424
:104700002A0A2FED31E04FE153E0EDCE64E070E294
:1047100081E114D860E07CEC83E110D860E076E2BF
:1047200085E10CD86AE275E284E108D863E370E0C1
:1047300082E104D864E07CEC83E100D866E07CECA4
:1047400083E10E949E1B6FE47CEC83E10E949E1B30
:104750006FE477E683E10E949E1B63E070E281E1F3
:104760000E949E1B69E076E280E30E949E1B6CE241
:1047700074E281E30E949E1B63E27FE182E30E9478
:104780009E1B65E274E283E30E949E1B66E272E276
:1047900084E30E949E1B63E275E285E30E949E1BF8
:1047A0006AE17CE186E30E949E1B6DE173E187E391
:1047B0000E949E1B61E17BE088E30E949E1B60E1FA
:1047C00072E189E30E949E1B65E173E18AE30E9426
:1047D0009E1B69E176E38BE30E949E1B60E07DE017
:1047E0008CE30E949E1B6DE070E08DE30E949E1B97
:1047F00067E070E086E10E949E1B63E170E082E06A
:104800000E949E1B63E070E083E00E949E1B67E2B3
:1048100071E081E00E949E1B63E073E088E00E94EB
:104820009E1B6BE070E08AE00E949E1B63E070E0DC
:104830008BE00E949E1B60E070E08CE00E949E1B5B
:1048400060E070E081E40E949E1B60E070E080E523
:104850000E949E1B65E070E080E60E949E1B6BE05C
:1048600070E080E70E949E1B60E070E081E70E949C
:104870009E1B60E070E088E70E949E1B60E070E095
:104880008AE70E949E1B67E070E089E70E949E1BFA
:1048900061E570E087E00E949E1B63E570E087E0C1
:1048A0000E949E1B60E070E089E748C181E10E94A0
:1048B000541B64E170E080E090E00E942A0A80EDE1
:1048C0000E94541B87E00E946A1B82E40E946A1BBC
:1048D00088E10E946A1B81ED0E94541B80E00E94C7
:1048E0006A1B87E00E946A1B80E10E946A1B82EDBE
:1048F0000E94541B81E00E946A1B82E00E946A1B96
:1049000080EC0E94541B80E10E946A1B8BE30E9492
:104910006A1B80E00E946A1B82E00E946A1B81E1A0
:104920000E946A1B85EC0E94541B83E00E946A1B54
:1049300088EC0E94541B80E00E946A1B82E30E9464
:104940006A1B86E30E946A1B85E40E946A1B86E05C
:104950000E946A1B86E10E946A1B87E30E946A1B11
:1049600085E70E946A1B87E70E946A1B84E50E9414
:104970006A1B8CE00E946A1B80E00E946A1B86E32F
:104980000E94541B8AE00E946A1B8AE30E94541B07
:1049900085E50E946A1B8AE20E94541B80E00E9407
:1049A0006A1B80E00E946A1B81E00E946A1B8FE301
:1049B0000E946A1B8BE20E94541B80E00E946A1BCB
:1049C00080E00E946A1B81E00E946A1B80EE0E94C8
:1049D0006A1B68E770E080E090E00E942A0A92C1BA
:1049E0006AE170E081E10E949E1B61E271E382E175
:1049F0000E949E1B6CE670E083E10E949E1B69E4AE
:104A000072E484E10E949E1B60E078E080E10E94F5
:104A10009E1B6AE070E080E090E00E942A0A6AE152
:104A200071E081E10E949E1B6AE070E080E090E00E
:104A30000E942A0A6AE173E081E10E949E1B6AE0FB
:104A400070E080E090E00E942A0A6AE177E081E16C
:104A50000E949E1B6AE070E080E090E00E942A0ABB
:104A60006AE17FE081E10E949E1B6AE070E080E0E5
:104A700090E00E942A0A6AE37FE081E10E949E1B87
:104A80006EE170E080E090E00E942A0A6CE171E043
:104A900081E00E949E1B60E071E082E00E949E1B0C
:104AA00060E370E183E00E949E1B60E070E087E0BD
:104AB0000E949E1B68E078E088E00E949E1B60E0F8
:104AC00071E18BE00E949E1B60E070E08CE00E9430
:104AD0009E1B61E074E18FE00E949E1B60E070E02D
:104AE00085E10E949E1B60E070E080E20E949E1BB8
:104AF00060E070E081E20E949E1B6FEA70E086E356
:104B00000E949E1B60E070E087E30E949E1B6BED9D
:104B100070E088E30E949E1B60E070E089E30E94E1
:104B20009E1B61E07BE08FE00E949E1B66E170E0CF
:104B300087E00E949E1B67E170E087E00E949E1B59
:104B400041CA81E10E94541B68E770E080E090E078
:104B50000E942A0A81EB0E94541B85E00E946A1B76
:104B60008CE30E946A1B8CE30E946A1B82EB0E940A
:104B7000541B85E00E946A1B8CE30E946A1B8CE335
:104B80000E946A1B83EB0E94541B85E00E946A1BF3
:104B90008CE30E946A1B8CE30E946A1B85E00E94E2
:104BA0006A1B8CE30E946A1B8CE30E946A1B84EBE5
:104BB0000E94541B83E00E946A1B80EC0E94541BDD
:104BC00088E20E946A1B88E00E946A1B84E00E94BF
:104BD0006A1B81EC0E94541B80EC0E946A1B82ECD1
:104BE0000E94541B8DE00E946A1B80E00E946A1B99
:104BF00083EC0E94541B8DE80E946A1B8AE20E948B
:104C00006A1B84EC0E94541B8DE80E946A1B8EEE86
:104C10000E946A1B85EC0E94541B8AE10E946A1B59
:104C200086E30E94541B80EC0E946A1B80EE0E9467
:104C3000541B83E00E946A1B82E20E946A1B87E089
:104C40000E946A1B8AE00E946A1B8EE20E946A1B15
:104C500080E30E946A1B85E20E946A1B8AE20E942E
:104C60006A1B88E20E946A1B86E20E946A1B8EE22F
:104C70000E946A1B8AE30E946A1B80E00E946A1BF2
:104C800081E00E946A1B83E00E946A1B83E10E940C
:104C90006A1B81EE0E94541B84E00E946A1B86E11D
:104CA0000E946A1B86E00E946A1B8DE00E946A1BBC
:104CB0008DE20E946A1B86E20E946A1B83E20E94C8
:104CC0006A1B87E20E946A1B87E20E946A1B85E2D8
:104CD0000E946A1B8DE20E946A1B8BE30E946A1B82
:104CE00080E00E946A1B81E00E946A1B84E00E94AF
:104CF0006A1B83E10E946A1B8AE30E94541B85E0C1
:104D00000E946A1B89E25FC981E10E94541B64E131
:104D100070E080E090E00E942A0A88E20E94541B22
:104D200065E070E080E090E00E942A0A8FEC0E942B
:104D3000541B80E00E946A1B83E80E946A1B80E388
:104D40000E946A1B8DEE0E94541B84E60E946A1B1F
:104D500083E00E946A1B82E10E946A1B81E80E9434
:104D60006A1B88EE0E94541B85E80E946A1B81E042
:104D70000E946A1B89E70E946A1B8BEC0E94541BED
:104D800089E30E946A1B8CE20E946A1B80E00E94F9
:104D90006A1B84E30E946A1B82E00E946A1B87EF01
:104DA0000E94541B80E20E946A1B8AEE0E94541BE0
:104DB00080E00E946A1B80E00E946A1B80EC0E94D7
:104DC000541B86E20E946A1B81EC0E94541B81E105
:104DD0000E946A1B85EC0E94541B85E30E946A1B9B
:104DE0008EE30E946A1B87EC0E94541B8EEB0E948C
:104DF0006A1B81EB0E94541B80E00E946A1B8BE1BE
:104E00000E946A1B86EB0E94541B8AE00E946A1B68
:104E100082E80E946A1B87E20E946A1B80E00E946F
:104E20006A1B87EB0E94541B87E00E946A1B8AE37F
:104E30000E94541B85E50E946A1B86E30E94541B56
:104E400088E40E946A1B89E20E94541B65E070E0BE
:104E500080E090E05CC38BEC0E94541B89E30E94CD
:104E60006A1B8CE20E946A1B80E00E946A1B84E33A
:104E70000E946A1B82E00E946A1B8FEC0E94541BF6
:104E800080E00E946A1B81EC0E946A1B80E30E9402
:104E90006A1B88EE0E94541B85E80E946A1B80E012
:104EA0000E946A1B88E70E946A1B8AEE0E94541BBC
:104EB00080E00E946A1B80E00E946A1B8DEE0E94C7
:104EC000541B84E60E946A1B83E00E946A1B82E1F5
:104ED0000E946A1B81E80E946A1B87EF0E94541B94
:104EE00080E20E946A1B80EC0E94541B83E20E94B5
:104EF0006A1B81EC0E94541B80E10E946A1B85ECB6
:104F00000E94541B8EE30E946A1B88E20E946A1B67
:104F100087EC0E94541B86E80E946A1B86E30E946D
:104F2000541B88E40E946A1B8AE30E94541B85E597
:104F30000E946A1B81EB0E94541B80E00E946A1B46
:104F400088E10E946A1B86EB0E94541B88E00E9445
:104F50006A1B82E80E946A1B87E20E946A1B81E149
:104F60000E94541B68E770E080E090E0FEC180EB97
:104F70000E94541B8EE10E946A1B80EB0E94541B0E
:104F800080E00E946A1B83EB0E94541B82E00E9417
:104F90006A1B80E00E946A1B80E00E946A1B80E11D
:104FA0000E946A1B84EB0E94541B80E00E946A1BD3
:104FB00080EC0E94541B83E00E946A1B8BE30E94DA
:104FC0006A1B80E00E946A1B80E00E946A1B80E0EE
:104FD0000E946A1B81E00E946A1B80E00E946A1B9B
:104FE00083E40E946A1B81EC0E94541B88E00E94AB
:104FF0006A1B85E10E946A1B88E00E946A1B88E0A8
:105000000E946A1B84EC0E94541B85E10E946A1B6B
:1050100083E00E946A1B83E00E946A1B81E00E9479
:105020006A1B86EC0E94541B82E00E946A1B88EC7B
:105030000E94541B8CE00E946A1B85E00E946A1B40
:105040008AE00E946A1B8BE60E946A1B84E00E9431
:105050006A1B86E00E946A1B85E10E946A1B80E150
:105060000E946A1B80E00E946A1B80E60E946A1B05
:1050700086E30E94541B8AE00E946A1B8CE00E9417
:10508000541B85E50E946A1B8AE30E94541B85E538
:105090000E946A1B88E30E94541B80ED0E94541BEF
:1050A00087E00E946A1B87E00E946A1B84E10E94DD
:1050B0006A1B82EA0E946A1B81ED0E94541B83E0F6
:1050C0000E946A1B8AE50E946A1B80E10E946A1B9B
:1050D00082ED0E94541B83E00E946A1B84E00E94C0
:1050E0006A1B84E00E946A1B81E10E94541B66E9EE
:1050F00070E080E090E00E942A0A8AE20E94541B3D
:1051000080E00E946A1B80E00E946A1B81E00E948E
:105110006A1B8FED0E946A1B8BE20E94541B80E089
:105120000E946A1B80E00E946A1B81E00E946A1B49
:105130008FE30E946A1B64E670E080E090E00E94CA
:105140002A0A89E20E94541B6EE170E080E090E040
:105150000E942A0A8CE20E94541B6EE170E080E0FB
:1051600090E0D5C181E10E94541B62E370E080E0D1
:1051700090E00E942A0A82EF0E94541B8CE10E9458
:105180006A1B83EA0E946A1B82E30E946A1B82E018
:105190000E946A1B82EB0E946A1B82E10E946A1BCA
:1051A0008FEF0E946A1B82E10E946A1B80E00E94CE
:1051B0006A1B81EF0E94541B86E30E946A1B84EAEB
:1051C0000E946A1B88EF0E94541B81E20E946A1BA6
:1051D00084E00E946A1B89EF0E94541B80E00E94B9
:1051E0006A1B88E00E946A1B80EC0E94541B8DE0C1
:1051F0000E946A1B8DE00E946A1B81EC0E94541B76
:1052000083E40E946A1B80E00E946A1B82EC0E9479
:10521000541B80E00E946A1B85EC0E94541B80E0B6
:105220000E946A1B88E40E946A1B86EB0E94541B42
:1052300080E00E946A1B82E20E946A1B8BE30E944C
:105240006A1B80EE0E94541B8FE00E946A1B84E25E
:105250000E946A1B8CE10E946A1B8AE00E946A1B02
:105260008FE00E946A1B88E00E946A1B83E40E9410
:105270006A1B88E80E946A1B82E30E946A1B8FE017
:105280000E946A1B80E10E946A1B86E00E946A1BE2
:105290008FE00E946A1B87E00E946A1B80E00E94E8
:1052A0006A1B81EE0E94541B8FE00E946A1B88E3F8
:1052B0000E946A1B80E30E946A1B89E00E946A1BAD
:1052C0008FE00E946A1B8FE00E946A1B8EE40E949E
:1052D0006A1B87E70E946A1B8CE30E946A1B87E0B7
:1052E0000E946A1B80E10E946A1B85E00E946A1B83
:1052F00083E20E946A1B8BE10E946A1B80E00E948D
:105300006A1B80E20E94541B80E00E946A1B86E3B5
:105310000E94541B8AE00E946A1B8AE30E94541B6D
:1053200085E50E946A1B8AE20E94541B80E00E946D
:105330006A1B80E00E946A1B81E00E946A1B8FED5D
:105340000E946A1B8BE20E94541B80E00E946A1B31
:1053500080E00E946A1B81E00E946A1B8FE30E942A
:105360006A1B62E370E080E090E00E942A0A89E212
:105370000E94541B8CE20C94E31F8091F90381304E
:1053800019F41092F90303C081E08093F9038FE0D0
:105390000E94541B60E170E081E00E949E1B8FE040
:1053A0000C94E31F89EB0E94541B8FEF0E946A1B31
:1053B00083E80E946A1B83E50E946A1B80EB0E94BF
:1053C000541B8CE30E946A1B81E00E946A1B86EBDF
:1053D0000E94541B84E90E946A1B8CE60E946A1B8F
:1053E00080E50E946A1B81EB0E94541B80E00E94B2
:1053F0006A1B81E00E946A1B8BE10E946A1B83E0AA
:105400000E946A1B81E00E946A1B88E00E946A1B5E
:1054100087E70E946A1B89E80E946A1B80EE0E944F
:10542000541B80E50E946A1B87E70E946A1B80E488
:105430000E946A1B88E00E946A1B8FEB0E946A1B15
:1054400080E00E946A1B83E00E946A1B8FE00E943A
:105450006A1B80E00E946A1B81E00E946A1B83E74E
:105460000E946A1B80E00E946A1B82E70E946A1BFE
:1054700083E00E946A1B80EB0E946A1B8FE00E94FF
:105480006A1B88E00E946A1B80E00E946A1B8FE012
:105490000E946A1B8AE30E94541B85E00E946A1BDB
:1054A00086E30E94541B80EC0E946A1B81E10E94EB
:1054B000541B66E970E080E090E00E942A0A89E2CD
:1054C0000E94541B66E970E080E090E00E942A0A86
:1054D0008DE20E94541B10E0812F0E946A1B1E5F08
:1054E0001034D1F710E0812F0E946A1B1F5F103427
:1054F000D1F710E0812F0E946A1B1E5F1034D1F794
:105500008CE20E94541B66E970E080E090E00E940B
:105510002A0AE0910904F0910A049081809115040F
:10552000892B80838FEF8093F5038093F60310928D
:10553000F7031092F80310922504109220041092A1
:105540001F040E941B0F84EF882E99249394A12C92
:10555000B12C7E0129E1E20EF11C8E010F5F1F4F7D
:105560000E94620A672B682B692B41F40E94620A31
:10557000623071058105910508F40BC10E94620A31
:105580006093940270939502809396029093970291
:10559000409090025090910260909202709093021D
:1055A000641575058605970540F460939002709325
:1055B00091028093920290939302409090025090B7
:1055C000910260909202709093029B01AC012419A9
:1055D00035094609570929013A013AEF43165104A2
:1055E0006104710408F4D5C0609390027093910235
:1055F00080939202909393028092BB039092BC039B
:10560000A092BD03B092BE031092BF031092C003DC
:105610001092C1031092C2038091B3039091B4031E
:10562000A091B503B091B6038093B7039093B803EC
:10563000A093B903B093BA030E94620A6093B303C4
:105640007093B4038093B5039093B6030E94620AEB
:105650006093AF037093B0038093B1039093B20350
:105660000E94620A2B013C016CE372E08091EF031F
:105670009091F0030E9497162AE041E050E060E02C
:1056800070E08091EF039091F0030E94AC1663E408
:1056900072E08091EF039091F0030E9497162AE048
:1056A000B301A2018091EF039091F0030E94AC1628
:1056B00065E472E08091EF039091F0030E949716E9
:1056C0008091B3039091B403A091B503B091B60358
:1056D000B301A201481B590B6A0B7B0B2AE0809196
:1056E000EF039091F0030E94AC1665E472E08091A4
:1056F000EF039091F0030E9497164091B3035091ED
:10570000B4036091B5037091B6038091B703909193
:10571000B803A091B903B091BA03481B590B6A0BA7
:105720007B0B2AE08091EF039091F0030E94AC166E
:1057300067E472E08091EF039091F0030E94971666
:105740000E94620AAB01BC012AE08091EF039091B4
:10575000F0030E94AC16C090EF03D090F00369E410
:1057600072E0C6010E94971669E372E0C6010E94CA
:10577000971665E070E080E090E00E94C20F0E9402
:10578000620A6093B3037093B4038093B50390935C
:10579000B60368EE73E080E090E00E942A0A0E945F
:1057A0001B0F60E572E0C7010E94831669E572E095
:1057B000CE014F960E94831662E672E0CE01859676
:1057C0000E9483166BE672E0CE018B960E948316D0
:1057D00064E772E0C8010E948316B701C8010E9405
:1057E000E90B89819A8197D26CE271E080E090E0C8
:1057F0000E942A0AC12CD12CC6010E94D7126C012A
:105800000E944616892BC1F70E9446160E94E70F98
:1058100064EF71E080E090E00E942A0ACD2809F050
:105820004EC00E941B0F60E572E0C8010E94831603
:1058300069E572E0CE0107960E94831662E672E087
:10584000CE010D960E9483166BE672E0CE01439660
:105850000E9483166EE772E0CE01C1960E94831605
:10586000B801CE01C1960E94E90B89A99AA953D229
:105870006CE271E080E090E00E942A0AC12CD12CF9
:10588000C6010E94D7126C010E944616892BC1F7EF
:1058900064EF71E080E090E00E942A0A68EC70E01A
:1058A00080E090E00E942A0A670146E0C41AD1080D
:1058B000F601808191812FD2C016D106B1F768EC34
:1058C00070E080E090E00E942A0A9E012F5C3F4F2A
:1058D000690136E0C31AD108F601808191811BD29B
:1058E000CE14DF04B1F70E9443083ACE109213039E
:1058F0001092120388EE93E0A0E0B0E080931403CE
:1059000090931503A0931603B09317032AE032E097
:10591000309311032093100325EC30E030931D03E6
:1059200020931C0324EC30E030931F0320931E03CC
:1059300020EC30E0309321032093200321EC30E071
:10594000309323032093220322EC30E0309325038D
:105950002093240326EC30E0309327032093260382
:105960001092290310922A0310922B0310922C03F9
:105970001092B3031092B4031092B5031092B603C1
:105980001092B7031092B8031092B9031092BA03A1
:105990001092BB031092BC031092BD031092BE0381
:1059A0001092BF031092C0031092C1031092C20361
:1059B000109229041092280480932A0490932B04B7
:1059C000A0932C04B0932D048CE192E090932704D3
:1059D000809326048FEE90E0A0E0B0E08093FA037D
:1059E0009093FB03A093FC03B093FD038FE391E03E
:1059F000A0E0B0E08093FE039093FF03A093000427
:105A0000B093010480E18093030482E08093020458
:105A100096E290931A0497E290931B0498E2909375
:105A20001C0499E290931D0410921E049FEF91B9FB
:105A300097B9E4E0FEE0E491F0E0EE0FFF1FEC53D5
:105A4000F24F259134913093060420930504E4EA43
:105A5000FDE0E491E0931304E5E0FEE0E491F0E082
:105A6000EE0FFF1FEC53F24F259134913093080451
:105A700020930704E5EAFDE0E491E0931404E6E0F6
:105A8000FEE0E491F0E0EE0FFF1FEC53F24F2591A2
:105A9000349130930A0420930904E6EAFDE0E4918E
:105AA000E0931504E7E0FEE0E491F0E0EE0FFF1F65
:105AB000EC53F24F2591349130930C0420930B0456
:105AC000E7EAFDE0E491E093160496E09093450444
:105AD00095E09093460494E09093470493E090936C
