:1000000050C100007FC100007DC100007BC1000025
:1000100079C1000077C1000075C1000073C1000004
:1000200071C100006FC100006DC100006BC1000014
:1000300069C1000067C1000065C1000063C1000024
:1000400061C100005FC100005DC100005BC1000034
:1000500059C1000057C1000055C1000041C4000053
:1000600051C100000EC30000E3C200004BC10000FC
:1000700049C1000047C1000045C1000043C1000064
:1000800041C100003FC100003DC100003BC1000074
:1000900039C1000037C1000035C100006BC4000049
:1000A00031C100002FC100002DC100002BC1000094
:1000B00029C1000027C1000025C1000023C10000A4
:1000C00021C100001FC100001DC100001BC10000B4
:1000D00019C1000017C1000015C1000013C10000C4
:1000E00011C10000AE1167217B127B120D14672134
:1000F00012174715BF16672145180F195D1A5D1AAB
:10010000AE11091E6721AE11B319331BF912CD1BB5
:100110007E1C091E621D951E901F9B20B020BB15E2
:1001200092039503840388038E03CC0399039D03F4
:10013000A303A703AB03B103B503B903CC03BF0308
:10014000C303C703E7069807FB06FB0610079807DB
:10015000CE067C072E079807380738074C074C0750
:10016000E7067C079807E70638077C07FB06570772
:100170007C077C077C077C077C076C077C077C0777
:1001800000002100240027002A002D003000330049
:1001900001010000040107010A01010210202008EA
:1001A00008102040102040800201020108040201D2
:1001B0000102040810204080804020100804020141
:1001C000800402018040201008040201080402019A
:1001D0000102040810204080010204081020408021
:1001E00000002200250028002B002E0031003400E2
:1001F00002010000050108010B01050505050705C1
:1002000008080808020202020A0A08080404040492
:1002100001010101010101010303030303030303BE
:10022000040707070C0C0C0C0C0C0C0C020202024D
:1002300006060606060606060B0B0B0B0B0B0B0B36
:10024000000020002300260029002C002F0032008F
:100250000001000003010601090100000A0B020968
:100260000C0D0E0807030401000000000000000050
:10027000000000000000000000000000000000007E
:10028000000000000000121110000000000000003B
:10029000000000000000000000000000000000005E
:1002A000E72111241FBECFEFD1E2DEBFCDBF00E0BA
:1002B0000CBF24E0AAE7B2E001C01D92A335B2074B
:1002C000E1F712E0A0E0B2E0E4EFFAE400E00BBFF7
:1002D00002C007900D92AA37B107D9F711E0C1E526
:1002E000D1E000E006C021970109802FFE010E94A5
:1002F0004B23C035D10780E00807A9F70E946A1098
:100300000C9478257DCEFC01538D448D252F30E053
:10031000842F90E0821B930B541710F0CF96089512
:1003200001970895FC01918D828D981761F0828D5F
:10033000DF01A80FB11D5D968C91928D9F5F9F7319
:10034000928F90E008958FEF9FEF0895FC01918DBB
:10035000828D981731F0828DE80FF11D858D90E028
:1003600008958FEF9FEF0895FC01918D228D892FC5
:1003700090E0805C9F4F821B91098F7399270895AD
:1003800082EF92E0F1DF21E0892B09F420E0822F57
:100390000895FC01848DDF01A80FB11DA35ABF4F42
:1003A0002C91848D90E001968F739927848FA68974
:1003B000B7892C93A089B1898C9180648C93938D9B
:1003C000848D981306C00288F389E02D80818F7D8B
:1003D00080830895EF92FF920F931F93CF93DF9343
:1003E000EC0181E0888F9B8D8C8D981305C0E88986
:1003F000F989808185FD23C0F62E0B8D10E00F5FFB
:100400001F4F0F731127E02E8C8DE8120BC00FB613
:1004100007FCFACFE889F989808185FFF5CFCE0105
:10042000B8DFF2CF8B8DFE01E80FF11DE35AFF4FCD
:10043000F0820B8FEA89FB898081806207C0EE8998
:10044000FF896083E889F98980818064808381E005
:1004500090E0DF91CF911F910F91FF90EF90089561
:10046000CF93DF93EC01888D8823C1F0EA89FB8963
:10047000808185FD05C0A889B9898C9186FD0EC053
:100480000FB607FCF5CF808185FFF2CFA889B98927
:100490008C9185FFEDCFCE017CDFE8CFDF91CF914E
:1004A000089580E090E0892B19F06ADF811125C062
:1004B00080E090E0892B41F080E090E0892B21F0F2
:1004C0000E94000081111CC080E090E0892B41F067
:1004D00080E090E0892B21F00E940000811113C080
:1004E00080E090E0892BA1F080E090E0892B81F002
:1004F0000E94000081110AC008950E940000D8CF18
:100500000E940000E1CF0E940000EACF0C9400009E
:1005100008953FB7F8948091EA029091EB02A09180
:10052000EC02B091ED0226B5A89B05C02F3F19F053
:100530000196A11DB11D3FBFBA2FA92F982F882763
:10054000820F911DA11DB11DBC01CD0142E0660FBE
:10055000771F881F991F4A95D1F7089585ED8093DD
:10056000BC008091BC0084FDFCCF1092C3020895B2
:1005700040919D02262F30E0240F311D213231059C
:10058000DCF42091C3022430C9F4FC0180E090E047
:10059000861758F430919D022191DC01A558BD4F7A
:1005A000A30FB11D2C930196F3CF80919D02680F8C
:1005B00060939D0280E0089581E0089582E00895AF
:1005C00008958FEF9FEF08958FEF9FEF089580912B
:1005D0007A0290E09195819591090895CF93DF93E8
:1005E0001F921F92CDB7DEB7CB01642F49835A8388
:1005F000BFDF4981842F5A81952F0F900F90DF9193
:10060000CF910895CF93DF931F92CDB7DEB7698363
:1006100061E0CE010196ACDF81E090E00F90DF91C8
:10062000CF910895089580E090E008950E94642598
:100630001F920F920FB60F9211240BB60F922F93A9
:100640003F934F935F936F937F938F939F93AF935A
:10065000BF93EF93FF9382EF92E09BDEFF91EF91C8
:10066000BF91AF919F918F917F916F915F914F91CA
:100670003F912F910F900BBE0F900FBE0F901F90C8
:1006800018951F920F920FB60F9211240BB60F926E
:100690002F938F939F93EF93FF93E0910203F09139
:1006A00003038081E0910803F091090382FD12C0E9
:1006B000908180910B038F5F8F7320910C038217C1
:1006C00051F0E0910B03F0E0EE50FD4F958F8093D9
:1006D0000B0301C08081FF91EF919F918F912F912A
:1006E0000F900BBE0F900FBE0F901F90189590E0CB
:1006F000FC013197E231F10508F04EC08827E05740
:10070000FF4F8F4F0C944B23809180008F7703C055
:10071000809180008F7D809380000895809180007B
:10072000877FF9CF84B58F7702C084B58F7D84BD74
:1007300008958091B0008F7703C08091B0008F7DC5
:100740008093B0000895809190008F7707C08091CA
:1007500090008F7D03C080919000877F80939000F0
:1007600008958091A0008F7707C08091A0008F7DB1
:1007700003C08091A000877F8093A000089580919E
:1007800020018F7707C0809120018F7D03C0809169
:100790002001877F8093200108951F93CF93DF93DB
:1007A000282F30E0F901E65AFD4F8491F901E65611
:1007B000FE4FD491F901E650FE4FC491CC23C1F015
:1007C000162F811194DFEC2FF0E0EE0FFF1FE052A7
:1007D000FE4FA591B4918FB7F894111105C09C916B
:1007E000ED2FE095E92302C0EC91ED2BEC938FBF48
:1007F000DF91CF911F910895CF93DF9390E0FC019B
:10080000E656FE4F2491FC01E650FE4F849188236A
:1008100061F190E0880F991FFC01E058FE4FC591EF
:10082000D491FC01E052FE4FA591B491611109C031
:100830009FB7F8948881209582238883EC912E239A
:100840000BC0623061F49FB7F8943881822F809595
:1008500083238883EC912E2B2C939FBF06C08FB7E8
:10086000F894E8812E2B28838FBFDF91CF910895D4
:100870008F929F92AF92BF92CF92DF92EF92FF92B0
:100880006B017C0146DE4B015C01C114D104E10423
:10089000F104E9F03EDEDC01CB0188199909AA09CF
:1008A000BB09883E9340A105B10578F321E0C21A47
:1008B000D108E108F10888EE880E83E0981EA11C9B
:1008C000B11CC114D104E104F10421F7DECFFF9083
:1008D000EF90DF90CF90BF90AF909F908F90089552
:1008E0001F920F920FB60F9211242F933F938F9365
:1008F0009F93AF93BF938091EE029091EF02A091EE
:10090000F002B091F1023091E90223E0230F2D377C
:1009100020F40196A11DB11D05C026E8230F029603
:10092000A11DB11D2093E9028093EE029093EF0286
:10093000A093F002B093F1028091EA029091EB0251
:10094000A091EC02B091ED020196A11DB11D809322
:10095000EA029093EB02A093EC02B093ED02BF91F8
:10096000AF919F918F913F912F910F900FBE0F905C
:100970001F9018951F920F920FB60F9211240BB66D
:100980000F922F933F934F935F936F937F938F9328
:100990009F93AF93BF93EF93FF938091B900887FAC
:1009A000803609F49CC068F5883209F45BC090F485
:1009B000803109F454C038F4882309F4F6C0883033
:1009C00009F44DC0F5C0883109F44CC0803209F4F7
:1009D0005DC0EEC0803409F468C048F4803309F487
:1009E00055C0883309F0E4C08093C202D8C0803576
:1009F00009F44FC0883509F45DC0883409F0D8C0C7
:100A0000D6C0883909F4C7C0A8F4883709F467C08C
:100A100038F4883609F463C0803709F460C0C8C070
:100A2000883809F4B8C0803909F45FC0803809F00B
:100A3000BFC05BC0803B09F486C038F4803A09F43B
:100A400066C0883A09F47FC0B3C0803C09F4A7C0EF
:100A5000883C09F4A4C0883B09F48AC0A9C08091ED
:100A6000E80210C09091E7028091E602981770F5B5
:100A7000E091E70281E08E0F8093E702F0E0EA5315
:100A8000FD4F80818093BB0085EC86C08093C202BD
:100A90008EC0E091E70281E08E0F8093E7028091A3
:100AA000BB00F0E0EA53FD4F80839091E702809114
:100AB000E6026EC0E091E70281E08E0F8093E702CC
:100AC0008091BB00F0E0EA53FD4F80838091C50226
:100AD00081116DC081E08093C40284EA61C083E02B
:100AE0008093C3021092C102CFCF8091C1028032A5
:100AF00008F051C0E091C10281E08E0F8093C102E5
:100B00008091BB00F0E0EF55FD4F8083BDCF85ECB9
:100B10008093BC001092C3028091C102803230F4F5
:100B2000E091C102F0E0EF55FD4F10826091C102EB
:100B300070E0E0919F02F091A00281EA92E01995A5
:100B40001092C10235C084E08093C30210929E02CD
:100B500010929D02E0919B02F0919C021995809168
:100B60009D02811105C081E080939D0210927B025D
:100B7000E0919E0281E08E0F80939E02F0E0E558A6
:100B8000FD4F80818093BB0090919E0280919D02D9
:100B9000981708F479CF85E88093BC0009C085ECEC
:100BA0008093BC001092C30203C01092C202D6DC34
:100BB000FF91EF91BF91AF919F918F917F916F9135
:100BC0005F914F913F912F910F900BBE0F900FBEF1
:100BD0000F901F901895EF92FF920F931F93CF9352
:100BE000DF93CDB7DEB76E970FB6F894DEBF0FBEBA
:100BF000CDBFA5D16AE672E0CE0149960E940910E8
:100C000066E472E0CE0101967C010E9409106FE457
:100C100072E0CE0107960E94091068E572E0CE01ED
:100C20000D960E94091061E672E0CE0143960E9483
:100C300009106CE271E080E090E01ADE00E010E064
:100C4000C8010E94B60F8C010E94E50F892BC1F7E5
:100C500064EF71E080E090E00BDE68EC70E080E033
:100C600090E006DE8E01075E1F4F06501109F80165
:100C7000808191810E94E8230E151F05B1F7898DAF
:100C80009A8D0E94E8236E960FB6F894DEBF0FBED1
:100C9000CDBFDF91CF911F910F91FF90EF900895FD
:100CA000682F8091E503813069F0E091E703F091CE
:100CB000E80320819091F5039095922390834091D1
:100CC000E50301C041E080E009C7682F8091E5039A
:100CD000813069F0E091E703F091E8038081909121
:100CE000F503982B90834091E50380E002C041E03A
:100CF00081E0F4C61F93CF93DF931F92CDB7DEB789
:100D0000162F7983CDDF8091E5037981813071F0F1
:100D1000E091E703F091E80380819091F503982B2F
:100D200090834091E503612F872F08C041E0672F32
:100D300081E0D4D64091E503612F81E00F90DF91EF
:100D4000CF911F91CBC6EF92FF920F931F93CF933A
:100D5000DF938C01F62EE72E8091DB03813061F466
:100D60008091E0039091E103EC01C01BD10B062FB1
:100D7000172FF82EE92E02C0C0E0D0E0E091E40386
:100D80008E2F90E0FC013297EE31F10508F0D0C0D3
:100D90008827EE55FF4F8F4F0C944B2360E070E097
:100DA00082E0A8DF60E070E083E0A4DF612F70E004
:100DB00084E0A0DFB80185E09DDF6D2F70E086E064
:100DC00099DFBE0187E096DF6E2D70E041C060E0E4
:100DD000702F84E48FDFBE0185E48CDF6F2D7E2DC4
:100DE00086E488DF60E070E08EE484DFBE018FE49B
:100DF00081DF82E296C060E070E080E27BDFBE01CE
:100E000081E278DF60E070E080E574DFBE0182E5BA
:100E100071DFB80181E56EDF6F2D7E2D83E5E8CFB0
:100E200060E070E082E066DF60E070E083E062DF57
:100E300060E070E084E05EDFB80185E05BDF60E0E9
:100E400070E086E057DFBE0187E054DF60E070E0CD
:100E500088E050DF6F2D7E2D89E0CACF8AE220DF47
:100E600080E033DF802F31DF8BE21ADF8C2F55C01B
:100E70008AE216DF8D2F29DF8C2F27DF8E2D25DFCD
:100E80008F2D23DF8BE20CDF80E01FDF80E01DDF92
:100E9000812F1BDF802F43C060E0702F86E42ADFA4
:100EA0006F2D7E2D87E426DFBE0188E40DC0B801DA
:100EB00086E320DF60E070E087E31CDF6F2D7E2D8E
:100EC00088E318DFBE0189E315DF60E070E080E2AF
:100ED00011DFBE0181E28CCFBE0182E00BDF60E05A
:100EE00070E083E007DF6F2D7E2D86E003DFB80121
:100EF00087E000DF8FE015C08AE2D2DE80E0E5DE29
:100F000080E0E3DE812FE1DE802FDFDE8BE2C8DED2
:100F10008D2FDBDE8C2FD9DE8E2DD7DE8F2DD5DE0B
:100F20008CE2DF91CF911F910F91FF90EF90B8CE9F
:100F3000DF91CF911F910F91FF90EF9008958F92C5
:100F40009F92AF92BF92CF92DF92EF92FF92E09189
:100F5000EB03F091EC0390818091F7038095892356
:100F600080834091DB038091E0039091E103209125
:100F7000DC033091DD03411103C0BC01C90101C094
:100F8000B901E1DE8091E503813049F0E091E703AA
:100F9000F091E80390818091F503892B8083E091A3
:100FA000E5034091DC035091DD036091DE03709115
:100FB000DF038091E0039091E103A091E203B091FF
:100FC000E303E03109F09CC19A01AB012F5F3F4F71
:100FD0004F4F5F4FBC01CD016F5F7F4F8F4F9F4FD2
:100FE0000E94E5226B017C0112B818B820E130E0C4
:100FF00040E050E00E942F2349015A0180E090E038
:10100000DC0188159905AA05BB050CF034C1E091F7
:10101000E903F091EA0330812091F6032095232320
:101020002083E091E903F091EA0330812091F603F7
:10103000232B2083E091E903F091EA033081209192
:10104000F603209523232083E091E903F091EA033E
:1010500030812091F603232B2083E091E903F09166
:10106000EA0330812091F603209523232083E09129
:10107000E903F091EA0330812091F603232B2083CA
:10108000E091E903F091EA0330812091F603209585
:1010900023232083E091E903F091EA03308120913A
:1010A000F603232B2083E091E903F091EA033081DA
:1010B0002091F603209523232083E091E903F0910A
:1010C000EA0330812091F603232B2083E091E9038A
:1010D000F091EA0330812091F603209523232083A9
:1010E000E091E903F091EA0330812091F603232B8C
:1010F0002083E091E903F091EA0330812091F60327
:10110000209523232083E091E903F091EA033081C5
:101110002091F603232B2083E091E903F091EA0369
:1011200030812091F603209523232083E091E90369
:10113000F091EA0330812091F603232B2083E09184
:10114000E903F091EA0330812091F60320952323EF
:101150002083E091E903F091EA0330812091F603C6
:10116000232B2083E091E903F091EA033081209161
:10117000F603209523232083E091E903F091EA030D
:1011800030812091F603232B2083E091E903F09135
:10119000EA0330812091F603209523232083E091F8
:1011A000E903F091EA0330812091F603232B208399
:1011B000E091E903F091EA0330812091F603209554
:1011C00023232083E091E903F091EA033081209109
:1011D000F603232B2083E091E903F091EA033081A9
:1011E0002091F603209523232083E091E903F091D9
:1011F000EA0330812091F603232B2083E091E90359
:10120000F091EA0330812091F60320952323208377
:10121000E091E903F091EA0330812091F603232B5A
:101220002083E091E903F091EA0340813091F603D5
:10123000309534233083E091E903F091EA03208173
:101240003091F603322B3083E091E903F091EA0309
:1012500040813091F603309534233083E091E903E7
:10126000F091EA0320813091F603322B308301960E
:10127000A11DB11DC6CED701C6018F709927AA271F
:10128000BB27892B8A2B8B2B91F4E091EB03F091F8
:10129000EC0390818091F703892B8083FF90EF907E
:1012A000DF90CF90BF90AF909F908F900895C7012F
:1012B000B60120E130E040E050E00E942F23C12C35
:1012C000D12C76016C157D058E059F05F4F2E09119
:1012D000E903F091EA0330812091F603209523235E
:1012E0002083E091E903F091EA0330812091F60335
:1012F000232B20832FEFC21AD20AE20AF20AE2CF8E
:10130000E83009F0CEC29A01AB012F5F3F4F4F4F3B
:101310005F4FBC01CD016F5F7F4F8F4F9F4F0E948A
:10132000E5226B017C0112B820E130E040E050E0A2
:101330000E942F2349015A0180E090E0DC018815CA
:101340009905AA05BB050CF064C2E091E903F09190
:10135000EA0330812091F603209523232083E09136
:10136000E903F091EA0330812091F603232B2083D7
:10137000E091E903F091EA0330812091F603209592
:1013800023232083E091E903F091EA033081209147
:10139000F603232B2083E091E903F091EA033081E7
:1013A0002091F603209523232083E091E903F09117
:1013B000EA0330812091F603232B2083E091E90397
:1013C000F091EA0330812091F603209523232083B6
:1013D000E091E903F091EA0330812091F603232B99
:1013E0002083E091E903F091EA0330812091F60334
:1013F000209523232083E091E903F091EA033081D3
:101400002091F603232B2083E091E903F091EA0376
:1014100030812091F603209523232083E091E90376
:10142000F091EA0330812091F603232B2083E09191
:10143000E903F091EA0330812091F60320952323FC
:101440002083E091E903F091EA0330812091F603D3
:10145000232B2083E091E903F091EA03308120916E
:10146000F603209523232083E091E903F091EA031A
:1014700030812091F603232B2083E091E903F09142
:10148000EA0330812091F603209523232083E09105
:10149000E903F091EA0330812091F603232B2083A6
:1014A000E091E903F091EA0330812091F603209561
:1014B00023232083E091E903F091EA033081209116
:1014C000F603232B2083E091E903F091EA033081B6
:1014D0002091F603209523232083E091E903F091E6
:1014E000EA0330812091F603232B2083E091E90366
:1014F000F091EA0330812091F60320952323208385
:10150000E091E903F091EA0330812091F603232B67
:101510002083E091E903F091EA0330812091F60302
:10152000209523232083E091E903F091EA033081A1
:101530002091F603232B2083E091E903F091EA0345
:1015400030812091F603209523232083E091E90345
:10155000F091EA0330812091F603232B2083E09160
:10156000E903F091EA0330812091F60320952323CB
:101570002083E091E903F091EA0330812091F603A2
:10158000232B2083E091E903F091EA03308120913D
:10159000F603209523232083E091E903F091EA03E9
:1015A00030812091F603232B2083E091E903F09111
:1015B000EA0330812091F603209523232083E091D4
:1015C000E903F091EA0330812091F603232B208375
:1015D000E091E903F091EA0330812091F603209530
:1015E00023232083E091E903F091EA0330812091E5
:1015F000F603232B2083E091E903F091EA03308185
:101600002091F603209523232083E091E903F091B4
:10161000EA0330812091F603232B2083E091E90334
:10162000F091EA0330812091F60320952323208353
:10163000E091E903F091EA0330812091F603232B36
:101640002083E091E903F091EA0330812091F603D1
:10165000209523232083E091E903F091EA03308170
:101660002091F603232B2083E091E903F091EA0314
:1016700030812091F603209523232083E091E90314
:10168000F091EA0330812091F603232B2083E0912F
:10169000E903F091EA0330812091F603209523239A
:1016A0002083E091E903F091EA0330812091F60371
:1016B000232B2083E091E903F091EA03308120910C
:1016C000F603209523232083E091E903F091EA03B8
:1016D00030812091F603232B2083E091E903F091E0
:1016E000EA0330812091F603209523232083E091A3
:1016F000E903F091EA0330812091F603232B208344
:10170000E091E903F091EA0330812091F6032095FE
:1017100023232083E091E903F091EA0330812091B3
:10172000F603232B2083E091E903F091EA03308153
:101730002091F603209523232083E091E903F09183
:10174000EA0330812091F603232B2083E091E90303
:10175000F091EA0330812091F60320952323208322
:10176000E091E903F091EA0330812091F603232B05
:101770002083E091E903F091EA0330812091F603A0
:10178000209523232083E091E903F091EA0330813F
:101790002091F603232B2083E091E903F091EA03E3
:1017A00030812091F603209523232083E091E903E3
:1017B000F091EA0330812091F603232B2083E091FE
:1017C000E903F091EA0340813091F6033095342328
:1017D0003083E091E903F091EA0320813091F60330
:1017E000322B3083E091E903F091EA03408130919C
:1017F000F603309534233083E091E903F091EA0356
:1018000020813091F603322B30830196A11DB11D4A
:1018100096CDD701C6018F709927AA27BB27892BA0
:101820008A2B8B2B09F431CDC701B60120E130E0C2
:1018300040E050E00E942F23C12CD12C76016C1582
:101840007D058E059F050CF420CDE091E903F09114
:10185000EA0330812091F603209523232083E09131
:10186000E903F091EA0330812091F603232B2083D2
:10187000E091E903F091EA0330812091F60320958D
:1018800023232083E091E903F091EA033081209142
:10189000F603232B20832FEFC21AD20AE20AF20AA0
:1018A000CECFC12CD12C76018091DC039091DD0349
:1018B000A091DE03B091DF039C01AD012F5F3F4F8C
:1018C0004F4F5F4F8091E0039091E103A091E203BD
:1018D000B091E303BC01CD016F5F7F4F8F4F9F4FEE
:1018E0000E94E522C616D706E806F9060CF0CDCC14
:1018F0004091E503413019F060E080E008C041E02C
:1019000060E081E0EBD04091E50360E081E0E6D06B
:101910008FEFC81AD80AE80AF80AC6CFCF92DF922A
:10192000EF92FF920F931F932FB7F894C090EE029F
:10193000D090EF02E090F002F090F1022FBFDC01B6
:10194000CB018C0D9D1DAE1DBF1D4FB7F8940091AE
:10195000EE021091EF022091F0023091F1024FBFA0
:101960000C151D052E053F0528F080179107A207CD
:10197000B30758F71F910F91FF90EF90DF90CF9032
:1019800008958F929F92AF92BF92CF92DF92EF9283
:10199000FF920F931F93CF93DF93CDB7DEB7A1973D
:1019A0000FB6F894DEBF0FBECDBF6C01990FEE08E5
:1019B000FF08F7FE32C0E091F202F091F3020190CD
:1019C000F081E02D6DE282EF92E019958C012227E3
:1019D0003327A9012C193D094E095F0919A2CE012F
:1019E00081967C019AE0892E912CA12CB12CCA0100
:1019F000B901A50194010E94F422605DF701629390
:101A00007F01211531054105510589F7BF0182EF9D
:101A100092E04BD3080F191F1FC0A701960119A20E
:101A20008E010F5D1F4F8AE0C82ED12CE12CF12CC6
:101A3000CA01B901A70196010E94F422605DF80174
:101A400062938F01211531054105510589F7BF01C9
:101A500082EF92E02AD38C0169E372E082EF92E098
:101A600024D3800F911FA1960FB6F894DEBF0FBE4E
:101A7000CDBFDF91CF911F910F91FF90EF90DF903D
:101A8000CF90BF90AF909F908F900895E2EFF2E0DB
:101A9000A089B18982E08C93A485B5851C92A68526
:101AA000B78580E18C93108EA489B58986E08C93EC
:101AB000A289B3898C9180618C93A289B3898C911E
:101AC00088608C93A289B3898C9180688C930288FA
:101AD000F389E02D80818F7D80830895483009F45B
:101AE00048C118F4413041F00895403109F457C11C
:101AF000413109F468C108959091E603943019F5D5
:101B0000E091EF03F091F0039091F903813019F423
:101B10008081982B03C08081909598239083E091D9
:101B2000F103F091F20390818091FA03809589236B
:101B30008083E091F103F091F20390818091FA03A8
:101B4000892B80830FC0E091E703F091E803909127
:101B5000F503813019F48081982B03C08081909522
:101B600098239083E091EF03F091F0038091F903C3
:101B7000908167FF02C0892B02C0809589238083F2
:101B8000E091F103F091F20390818091FA03809546
:101B900089238083E091F103F091F2039081809199
:101BA000FA03892B8083E091EF03F091F003809199
:101BB000F903908166FF02C0892B02C080958923BA
:101BC0008083E091F103F091F20390818091FA0318
:101BD000809589238083E091F103F091F203908155
:101BE0008091FA03892B8083E091EF03F091F00359
:101BF0008091F903908165FF02C0892B02C0809516
:101C000089238083E091F103F091F2039081809128
:101C1000FA03809589238083E091F103F091F20328
:101C200090818091FA03892B8083E091EF03F091FA
:101C3000F0038091F903908164FF02C0892B02C0F8
:101C4000809589238083E091F103F091F2039081E4
:101C50008091FA03809589238083E091F103F091CC
:101C6000F20390818091FA03892B8083E091EF0346
:101C7000F091F0038091F903908163FF02C0892BFA
:101C800002C0809589238083E091F103F091F203F3
:101C900090818091FA03809589238083E091F103FC
:101CA000F091F20390818091FA03892B8083E09177
:101CB000EF03F091F0038091F903908162FF02C07D
:101CC000892B02C0809589238083E091F103F091F4
:101CD000F20390818091FA03809589238083E091BB
:101CE000F103F091F20390818091FA03892B8083B4
:101CF000E091EF03F091F0038091F903908161FF8F
:101D000002C0892B02C0809589238083E091F10372
:101D1000F091F20390818091FA038095892380836A
:101D2000E091F103F091F20390818091FA03892B05
:101D30008083E091EF03F091F0038091F9039081AB
:101D400060FF02C0892B02C0809589238083E091C7
:101D5000F103F091F20390818091FA038095892339
:101D60008083E091F103F091F20390818091FA0376
:101D7000CFC082B9E091E903F091EA0390818091AC
:101D8000F603809589238083E091E903F091EA03CB
:101D900090818091F603892B808362B902C082B959
:101DA00068B9E091E903F091EA0390818091F6032C
:101DB000809589238083E091E903F091EA03908183
:101DC0008091F603A5C0A59824B3982F9071990F20
:101DD000922B94BB90910201977E90930201909177
:101DE0000201282F082E000C330B207C332743E000
:101DF000359527954A95E1F7292B209302019EB14D
:101E0000947C9EB92EB1382F3C70330F330F982F2E
:101E10009370390F8072082E000C990B9595879559
:101E200095958795830F822B8EB9E091F303F091FE
:101E3000F40390818091FB03809589238083E09156
:101E4000F303F091F40390818091FB03892B80834D
:101E5000E091F303F091F40390818091FB0380956E
:101E600089238083E091EB03F091EC0390818091D2
:101E7000F703809589238083A59894B3862F80717A
:101E8000880F892B84BB80910201877E8093020199
:101E900020910201862F062E000C990B807C992739
:101EA00073E0959587957A95E1F7822B80930201EF
:101EB0008EB1847C8EB98EB1962F9C70990F990F3C
:101EC000262F2370920F6072062E000C770B7595EB
:101ED000679575956795690F682B6EB9E091E90371
:101EE000F091EA0390818091F603809589238083A5
:101EF000E091E903F091EA0390818091F603892B48
:101F00008083E091EB03F091EC0390818091F703E3
:101F1000892B80830895CF92DF92EF92FF920F93E7
:101F20001F93CF93DF936C017A018B01C0E0D0E067
:101F3000CE15DF0589F0D8016D918D01D601ED91A7
:101F4000FC910190F081E02DC6011995892B11F4C7
:101F50007E0102C02196ECCFC701DF91CF911F9186
:101F60000F91FF90EF90DF90CF90089520917B002C
:101F7000277F20937B0021E420937C0020917A002E
:101F8000206420937A0020917A0026FDFCCF2091D6
:101F900078004091790030E0342B2F3E42E0340746
:101FA00028F0823091054CF4019607C02A3F310594
:101FB00020F4181619060CF40197E3DC64EF71E0C5
:101FC00080E090E00C9438040895CF93DF93ECE523
:101FD000F2E08491ECE9F1E0D491ECEFF1E0C4910E
:101FE000CC2391F081110E947703EC2FF0E0EE0FEB
:101FF000FF1FE05CFD4FA591B491EC91ED2381E0D2
:1020000090E021F480E002C080E090E0DF91CF9189
:102010000895EF92FF920F931F93CF93DF93EC01FC
:10202000198218821B821A821D821C826115710519
:10203000A9F17B01FB0101900020E9F731978F01A5
:10204000061B170BB8016F5F7F4F80E090E00E9486
:102050008024009759F0998388831B830A832C81FD
:102060003D81232B81F4FC0110820DC08881998170
:10207000009711F00E94E823198218821D821C82A9
:102080001B821A820BC01D830C83B701DF91CF9195
:102090001F910F91FF90EF900C947125DF91CF91DC
:1020A0001F910F91FF90EF9008956115710579F0E0
:1020B000FB0101900020E9F73197AF01461B570B58
:1020C000DC01ED91FC910280F381E02D199480E018
:1020D00090E00895CF93DF93CDB7DEB76E970FB63C
:1020E000F894DEBF0FBECDBF789484B5826084BD06
:1020F00084B5816084BD85B5826085BD85B581600C
:1021000085BD80916E00816080936E001092810089
:102110008091810082608093810080918100816044
:102120008093810080918000816080938000809105
:10213000B10084608093B1008091B0008160809391
:10214000B000809191008260809391008091910015
:1021500081608093910080919000816080939000D5
:102160008091A10082608093A1008091A100816094
:102170008093A1008091A00081608093A000809155
:1021800021018260809321018091210181608093EF
:1021900021018091200181608093200180917A004B
:1021A000846080937A0080917A00826080937A00C4
:1021B00080917A00816080937A0080917A008068B3
:1021C00080937A001092C1001092D3031092D4032E
:1021D0001092D5031092D60310929103109292039D
:1021E000109293031092940368EB7BE080E090E000
:1021F00095DB82EF92E09093D2038093D10346DC8B
:102200002FB7F8948091EE029091EF02A091F00226
:10221000B091F1022FBF8093910390939203A0930A
:102220009303B09394036AE272E08091D10390919A
:10223000D2033BDF6AE070E080E090E06FDB11E00A
:102240001093A50360E082E00E94FC0361E082E05D
:102250000E94CD031BDC1093DB0361E08091FC0343
:102260000E94FC0361E08091FD030E94FC0361E099
:102270008091FE030E94FC038091FF038F3F19F0C1
:1022800061E00E94FC038091E503813131F08130EF
:1022900049F48091E603853029F461E080910004DF
:1022A0000E94FC038091E503813079F0813131F0A7
:1022B0009FEF91B9803149F497B907C088E18093C5
:1022C000010180E283BB8BE38DB9E091ED03F091D6
:1022D000EE0390818091F803892B808365E070E0A4
:1022E00080E090E00E943804E091ED03F091EE036D
:1022F00090818091F8038095892380836FE070E05E
:1023000080E090E00E943804E091ED03F091EE034C
:1023100090818091F803892B80836FE070E080E0EA
:1023200090E00E943804E091EB03F091EC0390817F
:102330008091F703809589238083E091E4038E2FB9
:1023400090E0FC013297EE31F10510F00C9467211A
:102350008827EE58FF4F8F4F0C944B2361E070E0BD
:1023600080E00E947A0664EA78EA83E00E947A06B6
:1023700060E070E08CE00E947A066CE078E08DE02E
:102380000E947A0660E07BE28EE00E947A0667EBAC
:1023900070E08EE10E947A066FE37BE281E00E94AA
:1023A0007A0660E076E082E00E947A0660E070E003
:1023B00080E10E947A0660E770E681E10E947A0679
:1023C00060E070E085E00E947A0660E070E086E000
:1023D0000E947A066CE17FEE86E10E947A0663E055
:1023E00070E087E10E947A0663E372E087E00E9472
:1023F0007A0660E070E08BE00E947A0660E070E0B0
:102400008FE00E947A0660E070E081E40E947A0624
:1024100060E070E082E40E947A0660E070E088E4A8
:102420000E947A066FE371E089E40E947A0660E018
:1024300070E08AE40E947A0660E070E08BE40E941B
:102440007A0660E07FEE84E40E947A0660E070E045
:1024500085E40E947A066FE371E086E40E947A06C2
:1024600067E077E080E30E947A0664E072E081E34F
:102470000E947A0664E072E082E30E947A0662E0DB
:1024800075E083E30E947A0667E075E084E30E94CA
:102490007A0664E072E085E30E947A0664E072E006
:1024A00086E30E947A0662E075E087E30E947A067E
:1024B00062E073E08AE30E947A0662E073E08BE3F5
:1024C0000E947A0660E070E083E20E947A0660E093
:1024D00070E084E20E947A0660E070E885E20E9483
:1024E0007A0660E070E08FE40E947A0660E070E0B7
:1024F0008EE40C947B1C60EF78E785EE0E947A06F0
:1025000060E071E081E00E947A0660E072E082E0C3
:102510000E947A0660E370E183E00E947A0660E040
:1025200070E084E00E947A0667E072E088E00E9432
:102530007A0660E070E089E00E947A0660E070E070
:102540008AE00E947A0660E070E08CE00E947A06E1
:1025500060E070E08DE00E947A0660E070E08FE05D
:102560000E947A0660E070E080E10E947A0667E0EF
:1025700070E081E10E947A0660E070E082E10E94F2
:102580007A0660E070E083E10E947A0661E070E024
:1025900087E00E947A0668EC70E080E090E00E949C
:1025A000380460E976E180E10E947A0667E272E031
:1025B00081E10E947A0662E370E080E090E00E9490
:1025C00038046DE070E082E10E947A0662E370E018
:1025D00080E090E00E94380460E072E183E10E94B4
:1025E0007A066AE070E089E20E947A066DE070E0A7
:1025F0007DC060EF78E785EE0E947A0660E071E0CA
:1026000081E00E947A0660E077E082E00E947A062C
:1026100060E370E183E00E947A0660E070E084E0AD
:102620000E947A0667E072E088E00E947A0660E025
:1026300070E089E00E947A0660E070E08AE00E9423
:102640007A0660E070E08CE00E947A0660E070E05C
:102650008DE00E947A0660E070E08FE00E947A06CA
:1026600060E070E080E10E947A0667E070E081E15E
:102670000E947A0660E070E082E10E947A0660E0E3
:1026800070E083E10E947A0661E070E087E00E94DA
:102690007A0668EC70E080E090E00E94380460E91F
:1026A00075E180E10E947A0667E272E081E10E94B2
:1026B0007A0662E370E080E090E00E9438046CE902
:1026C00070E082E10E947A0662E370E080E090E0D0
:1026D0000E94380460E079E183E10E947A0663E2B7
:1026E00070E089E20E947A066EE070E08BE20E9460
:1026F0007A0662E370E080E090E00E94380460E0D7
:1027000070E080E20E947A0660E070E081E20E9460
:102710007A0660E070E080E30E947A0664E074E08C
:1027200081E30E947A0663E070E082E30E947A0609
:1027300065E074E085E30E947A0668E078E086E36D
:102740000E947A0667E074E087E30E947A0663E0FD
:1027500073E088E30E947A0667E077E089E30E94ED
:102760007A0664E075E08CE30E947A0668E078E01F
:102770008DE30E947A0660E070E080E50E947A06B0
:102780006FEE70E081E50E947A0660E070E082E51D
:102790000E947A066FE371E083E50E947A0660E0AA
:1027A00077EA80E60E947A0661E070E081E60E94A6
:1027B0007A0660E070E08AE60E947A0660E070E0E7
:1027C00080E80E947A0660E070E081E80E947A0664
:1027D00060E070E082E80E947A0660E070E083E8E2
:1027E0000E947A0660E070E084E80E947A0660E069
:1027F00070E085E80E947A0660E170E080E90E945E
:102800007A0660E070E082E90E947A0663E371E094
:1028100087E00E947A060C94672164E870E086E203
:102820000E947A0668E270E080E090E00E9438043E
:1028300068EB70E086E20E947A0668E270E080E071
:1028400090E00E9438046CEB70E086E20E947A0609
:1028500064E170E080E090E00E94380460E070E0A5
:1028600080E60E947A0666E070E081E60E947A06C1
:1028700060E070E082E60E947A0668EC70E083E631
:102880000E947A0664E170E080E090E00E943804E3
:1028900060E770E083E70E947A0660E070E080E421
:1028A0000E947A0660E470E081E40E947A0665E4A2
:1028B00070E082E40E947A0661E070E083E40E94A6
:1028C0007A0660E670E084E40E947A0665E070E0D3
:1028D00085E40E947A066CE070E086E40E947A0645
:1028E00061ED70E087E40E947A0665E070E088E4BC
:1028F0000E947A0665E770E080E50E947A0661E052
:1029000070E081E50E947A0667E670E082E50E9449
:102910007A0664E170E083E50E947A0662EF70E077
:1029200084E50E947A0667E070E085E50E947A06F9
:1029300063E070E086E50E947A0669E470E087E56E
:102940000E947A0664E170E080E090E00E94380422
:1029500063E070E08FE10E947A0660E070E080E260
:102960000E947A0664E270E084E20E947A0664E3E0
:1029700070E085E20E947A066FE270E083E20E94D6
:102980007A0664E170E080E090E00E94380464E43C
:1029900070E088E10E947A0661E070E081E20E94C6
:1029A0007A0660E070E081E00E947A0663E070E001
:1029B0008CE10E947A0666E070E089E10E947A0666
:1029C00064E170E080E090E00E94380464E870E028
:1029D00086E20E947A0668E270E080E090E00E9461
:1029E000380468EB70E086E20E947A0668E270E0E4
:1029F00080E090E00E9438046CEB70E086E20E9478
:102A00007A0664E170E080E090E00E94380460E0C3
:102A100070E082E00E947A0660E070E083E00E944D
:102A20007A0660E070E084E00E947A066FEA70E067
:102A300085E00E947A0660E070E086E00E947A06F7
:102A400060E070E087E00E947A0660E070E088E075
:102A50000E947A066BED70E089E00E947A0664E1DC
:102A600070E080E090E00E94380468E070E086E169
:102A70000E947A0665E070E087E10E947A0681E2B2
:102A80000E94500682E20E9450060C94672181E168
:102A90000E9450066CE070E080E090E00E943804F4
:102AA00081EB0E94500681E00E9465068CE20E9444
:102AB00065068DE20E94650682EB0E94500681E069
:102AC0000E9465068CE20E9465068DE20E94650602
:102AD00083EB0E94500681E00E9465068CE20E9412
:102AE00065068DE20E94650681E00E9465068CE223
:102AF0000E9465068DE20E94650684EB0E945006E6
:102B000087E00E94650680EC0E94500682EA0E94DF
:102B1000650682E00E94650684E80E94650681ECF5
:102B20000E94500685EC0E94650682EC0E945006C9
:102B30008AE00E94650680E00E94650683EC0E94A0
:102B400050068AE80E9465068AE20E94650684ECC7
:102B50000E9450068AE80E9465068EEE0E94650675
:102B600085EC0E9450068EE00E94650686E30E9476
:102B7000500688EC73C081E10E9450066CE070E062
:102B800080E090E00E94380481EB0E94500681E0D2
:102B90000E9465068CE20E9465068DE20E94650631
:102BA00082EB0E94500681E00E9465068CE20E9442
:102BB00065068DE20E94650683EB0E94500681E067
:102BC0000E9465068CE20E9465068DE20E94650601
:102BD00081E00E9465068CE20E9465068DE20E94FB
:102BE000650684EB0E94500687E00E94650680EC33
:102BF0000E94500682EA0E94650682E00E946506F5
:102C000084E80E94650681EC0E94500685EC0E94D3
:102C1000650682EC0E9450068AE00E94650680E00C
:102C20000E94650683EC0E9450068AE80E946506B1
:102C30008AE20E94650684EC0E9450068AE80E949F
:102C400065068EEE0E94650685EC0E9450068EE0B9
:102C50000E94650686E30E94500680EC0E9465068D
:102C600080EE0E9450068FE00E9465068AE10E9475
:102C700065068FE00E94650688E10E9465068FE286
:102C80000E94650688E20E94650680E20E94650651
:102C900082E20E9465068FE10E9465068BE10E9438
:102CA000650683E20E94650687E30E94650680E070
:102CB0000E94650687E00E94650682E00E94650624
:102CC00080E10E94650681EE0E9450068FE00E941E
:102CD00065068BE10E9465068FE00E94650687E12C
:102CE0000E94650683E30E9465068CE20E946506E9
:102CF00089E20E9465068EE20E94650680E30E94DA
:102D0000650680E30E94650689E30E9465068FE3FD
:102D10000E94650680E00E94650687E00E946506C5
:102D200083E00E94650680E10E9465068AE20E94B7
:102D3000500680E00E94650680E00E94650680E003
:102D40000E9465068FE70E9465068BE20E9450068E
:102D500080E00E94650680E00E94650680E00E9497
:102D600065068FE90E94650680EF0E94500681E0AB
:102D70000E94650686EF0E94500680E098C681E0BA
:102D80000E94500685E20E94500680E40E9465067B
:102D900081E10E9450066AE070E080E090E00E94CD
:102DA000380480E20E94500688E30E94500689E2BF
:102DB0000E94500683E10E94500686E30E9450065E
:102DC00080E60E9465068AE30E94500685E00E9424
:102DD00065068AE20E94500680E00E9465068FE741
:102DE0000E94650684EB0E94500683E00E946506FF
:102DF00088E00E9465068BE00E9465068EE00E94D6
:102E000065068AEB0E94500687E00E9465068DE009
:102E10000E9465068BE20E94500680E00E946506D3
:102E20008FE7FAC183E80E94500682E00E9465069F
:102E300085E80E94500683E00E9465068BE80E94A8
:102E4000500681E00E9465068CE80E94500683E9E6
:102E50000E94650681E90E94500681E00E94650695
:102E600083E80E94500680E00E9465068EE30E947F
:102E7000500680EB0E9465068FE30E94500683E0B7
:102E80000E94650680E40E94500680E10E9465066B
:102E900081E40E94500686E50E94650682E40E9455
:102EA000500683E10E94650683E40E94500686E492
:102EB0000E94650684E40E94500683E20E94650633
:102EC00085E40E94500686E70E94650686E40E941B
:102ED000500680E00E94650687E40E9450068EE559
:102EE0000E94650688E40E9450068FE40E946506F1
:102EF00089E40E94500680E40E94650687E10E94F2
:102F0000500681E90E9465068BE20E94500689EF17
:102F10000E9465066AE070E080E090E00E9438045C
:102F20008BE10E94500684E10E9465068AE10E94BE
:102F3000500681E10E9465068CE10E94500686E001
:102F40000E9465068FE10E94500682E40E94650699
:102F500064E170E080E090E00E94380489E10E9422
:102F600050068AE00E94650689E10E9450068AE1C7
:102F70000E94650668E270E080E090E00E943804FC
:102F800089E10E94500682E10E94650668E270E0D5
:102F900080E090E00E9438048EE10E94500687E2B3
:102FA0000E94650664E670E080E090E00E943804CC
:102FB00084E20E94500680E60E9465068DE30E942E
:102FC000500680E40E94650684E30E94500688E370
:102FD0000E94650685E30E94500688E30E9465060C
:102FE00084E20E94500688E30E94650668E270E071
:102FF00080E090E00E94380484E20E9450068CE356
:103000000E94650686E10E9450068CE10E946506DA
:1030100081E00E94500686E00E94650685E50E94D8
:10302000500680E00E94650682E00E94500680E023
:103030000E94650683E00E94500680E00E946506BB
:1030400084E00E94500680E00E94650685E00E94B0
:1030500050068FEE0E94650686E00E94500680E0D2
:103060000E94650687E00E94500680E00E94650687
:1030700088E00E94500681E00E94650689E00E9477
:1030800050068FE80E946506FDCC82EE0E94500635
:1030900083E20E94650682E00E94650684E50E9444
:1030A000650680EE0E94500681E00E9465066AE097
:1030B00070E080E090E00E94380480EE0E945006AC
:1030C00083E00E9465066AE070E080E090E00E9484
:1030D000380481E00E94500664E670E080E090E0F1
:1030E0000E94380486EE0E94500681E00E94650628
:1030F0008FE10E9465068FEF0E94650680EB0E94BB
:10310000500680E20E94650680E00E94650681E02C
:103110000E9465068FED0E94650681E00E946506AB
:103120008FE00E94650680E00E94650684EB0E94A5
:10313000500682E00E94650683E10E94650680E0F9
:103140000E94650688E00E9465068BE20E94650683
:1031500080E00E94650682E00E94650680E00E9491
:10316000650686EB0E94500681E00E94650680E2BB
:103170000E94650680E00E94650684E00E94650664
:103180008CE00E94650680E00E94650682E00E9455
:1031900065068AEB0E9450068FE00E94650688EB68
:1031A0000E94500687E00E94650681E00E94650645
:1031B00086E30E94500682E20E94650680EF0E942C
:1031C000500683E00E94650661E070E080E090E0D8
:1031D0000E9438046FE071E08FED91E00E94A30639
:1031E00089E20E9450068EEB0E94500686E00E9403
:1031F000650680EF0E94650681E00E94650680EF0B
:103200000E94650680E00E94650680E00E946506D7
:1032100080ED0E9450068DE00E94650689C782EE0F
:103220000E9450068EE10E94650682E00E946506BB
:1032300084E50E94650680EE0E94500681E00E94AF
:1032400065066AE070E080E090E00E94380480EE5D
:103250000E94500683E00E9465066AE070E080E00C
:1032600090E00E94380481E00E94500664E670E01D
:1032700080E090E00E94380486EE0E94500683E0D1
:103280000E9465068FEF0E9465068FEF0E9465061B
:1032900080EB0E94500684E20E94650680E00E9456
:1032A000650683E00E9465068FE10E94650681E065
:1032B0000E9465068FED0E94650680E00E9465060B
:1032C00084EB0E94500683E00E94650680EA0E941B
:1032D000650680E00E9465068EE20E94650680E336
:1032E0000E94650680E00E9465068FE00E946506E8
:1032F00080E00E94650686EB0E94500682E00E94F4
:1033000065068DE00E94650680E00E94650680E10A
:103310000E94650680E10E94650680E00E946506C5
:1033200088E00E9465068AEB0E9450068FE00E94AA
:10333000650688EB0E94500687E00E94650681E0E2
:103340000E94650686E30E94500682E20E9465069E
:1033500080EF0E94500683E00E94650661E070E005
:1033600080E090E0A3C082EE0E94500683E20E94BB
:10337000650682E00E94650684E00E94650680EE94
:103380000E94500681E00E9465066AE070E080E0DD
:1033900090E00E94380480EE0E94500683E00E9474
:1033A00065066AE070E080E090E00E94380481E009
:1033B0000E94500664E670E080E090E00E943804CD
:1033C00086EE0E94500684E00E94650683E90E9412
:1033D000650680EE0E94650680EB0E94500680E044
:1033E0000E94650680E00E94650683E00E946506F3
:1033F0008FE10E94650681E00E9465068FED0E94C4
:10340000650680E00E94650684EB0E94500683E01A
:103410000E94650680EA0E94650680E00E946506BB
:103420008EE20E94650680E30E94650680E00E94AD
:1034300065068FE00E94650680E00E94650686EBC7
:103440000E94500682E00E9465068DE00E9465069B
:1034500080E00E94650680E10E94650680E10E948E
:10346000650680E00E94650688E00E9465068AEB9A
:103470000E94500685E00E94650688EB0E94500677
:1034800087E00E94650681E00E94650686E30E944F
:10349000500682E20E94650680EF0E94500683E09B
:1034A0000E9465066AE070E080E090E00E943804C7
:1034B0006FED71E08FE193E091CE64E070E281E125
:1034C0000E947A0660E07CEC83E10E947A0660E06C
:1034D00076E285E10E947A066AE275E284E10E9462
:1034E0007A0663E370E082E10E947A0664E07CEC95
:1034F00083E10E947A0666E07CEC83E10E947A0612
:103500006FE47CEC83E10E947A066FE477E683E166
:103510000E947A0663E070E281E10E947A0669E027
:1035200076E280E30E947A066CE274E281E30E9414
:103530007A0663E27FE182E30E947A0665E274E242
:1035400083E30E947A0666E272E284E30E947A06CE
:1035500063E275E285E30E947A066AE17CE186E334
:103560000E947A066DE173E187E30E947A0661E1C9
:103570007BE088E30E947A0660E172E189E30E94C1
:103580007A0665E173E18AE30E947A0669E176E3EF
:103590008BE30E947A0660E07DE08CE30E947A066D
:1035A0006DE070E08DE30E947A0667E070E086E1EE
:1035B0000E947A0663E170E082E00E947A0663E08E
:1035C00070E083E00E947A0667E271E081E00E9489
:1035D0007A0663E073E088E00E947A066BE070E0B0
:1035E0008AE00E947A0663E070E08BE00E947A062F
:1035F00060E070E08CE00E947A0660E070E081E4B8
:103600000E947A0660E070E080E50E947A0665E03C
:1036100070E080E60E947A066BE070E080E70E942E
:103620007A0660E070E081E70E947A0660E070E070
:1036300088E70E947A0660E070E08AE70E947A06D6
:1036400067E070E089E70E947A0661E570E087E054
:103650000E947A0663E570E087E00E947A0660E0E7
:1036600070E089E748C181E10E94500664E170E0A2
:1036700080E090E00E94380480ED0E94500687E0D0
:103680000E94650682E40E94650688E10E94650644
:1036900081ED0E94500680E00E94650687E00E944E
:1036A000650680E10E94650682ED0E94500681E079
:1036B0000E94650682E00E94650680EC0E9450062A
:1036C00080E10E9465068BE30E94650680E00E940F
:1036D000650682E00E94650681E10E94650685EC30
:1036E0000E94500683E00E94650688EC0E94500606
:1036F00080E00E94650682E30E94650686E30E94E0
:10370000650685E40E94650686E00E94650686E1FE
:103710000E94650687E30E94650685E70E946506AC
:1037200087E70E94650684E50E9465068CE00E949A
:10373000650680E00E94650686E30E9450068AE0E6
:103740000E9465068AE30E94500685E50E94650690
:103750008AE20E94500680E00E94650680E00E9496
:10376000650681E00E9465068FE30E9465068BE294
:103770000E94500680E00E94650680E00E94650677
:1037800081E00E94650680EE0E94650668E770E0B1
:1037900080E090E00E94380492C16AE170E081E12B
:1037A0000E947A0661E271E382E10E947A066CE689
:1037B00070E083E10E947A0669E472E484E10E9489
:1037C0007A0660E078E080E10E947A066AE070E0C4
:1037D00080E090E00E9438046AE171E081E10E949B
:1037E0007A066AE070E080E090E00E9438046AE1C6
:1037F00073E081E10E947A066AE070E080E090E088
:103800000E9438046AE177E081E10E947A066AE06A
:1038100070E080E090E00E9438046AE17FE081E19E
:103820000E947A066AE070E080E090E00E9438042E
:103830006AE37FE081E10E947A066EE170E080E059
:1038400090E00E9438046CE171E081E00E947A0609
:1038500060E071E082E00E947A0660E370E183E05C
:103860000E947A0660E070E087E00E947A0668E0D5
:1038700078E088E00E947A0660E071E18BE00E94C7
:103880007A0660E070E08CE00E947A0661E074E104
:103890008FE00E947A0660E070E085E10E947A067F
:1038A00060E070E080E20E947A0660E070E081E211
:1038B0000E947A066FEA70E086E30E947A0660E072
:1038C00070E087E30E947A066BED70E088E30E9467
:1038D0007A0660E070E089E30E947A0661E07BE0AE
:1038E0008FE00E947A0666E170E087E00E947A0627
:1038F00067E170E087E00E947A06C4C881E10E9417
:10390000500668E770E080E090E00E94380481EBA8
:103910000E94500685E00E9465068CE30E946506C1
:103920008CE30E94650682EB0E94500685E00E94AF
:1039300065068CE30E9465068CE30E94650683EBB6
:103940000E94500685E00E9465068CE30E94650691
:103950008CE30E94650685E00E9465068CE30E9468
:1039600065068CE30E94650684EB0E94500683E0A6
:103970000E94650680EC0E94500688E20E9465065F
:1039800088E00E94650684E00E94650681EC0E9442
:10399000500680EC0E94650682EC0E9450068DE085
:1039A0000E94650680E00E94650683EC0E94500636
:1039B0008DE80E9465068AE20E94650684EC0E94FA
:1039C00050068DE80E9465068EEE0E94650685EC25
:1039D0000E9450068AE10E94650686E30E94500616
:1039E00080EC0E94650680EE0E94500683E00E94F3
:1039F000650682E20E94650687E00E9465068AE00D
:103A00000E9465068EE20E94650680E30E946506BC
:103A100085E20E9465068AE20E94650688E20E94AD
:103A2000650686E20E9465068EE20E9465068AE3CC
:103A30000E94650680E00E94650681E00E9465069E
:103A400083E00E94650683E10E94650681EE0E9484
:103A5000500684E00E94650686E10E94650686E0C5
:103A60000E9465068DE00E9465068DE20E94650653
:103A700086E20E94650683E20E94650687E20E9454
:103A8000650687E20E94650685E20E9465068DE272
:103A90000E9465068BE30E94650680E00E94650631
:103AA00081E00E94650684E00E94650683E10E9431
:103AB00065068AE30E94500685E00E94650689E259
:103AC0000C94431581E10E94500664E170E080E0AF
:103AD00090E00E94380488E20E94500665E070E0A1
:103AE00080E090E00E9438048FEC0E94500680E055
:103AF0000E94650683E80E94650680E30E946506D1
:103B00008DEE0E94500684E60E94650683E00E94C6
:103B1000650682E10E94650681E80E94650688EEDE
:103B20000E94500685E80E94650681E00E946506B5
:103B300089E70E9465068BEC0E94500689E30E948B
:103B400065068CE20E94650680E00E94650684E3BB
:103B50000E94650682E00E94650687EF0E9450067B
:103B600080E20E9465068AEE0E94500680E00E9474
:103B7000650680E00E94650680EC0E94500686E2A1
:103B80000E94650681EC0E94500681E10E94650654
:103B900085EC0E94500685E30E9465068EE30E9434
:103BA000650687EC0E9450068EEB0E94650681EB4D
:103BB0000E94500680E00E9465068BE10E94650627
:103BC00086EB0E9450068AE00E94650682E80E9409
:103BD000650687E20E94650680E00E94650687EB25
:103BE0000E94500687E00E9465068AE30E94500604
:103BF00085E50E94650686E30E94500688E40E94DF
:103C0000650689E20E94500665E070E080E090E081
:103C10005CC38BEC0E94500689E30E9465068CE22F
:103C20000E94650680E00E94650684E30E946506A6
:103C300082E00E9465068FEC0E94500680E00E94A0
:103C4000650681EC0E94650680E30E94650688EEA9
:103C50000E94500685E80E94650680E00E94650685
:103C600088E70E9465068AEE0E94500680E00E9466
:103C7000650680E00E9465068DEE0E94500684E68F
:103C80000E94650683E00E94650682E10E94650647
:103C900081E80E94650687EF0E94500680E20E943C
:103CA000650680EC0E94500683E20E94650681EC66
:103CB0000E94500680E10E94650685EC0E94500635
:103CC0008EE30E94650688E20E94650687EC0E94EA
:103CD000500686E80E94650686E30E94500688E446
:103CE0000E9465068AE30E94500685E50E946506EB
:103CF00081EB0E94500680E00E94650688E10E94E8
:103D0000650686EB0E94500688E00E94650682E800
:103D10000E94650687E20E94650681E10E945006C6
:103D200068E770E080E090E0FEC180EB0E94500602
:103D30008EE10E94650680EB0E94500680E00E94A2
:103D4000650683EB0E94500682E00E94650680E0D3
:103D50000E94650680E00E94650680E10E9465067B
:103D600084EB0E94500680E00E94650680EC0E9471
:103D7000500683E00E9465068BE30E94650680E0A2
:103D80000E94650680E00E94650680E00E9465064C
:103D900081E00E94650680E00E94650683E40E943F
:103DA000650681EC0E94500688E00E94650685E168
:103DB0000E94650688E00E94650688E00E9465060C
:103DC00084EC0E94500685E10E94650683E00E9413
:103DD000650683E00E94650681E00E94650686EC28
:103DE0000E94500682E00E94650688EC0E94500600
:103DF0008CE00E94650685E00E9465068AE00E94CC
:103E000065068BE60E94650684E00E94650686E0F2
:103E10000E94650685E10E94650680E10E946506B4
:103E200080E00E94650680E60E94650686E30E94A7
:103E300050068AE00E9465068CE00E94500685E5E7
:103E40000E9465068AE30E94500685E50E94650689
:103E500088E30E94500680ED0E94500687E00E9491
:103E6000650687E00E94650684E10E94650682EA95
:103E70000E94650681ED0E94500683E00E9465065F
:103E80008AE50E94650680E10E94650682ED0E9437
:103E9000500683E00E94650684E00E94650684E087
:103EA0000E94650681E10E94500666E970E080E0AC
:103EB00090E00E9438048AE20E94500680E00E944E
:103EC000650680E00E94650681E00E9465068FED30
:103ED0000E9465068BE20E94500680E00E94650603
:103EE00080E00E94650681E00E9465068FE30E94E3
:103EF000650664E670E080E090E00E94380489E2A4
:103F00000E9450066EE170E080E090E00E9438046C
:103F10008CE20E9450066EE170E080E090E0D5C136
:103F200081E10E94500662E370E080E090E00E9430
:103F3000380482EF0E9450068CE10E94650683EAF5
:103F40000E94650682E30E94650682E00E94650683
:103F500082EB0E94650682E10E9465068FEF0E9457
:103F6000650682E10E94650680E00E94650681EF99
:103F70000E94500686E30E94650684EA0E94650658
:103F800088EF0E94500681E20E94650684E00E944C
:103F9000650689EF0E94500680E00E94650688E071
:103FA0000E94650680EC0E9450068DE00E94650626
:103FB0008DE00E94650681EC0E94500683E40E9419
:103FC000650680E00E94650682EC0E94500680E053
:103FD0000E94650685EC0E94500680E00E946506FE
:103FE00088E40E94650686EB0E94500680E00E94ED
:103FF000650682E20E9465068BE30E94650680EEFC
:104000000E9450068FE00E94650684E20E946506C9
:104010008CE10E9465068AE00E9465068FE00E949E
:10402000650688E00E94650683E40E94650688E8CC
:104030000E94650682E30E9465068FE00E94650685
:1040400080E10E94650686E00E9465068FE00E947E
:10405000650687E00E94650680E00E94650681EEA5
:104060000E9450068FE00E94650688E30E94650664
:1040700080E30E94650689E00E9465068FE00E9449
:1040800065068FE00E9465068EE40E94650687E75C
:104090000E9465068CE30E94650687E00E94650623
:1040A00080E10E94650685E00E94650683E20E9429
:1040B00065068BE10E94650680E00E94650680E24D
:1040C0000E94500680E00E94650686E30E9450062A
:1040D0008AE00E9465068AE30E94500685E50E94F8
:1040E00065068AE20E94500680E00E94650680E034
:1040F0000E94650681E00E9465068FED0E946506BC
:104100008BE20E94500680E00E94650680E00E94DB
:10411000650681E00E9465068FE30E94650662E302
:1041200070E080E090E00E94380489E20E9450062E
:104130008CE20C9443158091DB03813019F41092CA
:10414000DB0303C081E08093DB038FE00E94500615
:1041500060E170E081E00E947A068FE00C944315E4
:1041600089EB0E9450068FEF0E94650683E80E944B
:10417000650683E50E94650680EB0E9450068CE38D
:104180000E94650681E00E94650686EB0E9450064B
:1041900084E90E9465068CE60E94650680E50E941F
:1041A000650681EB0E94500680E00E94650681E072
:1041B0000E9465068BE10E94650683E00E94650609
:1041C00081E00E94650688E00E94650687E70E94FC
:1041D000650689E80E94650680EE0E94500680E52B
:1041E0000E94650687E70E94650680E40E946506D6
:1041F00088E00E9465068FEB0E94650680E00E94C1
:10420000650683E00E9465068FE00E94650680E0F7
:104210000E94650681E00E94650683E70E946506AC
:1042200080E00E94650682E70E94650683E00E94A6
:10423000650680EB0E9465068FE00E94650688E0B7
:104240000E94650680E00E9465068FE00E94650678
:104250008AE30E94500685E00E94650686E30E947C
:10426000500680EC0E94650681E10E94500666E9D6
:1042700070E080E090E00E94380489E20E945006DD
:1042800066E970E080E090E00E9438048DE20E94D0
:10429000500610E0812F0E9465061E5F1034D1F792
:1042A00010E0812F0E9465061F5F1034D1F710E0E7
:1042B000812F0E9465061E5F1034D1F78CE20E94A8
:1042C000500666E970E080E090E00E943804E091DA
:1042D000EB03F091EC0390818091F703892B8083AD
:1042E0008FEF8093D7038093D8031092D903109255
:1042F000DA031092070410920204109201040E9443
:104300009F07CE0101967C0168EE73E080E090E0AB
:104310000E9438040E949F076CE372E0CE01499628
:104320000E94091066E472E0C7010E9409106FE460
:1043300072E0CE0107960E94091068E572E0CE0196
:104340000D960E94091061E672E0CE0143960E942C
:1043500009106CE271E080E090E00E94380400E017
:1043600010E0C8010E94B60F8C010E94E50F892B56
:10437000C1F70E94E50F0E94C10C64EF71E080E07C
:1043800090E00E943804012B11F40E94EB0568ECC8
:1043900070E080E090E00E9438048E01075E1F4FBD
:1043A00006501109F8018081918112D20E151F0566
:1043B000B9F7898D9A8D0CD268EE73E080E090E0B9
:1043C0000E9438040E94EB050E9451029DCF10927A
:1043D000F5021092F40288EE93E0A0E0B0E0809342
:1043E000F6029093F702A093F802B093F9022AE044
:1043F00032E03093F3022093F20225EC30E0309368
:10440000FF022093FE0224EC30E03093010320935E
:10441000000320EC30E0309303032093020321ECEF
:1044200030E0309305032093040322EC30E0309316
:1044300007032093060326EC30E030930903209312
:10444000080310920B0310920C0310920D031092AC
:104450000E031092950310929603109297031092F8
:1044600098031092990310929A0310929B03109252
:104470009C0310929D0310929E0310929F03109232
:10448000A0031092A1031092A2031092A303109212
:10449000A40310920B0410920A0480930C049093CE
:1044A0000D04A0930E04B0930F048CE192E090935E
:1044B0000904809308048FEE90E0A0E0B0E08093C0
:1044C000DC039093DD03A093DE03B093DF038FE35F
:1044D00091E0A0E0B0E08093E0039093E103A0932B
:1044E000E203B093E30380E18093E50382E08093ED
:1044F000E40396E29093FC0397E29093FD0398E225
:104500009093FE0399E29093FF03109200049FEFB3
:1045100091B997B9E0E2F2E0E491F0E0EE0FFF1F0D
:10452000E052FE4F259134913093E8032093E70346
:10453000E0ECF1E0E491E093F503E1E2F2E0E491F4
:10454000F0E0EE0FFF1FE052FE4F259134913093C3
:10455000EA032093E903E1ECF1E0E491E093F60350
:10456000E2E2F2E0E491F0E0EE0FFF1FE052FE4FD6
:10457000259134913093EC032093EB03E2ECF1E0CE
:10458000E491E093F703E3E2F2E0E491F0E0EE0F70
:10459000FF1FE052FE4F259134913093EE0320939C
:1045A000ED03E3ECF1E0E491E093F80396E09093FF
:1045B000270495E09093280494E09093290493E0D5
:1045C00090932A0480932B040895DB018F939F938B
:1045D0002DD0BF91AF91A29F800D911DA39F900DF3
:1045E000B29F900D11240895A1E21A2EAA1BBB1BA5
:1045F000FD010DC0AA1FBB1FEE1FFF1FA217B307AF
:10460000E407F50720F0A21BB30BE40BF50B661FC4
:10461000771F881F991F1A9469F760957095809588
:1046200090959B01AC01BD01CF01089509D0A59FD4
:10463000900DB49F900DA49F800D911D112408959D
:10464000A29FB001B39FC001A39F700D811D1124D3
:10465000911DB29F700D811D1124911D0895052E8D
:1046600097FB16F400940FD057FD05D0BDDF07FC73
:1046700002D046F408C050954095309521953F4FA3
:104680004F4F5F4F089590958095709561957F4F3E
:104690008F4F9F4F0895EE0FFF1F881F8BBF07900E
:1046A000F691E02D1994CF93DF938230910510F4A9
:1046B00082E090E0E0915104F091520420E030E07B
:1046C000C0E0D0E0309711F140815181481759077F
:1046D000C0F04817590761F482819381209719F03F
:1046E0009B838A832BC0909352048093510426C0ED
:1046F0002115310519F04217530718F49A01BE012C
:10470000DF01EF010280F381E02DDCCF21153105BF
:1047100009F1281B390B2430310590F412968D9144
:104720009C9113976115710521F0FB01938382839E
:1047300004C09093520480935104FD01329644C00A
:10474000FD01E20FF31F81939193225031092D93C4
:104750003C933AC020914F0430915004232B41F4F4
:1047600020910202309103023093500420934F04B1
:1047700020910002309101022115310541F42DB73D
:104780003EB74091040250910502241B350BE09185
:104790004F04F0915004E217F307A0F42E1B3F0BD7
:1047A0002817390778F0AC014E5F5F4F24173507A3
:1047B00048F04E0F5F1F5093500440934F04819375
:1047C000919302C0E0E0F0E0CF01DF91CF91089536
:1047D0000F931F93CF93DF93009709F48CC0FC01D4
:1047E00032971382128200915104109152040115E4
:1047F000110581F420813181820F931F20914F0494
:10480000309150042817390779F5F0935004E0935C
:104810004F0471C0D80140E050E0AE17BF0750F41C
:1048200012962D913C911397AD012115310509F197
:10483000D901F3CF9D01DA01338322836081718135
:10484000860F971F8217930769F4EC01288139813D
:10485000260F371F2E5F3F4F318320838A819B8134
:1048600093838283452B29F4F0935204E0935104FF
:1048700042C01396FC93EE931297ED014991599122
:104880009E01240F351FE217F30771F48081918197
:10489000840F951F029611969C938E93828193812B
:1048A00013969C938E931297E0E0F0E0D801129655
:1048B0008D919C911397009719F0F8018C01F6CF18
:1048C0008D919C9198012E5F3F4F820F931F2091F5
:1048D0004F04309150042817390769F4309729F4B0
:1048E000109252041092510402C01382128210934B
:1048F000500400934F04DF91CF911F910F910895C1
:104900006F927F928F929F92AF92BF92CF92DF92DF
:10491000EF92FF920F931F93CF93DF93EC010097D9
:1049200081F4CB01DF91CF911F910F91FF90EF9018
:10493000DF90CF90BF90AF909F908F907F906F90BF
:10494000B2CEFC01E60FF71F9C0122503109E2179D
:10495000F30708F4A8C0D9010D911C91119706170F
:104960001707A8F00530110508F49BC0C80104978B
:104970008617970708F495C002501109061B170BFC
:10498000019311936D937C93CF0122DF8AC05B0169
:10499000A01AB10A4C01800E911EA0915104B09151
:1049A000520440E050E0E12CF12C109709F44AC089
:1049B000A815B905D1F56D907C901197630182E03F
:1049C000C80ED11CCA14DB0480F1A3014A195B098B
:1049D0006A0182E0C80ED11C1296BC901297139601
:1049E000AC91B5E0CB16D10440F0B282A3835183E1
:1049F0004083D9016D937C930AC00E5F1F4FC301A2
:104A0000800F911FF90191838083EB2DFA2FE11420
:104A1000F10431F0D7011396FC93EE93129741C045
:104A2000F0935204E09351043CC08D919C911197F6
:104A30004817590708F4AC017D0112960D90BC91FE
:104A4000A02DB3CF80914F04909150048815990503
:104A5000E1F446175707C8F48091000290910102D3
:104A6000009741F48DB79EB7409104025091050222
:104A7000841B950BE817F907B0F4F0935004E0930A
:104A80004F04F901718360830CC0CB010CDE7C0103
:104A9000009749F0A801BE011BD0CE0199DEC701E5
:104AA00004C0CE0102C080E090E0DF91CF911F9161
:104AB0000F91FF90EF90DF90CF90BF90AF909F90BD
:104AC0008F907F906F90089581E090E0F89410C0EF
:104AD000FB01DC0102C001900D9241505040D8F71B
:104AE0000895FB01DC0101900D920020E1F708958B
:044AF000F894FFCF68
:104AF40000005304800000000000EA018B0F8301D2
:104B04003002B4019201A601000000000203EE028B
:104B14001303E002E702E402E102564D4450565FFB
:104B2400317C315F564D4450560D0A004D61696E1B
:104B3400204D656E75004F7074696F6E2031004FA3
:104B44007074696F6E2032004F7074696F6E203319
:104B5400004F7074696F6E2034005365636F6E6428
:0A4B6400617279204D656E75000046
:020000023000CC
:10E000000D9489F10D94B2F10D94B2F10D94B2F129
:10E010000D94B2F10D94B2F10D94B2F10D94B2F1F0
:10E020000D94B2F10D94B2F10D94B2F10D94B2F1E0
:10E030000D94B2F10D94B2F10D94B2F10D94B2F1D0
:10E040000D94B2F10D94B2F10D94B2F10D94B2F1C0
:10E050000D94B2F10D94B2F10D94B2F10D94B2F1B0
:10E060000D94B2F10D94B2F10D94B2F10D94B2F1A0
:10E070000D94B2F10D94B2F10D94B2F10D94B2F190
:10E080000D94B2F10D94B2F10D94B2F10D94B2F180
:10E090000D94B2F10D94B2F10D94B2F10D94B2F170
:10E0A0000D94B2F10D94B2F10D94B2F10D94B2F160
:10E0B0000D94B2F10D94B2F10D94B2F10D94B2F150
:10E0C0000D94B2F10D94B2F10D94B2F10D94B2F140
:10E0D0000D94B2F10D94B2F10D94B2F10D94B2F130
:10E0E0000D94B2F141546D656761323536300041AF
:10E0F000726475696E6F206578706C6F72657220DE
:10E1000073746B3530305632206279204D4C530099
:10E11000426F6F746C6F616465723E004875683F52
:10E1200000436F6D70696C6564206F6E203D200048
:10E130004350552054797065202020203D20005FF9
:10E140005F4156525F415243485F5F3D2000415658
:10E1500052204C696243205665723D20004743437C
:10E160002056657273696F6E203D20004350552024
:10E1700049442020202020203D20004C6F7720663D
:10E18000757365202020203D20004869676820665F
:10E190007573652020203D200045787420667573D6
:10E1A00065202020203D20004C6F636B2066757336
:10E1B000652020203D20004D617220203720323024
:10E1C000313300312E362E3800342E332E350056A2
:10E1D00023202020414444522020206F7020636F70
:10E1E00064652020202020696E73747275637469E1
:10E1F0006F6E2061646472202020496E74657272B3
:10E20000757074006E6F20766563746F7200726A49
:10E210006D702020006A6D70200057686174207056
:10E220006F72743A00506F7274206E6F7420737541
:10E2300070706F72746564004D7573742062652030
:10E2400061206C6574746572002000577269747483
:10E25000696E672045450052656164696E672045B7
:10E26000450045452065727220636E743D00504F35
:10E27000525400303D5A65726F2061646472003FF1
:10E280003D43505520737461747300403D454550C3
:10E29000524F4D207465737400423D426C696E6B41
:10E2A000204C454400453D44756D70204545505215
:10E2B0004F4D00463D44756D7020464C415348001B
:10E2C000483D48656C70004C3D4C69737420492F83
:10E2D0004F20506F72747300513D51756974005234
:10E2E0003D44756D702052414D00563D73686F7707
:10E2F00020696E7465727275707420566563746FF0
:10E30000727300593D506F727420626C696E6B00BD
:10E310002A0011241FBECFEFD1E2DEBFCDBF01E046
:10E320000CBF12E0A0E0B2E0EEE1FDEF03E00BBFB6
:10E3300002C007900D92A030B107D9F712E0A0E01B
:10E34000B2E001C01D92AE30B107E1F70F9460F367
:10E350000D948DFE01E20EBF0FEF0DBF11241FBE05
:10E360000D9460F30D9400F020E030E040ED57E0B4
:10E3700005C0FA013197F1F72F5F3F4F2817390792
:10E38000C0F308959C01260F311DC901A0E0B0E043
:10E390002F5F3F4FABBFFC018791882361F08093D3
:10E3A000C6008091C00086FFFCCF8091C0008064D1
:10E3B0008093C000EACF08958DE08093C6008091DD
:10E3C000C00086FFFCCF8091C00080648093C000B5
:10E3D0008AE08093C6008091C00086FFFCCF8091C8
:10E3E000C00080648093C00008950F94C2F10F9420
:10E3F000DCF10895FC019081992359F09093C600B7
:10E400008091C00086FFFCCF8091C0008064809323
:10E41000C0003196992379F70895282F982F929567
:10E420009F70892F805D8A3308F0895F8093C600D2
:10E430008091C00086FFFCCF8091C00080648093F3
:10E44000C000822F8F70982F905D9A3308F0995FEB
:10E450009093C6008091C00086FFFCCF8091C000E1
:10E4600080648093C00008959C01FB01853691056E
:10E470001CF46330710594F0C90164E670E00F94F8
:10E480002EFE605D7F4F6093C6008091C00086FFC6
:10E49000FCCF8091C00080648093C0002B30310598
:10E4A00014F43297B4F0C90164E670E00F942EFEC4
:10E4B0006AE070E00F942EFE605D7F4F6093C600AF
:10E4C0008091C00086FFFCCF8091C0008064809363
:10E4D000C000C9016AE070E00F942EFEC0968093E0
:10E4E000C6008091C00086FFFCCF8091C000806490
:10E4F0008093C00008951F93182F8EE692EE60E07F
:10E500000F94C2F11093C6008091C00086FFFCCF2B
:10E510008091C00080648093C0000F94DCF11F9153
:10E5200008952F923F924F925F926F927F928F92B7
:10E530009F92AF92BF92CF92DF92EF92FF920F9392
:10E540001F93DF93CF93CDB7DEB762970FB6F894E2
:10E55000DEBF0FBECDBF382E622ECA01DB015C01CB
:10E560006D01772420E2222E2E010894411C511CBB
:10E570008BC081E0A81680E0B80681E0C80680E084
:10E58000D80628F0C601AA27BB270F940DF2BB2797
:10E59000AD2D9C2D8B2D0F940DF28A2D0F940DF225
:10E5A0002092C6008091C00086FFFCCF8091C00001
:10E5B00080648093C0009DE29093C6008091C0006B
:10E5C00086FFFCCF8091C00080648093C0002092C1
:10E5D000C6008091C00086FFFCCF8091C00080649F
:10E5E0008093C00019828601750188249924A1E0D6
:10E5F0003A1651F03A1620F0B2E03B1661F409C029
:10E600000BBFF701779007C0C7010F9477FE782EF4
:10E6100002C0F7017080872D0F940DF22092C60082
:10E620008091C00086FFFCCF8091C0008064809301
:10E63000C000872D8052F401EF70F0708F3520F408
:10E64000E40DF51D708204C0E40DF51D8EE280839B
:10E650000894E11CF11C011D111D0894811C911CE2
:10E6600090E18916910409F0C2CF80E190E0A0E02A
:10E67000B0E0A80EB91ECA1EDB1E198AC2010F9493
:10E68000FAF10F94DCF16A94662009F072CF629679
:10E690000FB6F894DEBF0FBECDBFCF91DF911F91B3
:10E6A0000F91FF90EF90DF90CF90BF90AF909F9031
:10E6B0008F907F906F905F904F903F902F90089534
:10E6C0002F923F924F925F926F927F928F929F9282
:10E6D000AF92BF92CF92DF92EF92FF920F931F9370
:10E6E000DF93CF93CDB7DEB7CD53D1400FB6F894BB
:10E6F000DEBF0FBECDBF01E20EBF0FEF0DBF94B75F
:10E70000F894A89514BE80916000886180936000A1
:10E7100010926000789493FF05C0E0910002F091A0
:10E7200001021995279A2F9A8091C00082608093E8
:10E73000C00080E18093C40088E18093C1000000A4
:10E74000EE24FF24870144E0A42EB12CCC24DD2448
:10E7500024C0C5010197F1F70894E11CF11C011DCB
:10E76000111D21E2E2162EE4F20620E0020720E06D
:10E77000120718F031E0C32ED12CC801B70127ECE5
:10E780003BE140E050E00F9441FE611571058105C9
:10E79000910519F485B1805885B98091C00087FD35
:10E7A00003C0C114D104A9F2A6014F5F5F4FC25E3E
:10E7B000DE4F59834883CE51D140C25EDE4F8881FF
:10E7C0009981CE51D140019711F00D9410FEC05D9A
:10E7D000DE4F19821882C053D14060E0C15DDE4F28
:10E7E0001882CF52D14088249924C35DDE4F19820C
:10E7F0001882CD52D140C05EDE4F188219821A8233
:10E800001B82C052D140CE5CDE4F188219821A8220
:10E810001B82C253D140EE24FF2487010BBFF701B6
:10E8200007911691C45CDE4F19830883CC53D14005
:10E830000D940BFEC25EDE4F28813981CE51D1404E
:10E840002130310509F52091C600C25EDE4F1982E4
:10E850001882CE51D14022C02F5F3F4F4F4F5F4FA4
:10E86000213082E138078AE7480780E0580780F0C6
:10E87000C45CDE4FE881F981CC53D140EF5FFF4F9C
:10E8800019F0EE27FF27099420E030E040E050E047
:10E890008091C00087FFE0CF2091C600C35DDE4FAE
:10E8A00048815981CD52D1404F5F5F4FC35DDE4FEC
:10E8B00059834883CD52D140213209F063C64A3092
:10E8C000510508F05FC60894811C911C53E0851621
:10E8D000910409F059C600E010E018C081E280936D
:10E8E000C6008091C00086FFFCCF8091C00080648C
:10E8F0008093C0002F5F3F4F2931310579F70F9486
:10E90000DCF10F5F1F4F0530110519F020E030E0FA
:10E91000E5CF10920A0210920B0210920C02109294
:10E920000D02109206021092070210920802109235
:10E930000902109202021092030210920402109235
:10E9400005028FEE90EE60E00F94F5F180E191EE1C
:10E9500060E00F94C2F18091C00087FFFCCF9091DE
:10E96000C600903608F09F759032B8F09093C600BC
:10E970008091C00086FFFCCF8091C00080648093AE
:10E98000C000A0E2A093C6008091C00086FFFCCF2B
:10E990008091C00080648093C000983409F4D7C18E
:10E9A0009934B8F4923409F459C1933458F490333B
:10E9B00019F1903308F4E3C59F33A1F1903409F0C5
:10E9C000DEC5BDC0953409F470C1963409F0D7C5D1
:10E9D00098C1923509F42BC2933538F49C3409F46C
:10E9E000F5C1913509F0CBC518C2963509F445C279
:10E9F000993509F0C4C567C483E792EE62E00F94CD
:10EA0000F5F110920602109207021092080210927D
:10EA1000090210920A0210920B0210920C0210923C
:10EA20000D0213C18FE792EE62E00F94F5F18FEEC5
:10EA300090EE60E00F94F5F181E291EE60E00F94CA
:10EA4000C2F187EB91EE60E00F94F5F180E391EE77
:10EA500060E00F94C2F184EE90EE60E00F94F5F167
:10EA60008FE391EE60E00F94C2F186E090E061E008
:10EA700070E00F9434F20F94DCF18DE591EE60E0DC
:10EA80000F94C2F189EC91EE60E00F94F5F18EE401
:10EA900091EE60E00F94C2F183EC91EE60E00F9490
:10EAA000F5F18CE691EE60E00F94C2F18EE10F94E7
:10EAB0000DF288E90F940DF281E00F940DF20F949E
:10EAC000DCF18BE791EE60E00F94C2F119E0E0E039
:10EAD000F0E010935700E4918E2F0F940DF20F94F5
:10EAE000DCF18AE891EE60E00F94C2F1E3E0F0E03F
:10EAF00010935700E4918E2F0F940DF20F94DCF1D8
:10EB000089E991EE60E00F94C2F1E2E0F0E0109349
:10EB10005700E4918E2F0F940DF20F94DCF188EAE8
:10EB200091EE60E00F94C2F1E1E0F0E01093570045
:10EB30001491812F0F940DF20F94DCF107CF8BE825
:10EB400092EE62E00F94F5F18BE492EE60E00F94A8
:10EB5000F5F10F94DCF100E010E019C0C8016F2D51
:10EB60000F947FFEFF2031F489E492EE60E00F9471
:10EB7000C2F10BC0F092C6008091C00086FFFCCFAE
:10EB80008091C00080648093C0000F5F1F4FC80158
:10EB900081519F41A0E0B0E0ABBFFC01F790BAE229
:10EBA000FB1621F0E2E000301E07C1F60F94DCF105
:10EBB0000F94DCF187E592EE60E00F94F5F10F948D
:10EBC000DCF1CC24DD2400E010E01EC0C8010F946D
:10EBD00077FEF82E882331F489E492EE60E00F94FA
:10EBE000C2F10BC08093C6008091C00086FFFCCFAD
:10EBF0008091C00080648093C000FE1419F00894D6
:10EC0000C11CD11C0F5F1F4FC80181519F41A0E063
:10EC1000B0E0ABBFFC01E790FAE2EF1621F022E092
:10EC20000030120799F60F94DCF10F94DCF182E6C4
:10EC300092EE60E00F94C2F1C60161E070E00F94C3
:10EC400034F20F94DCF10F94DCF110920202109276
:10EC50000302109204021092050278CE89E992EE26
:10EC600062E00F94F5F1279A2F9A16C02F9880E052
:10EC700090E0E0EDF7E03197F1F7019684369105E9
:10EC8000C1F72F9A80E090E0E0EDF7E03197F1F7DF
:10EC9000019684369105C1F78091C00087FFE6CFC9
:10ECA0008091C00087FFFCCF64C485EA92EE62E0E9
:10ECB0000F94F5F140910202509103026091040219
:10ECC0007091050281E020E10F9491F2809102029F
:10ECD00090910302A0910402B091050280509F4FD1
:10ECE000AF4FBF4F8093020290930302A0930402A0
:10ECF000B093050280509041A040B04008F426CE69
:10ED0000A4CF83EB92EE62E00F94F5F140910602FE
:10ED100050910702609108027091090280E020E1A1
:10ED20000F9491F28091060290910702A09108023F
:10ED3000B091090280509F4FAF4FBF4F80930602A2
:10ED400090930702A0930802B0930902FFCD80ECD4
:10ED500092EE62E00F94F5F183E792EE60E00F949B
:10ED6000F5F18FE792EE60E00F94F5F18BE892EE0B
:10ED700060E00F94F5F189E992EE60E00F94F5F10F
:10ED800085EA92EE60E00F94F5F183EB92EE60E09D
:10ED90000F94F5F180EC92EE60E00F94F5F187ECC2
:10EDA00092EE60E00F94F5F188ED92EE60E00F9442
:10EDB000F5F18FED92EE60E00F94F5F18AEE92EEB0
:10EDC00060E00F94F5F183E093EEBDCD87EC92EE19
:10EDD00062E00F94F5F181E40F947BF282E40F94EA
:10EDE0007BF283E40F947BF284E40F947BF285E45E
:10EDF0000F947BF286E40F947BF287E40F947BF20E
:10EE000088E40F947BF28AE40F947BF28BE40F94F6
:10EE10007BF28CE40F947BF299CD88ED92EE62E068
:10EE20000F94F5F1772473948824992409C48FED05
:10EE300092EE62E00F94F5F140910A0250910B02BC
:10EE400060910C0270910D0282E020E10F9491F22A
:10EE500080910A0290910B02A0910C02B0910D02D8
:10EE600080509F4FAF4FBF4F80930A0290930B0289
:10EE7000A0930C02B0930D0269CD8AEE92EE62E08F
:10EE80000F94F5F184EE90EE60E00F94F5F18FECC5
:10EE900091EE60E00F94F5F1662477244301CC5D98
:10EEA000DE4F19821882C452D140D401C301B695F5
:10EEB000A79597958795CA5DDE4F88839983AA8326
:10EEC000BB83C652D140CC5DDE4FA881B981C4520C
:10EED000D1401196CC5DDE4FB983A883C452D14096
:10EEE000CD0162E070E00F9434F2B0E2B093C6005E
:10EEF0008091C00086FFFCCF8091C0008064809329
:10EF0000C000EDE2E093C6008091C00086FFFCCF18
:10EF10008091C00080648093C000F0E2F093C6004E
:10EF20008091C00086FFFCCF8091C00080648093F8
:10EF3000C000CA5DDE4FE880F9800A811B81C6529D
:10EF4000D140BB27A12F902F8F2D0F940DF2CA5DBA
:10EF5000DE4F8881C652D1400F940DF2B0E2FB2EF5
:10EF6000F092C6008091C00086FFFCCF8091C00067
