:1000000042C7000071C700006FC700006DC7000045
:100010006BC7000069C7000067C7000065C7000024
:1000200063C7000061C700005FC700005DC7000034
:100030005BC7000059C7000057C7000055C7000044
:1000400053C7000051C700004FC700004DC7000054
:100050004BC7000049C7000047C700000C946D253E
:1000600043C700000C94E0230C94B7233DC7000065
:100070003BC7000039C7000037C7000035C7000084
:1000800033C7000031C700002FC700002DC7000094
:100090002BC7000029C7000027C700000C94B72514
:1000A00023C7000021C700001FC700001DC70000B4
:1000B0001BC7000019C7000017C7000015C70000C4
:1000C00013C7000011C700000FC700000DC70000D4
:1000D0000BC7000009C7000007C7000005C70000E4
:1000E00003C7000052080F181F091F09B10A0F1893
:1000F000B60DEB0B630D0F18E90EB70F05110511C7
:100100005208B1140F1852085B10DB119D097512CB
:100110002613B1140A143D153816431758175F0CEF
:1001200031243424232427242D246B2438243C24F4
:10013000422446244A245024542458246B245E2408
:10014000622466245F29182A762976298B29182AA1
:100150004629FA29A929182AB329B329C729C72961
:100160005F29FA29182A5F29B329FA297629D5297E
:10017000FA29FA29FA29FA29FA29EA29FA29FA2977
:10018000000020002300260029002C002F00320050
:10019000000100000301060109011010205F0000AA
:1001A000000000000000000000000000000000004F
:1001B000000000000000000000000000000000003F
:1001C000000007000F800F800F800F800F80070056
:1001D0000700000000000700070007000000000003
:1001E0000E380E380E380E380630000000000000C1
:1001F00000000000000000000000000000000000FF
:100200000C300C300C307FFE7FFE0C300C300C308C
:100210000C307FFE7FFE0C300C300C3000000000F4
:10022000024002400FF81FF81A401A401FF00FF862
:10023000025802581FF81FF0024002400000000060
:10024000000000000E100E300E7000E001C00380B0
:1002500007000E700C700870000000000000000025
:1002600000000F001980198019800F000F080F98E7
:1002700019F818F018E019F00F98000000000000BD
:1002800000000700070007000E000000000000004B
:10029000000000000000000000000000000000005E
:1002A000000000F001C0038007000E000E000E00E9
:1002B0000E000700038001C000F0000000000000F5
:1002C00000000F00038001C000E0007000700070AB
:1002D000007000E001C003800F000000000000007B
:1002E000000001801188099007E007E03FFC3FFC17
:1002F00007E007E00990118801800000000000007D
:100300000000000000000180018001800FF00FF06C
:10031000018001800180000000000000000000005A
:1003200000000000000000000000000000000000CD
:10033000000000000700070007000E00000000009A
:100340000000000000000000000000001FF81FF87F
:10035000000000000000000000000000000000009D
:10036000000000000000000000000000000000008D
:100370000000000007000700070000000000000068
:10038000000000020006000E001C0038007000E0B3
:1003900001C0038007000E001C00000000000000E8
:1003A00000000FF01C381C781CF81CF81DB81DB894
:1003B0001F381F381E381C380FF0000000000000E6
:1003C00000000180018003801F801F800380038064
:1003D00003800380038003801FF000000000000002
:1003E00000000FE01C701C380038007000E001C0F5
:1003F000038007000E381C381FF8000000000000C2
:1004000000000FE01C701C380038007003C003C0EF
:10041000007000381C381C700FE000000000000065
:10042000000000E001E003E006E00CE018E01FF847
:100430001FF800E000E000E003F80000000000000A
:1004400000001FF81C001C001C001C001FE01FF017
:10045000007800381C381C700FE00000000000001D
:10046000000003E007000E001C001C001FF01FF836
:100470001C381C381C381C380FF00000000000002D
:1004800000001FFC1C1C1C1C1C1C001C00380070E5
:1004900000E001C003800380038000000000000032
:1004A00000000FF01C381C381C381F3807E007E02C
:1004B0001CF81C381C381C380FF00000000000002D
:1004C00000000FF01C381C381C381C381FF80FF8BF
:1004D00000380038007000E007C000000000000095
:1004E0000000000000000380038003800000000083
:1004F0000380038003800000000000000000000073
:100500000000000000000380038003800000000062
:10051000038003800380070000000000000000004B
:10052000007000E001C0038007000E001C001C00EA
:100530000E000700038001C000E000700000000012
:1005400000000000000000003FFC3FFC0000000035
:100550003FFC3FFC00000000000000000000000025
:100560001C000E000700038001C000E00070007056
:1005700000E001C0038007000E001C000000000026
:1005800003C00FF01E7818380038007000E001C07A
:1005900001C00000000001C001C001C00000000057
:1005A0000FF81C1C1C1C1C1C1C1C1CFC1CFC1CFC1C
:1005B0001CFC1C001C001C001FF007F800000000C1
:1005C000000003C007E00E701C381C381C381C38B3
:1005D0001FF81C381C381C381C38000000000000B4
:1005E00000001FF00E380E380E380E380FF00FF0E6
:1005F0000E380E380E380E381FF0000000000000D4
:10060000000007F00E381C381C001C001C001C00E9
:100610001C001C001C380E3807F000000000000011
:1006200000001FE00E700E380E380E380E380E38EF
:100630000E380E380E380E701FE00000000000006B
:1006400000001FF80E180E080E000E300FF00FF00D
:100650000E300E000E080E181FF8000000000000FB
:1006600000001FF80E180E080E000E300FF00FF0ED
:100670000E300E000E000E001F00000000000000F3
:10068000000007F00E381C381C381C001C001C0031
:100690001CF81C381C380E3807F800000000000059
:1006A00000001C701C701C701C701C701FF01FF070
:1006B0001C701C701C701C701C700000000000007E
:1006C00000000FE003800380038003800380038029
:1006D00003800380038003800FE00000000000001F
:1006E000000001FC0070007000700070007000706D
:1006F00038703870387038700FE00000000000006B
:1007000000001E380E380E700EE00FC00F800F80F4
:100710000FC00EE00E700E381E3800000000000002
:1007200000001F000E000E000E000E000E000E0056
:100730000E000E080E180E381FF800000000000012
:1007400000001C1C1E3C1F7C1FFC1FFC1DDC1C9C95
:100750001C1C1C1C1C1C1C1C1C1C00000000000081
:1007600000001C1C1C1C1E1C1F1C1F9C1DDC1CFCD8
:100770001C7C1C3C1C1C1C1C1C1C000000000000E1
:10078000000003E007F00E381C1C1C1C1C1C1C1C69
:100790001C1C1C1C0E3807F003E0000000000000C9
:1007A00000001FF00E380E380E380E380FF00FF024
:1007B0000E000E000E000E001F00000000000000E2
:1007C000000003E00F780E381C1C1C1C1C1C1C1C99
:1007D0001C7C1CFC0FF80FF8003800FC0000000027
:1007E00000001FF00E380E380E380E380FF00FF0E4
:1007F0000E700E380E380E381E3800000000000053
:1008000000000FF01C381C381C381C000FE007F0EB
:1008100000381C381C381C380FF0000000000000A5
:1008200000001FFC19CC11C401C001C001C001C0EF
:1008300001C001C001C001C007F0000000000000BD
:1008400000001C701C701C701C701C701C701C70D4
:100850001C701C701C701C700FE000000000000079
:1008600000001C701C701C701C701C701C701C70B4
:100870001C701C700EE007C0038000000000000028
:1008800000001C1C1C1C1C1C1C1C1C1C1C9C1C9CE0
:100890001C9C0FF80FF807700770000000000000A4
:1008A00000001C701C701C700EE007C003800380E9
:1008B00007C00EE01C701C701C70000000000000DF
:1008C00000001C701C701C701C701C700EE007C0B7
:1008D00003800380038003800FE00000000000001D
:1008E00000001FF81C381838107000E001C00380A9
:1008F00007000E081C181C381FF80000000000003C
:10090000000007F0070007000700070007000700C6
:10091000070007000700070007F0000000000000C4
:100920000000100018001C000E000700038001C02A
:1009300000E000700038001C00070000000000000C
:10094000000007F000700070007000700070007010
:10095000007000700070007007F0000000000000E0
:10096000018003C007E00E701C380000000000008A
:100970000000000000000000000000000000000077
:100980000000000000000000000000000000000067
:10099000000000000000000000007FFF7FFF00005B
:1009A00000001C001C000700070000000000000001
:1009B0000000000000000000000000000000000037
:1009C000000000000000000000000FE00070007058
:1009D0000FF01C701C701C700FD80000000000008D
:1009E00000001E000E000E000E000FF00E380E3834
:1009F0000E380E380E380E381BF0000000000000D4
:100A0000000000000000000000000FE01C701C70DF
:100A10001C001C001C701C700FE000000000000097
:100A2000000000F80070007000700FF01C701C7067
:100A30001C701C701C701C700FD80000000000009F
:100A4000000000000000000000000FE01C701C709F
:100A50001FF01C001C701C700FE000000000000064
:100A6000000003E007700770070007001FE01FE0A9
:100A700007000700070007001FC00000000000007B
:100A8000000000000000000000000FD81C701C7067
:100A90001C701C700FF007F000701C700FE000005D
:100AA00000001E000E000E000E000EF00F380F3872
:100AB0000E380E380E380E381E38000000000000C8
:100AC000000001C001C001C000000FC001C001C092
:100AD00001C001C001C001C00FF80000000000000B
:100AE0000000007000700070000003F000700070E3
:100AF00000700070007000701C700CF007E00000C7
:100B000000001E000E000E000E000E380E700EE0EB
:100B10000FC00EE00E700E381E38000000000000FE
:100B200000000FC001C001C001C001C001C001C070
:100B300001C001C001C001C00FF8000000000000AA
:100B4000000000000000000000001FF81C9C1C9C1E
:100B50001C9C1C9C1C9C1C9C1C9C000000000000FD
:100B6000000000000000000000001FE01C701C706E
:100B70001C701C701C701C701C70000000000000B9
:100B8000000000000000000000000FE01C701C705E
:100B90001C701C701C701C700FE000000000000036
:100BA000000000000000000000001BF00E380E38AE
:100BB0000E380E380E380FF00E000E001F00000029
:100BC000000000000000000000001FB038E038E026
:100BD00038E038E038E01FE000E000E001F000001D
:100BE000000000000000000000001EF00FF80F38A9
:100BF0000E000E000E000E001F000000000000009E
:100C0000000000000000000000000FE01C301C305D
:100C10000F8003E0187018700FE000000000000063
:100C2000000000000100030007001FF0070007009C
:100C3000070007000770077003E0000000000000D5
:100C4000000000000000000000001C701C701C7000
:100C50001C701C701C701C700FD80000000000007D
:100C6000000000000000000000001C701C701C70E0
:100C70001C701C700EE007C0038000000000000024
:100C8000000000000000000000001C1C1C1C1C1CBC
:100C90001C9C1C9C0FF807700770000000000000EF
:100CA000000000000000000000001CE01CE00FC07D
:100CB000078007800FC01CE01CE00000000000005F
:100CC000000000000000000000000E380E380E3852
:100CD0000E380E3807F003E000E001C01F8000006E
:100CE000000000000000000000001FE018E011C03C
:100CF000038007000E201C601FE0000000000000C1
:100D0000000001F803800380038007001C001C0022
:100D1000070003800380038001F80000000000004A
:100D200001C001C001C001C001C001C001C001C0BB
:100D300001C001C001C001C001C001C0000000002D
:100D400000001F8001C001C001C000E00038003871
:100D500000E001C001C001C01F80000000000000D1
:100D600000001F1C3B9C39DC38F80000000000002C
:100D70000000000000000000000000000000000073
:100D80002100240027002A002D003000330001013B
:100D90000000040107010A0100000A0B02090C0D02
:100DA0000E0807030401000000000000000000001E
:100DB0000000000000000000000000000000000033
:100DC00000000000121110000000000000000000F0
:100DD0000000000000000000000000000000010210
:100DE000102020080810204010204080020102013D
:100DF00008040201010204081020408080402010F5
:100E0000080402018004020180402010080402014D
:100E100008040201010204081020408001020408B5
:100E20001020408000002200250028002B002E000A
:100E30003100340002010000050108010B01050525
:100E40000505070508080808020202020A0A080840
:100E5000040404040101010101010101030303036E
:100E600003030303040707070C0C0C0C0C0C0C0CFD
:100E70000202020206060606060606060B0B0B0B0E
:100E80000B0B0B0B752F11241FBECFEFD1E2DEBF72
:100E9000CDBF00E00CBF24E0A2ECB2E001C01D9287
:100EA000AD39B207E1F712E0A0E0B2E0E6E5F6E620
:100EB00000E00BBF02C007900D92A23CB107D9F72A
:100EC00017E0C3E4D7E000E006C021970109802FB6
:100ED000FE010E94ED30C234D10780E00807A9F777
:100EE0000E94AA2C0C9429338BC82F923F924F92C8
:100EF0005F926F927F928F929F92AF92BF92CF92AA
:100F0000DF92EF92FF920F931F93CF93DF934C01E9
:100F10002B013A01D22EB32E69E772E00E944623DC
:100F2000E401269614018EE1280E311C69E772E077
:100F3000CE010E9446232696C215D305B9F7B20109
:100F4000C4010E942623ED2DFB2DD801CF010A9666
:100F500021913191299339932D913D91398728879A
:100F6000E817F907A9F7C0E0D0E0B3016C0F7D1FC7
:100F70002696C4018C0F9D1F0E942623C831D105DF
:100F8000A1F7F401F3AAE2AAC4AAA5AA80910002DB
:100F900090910102019711F00C94CD1881E080939B
:100FA000250461E0809146040E94F92461E080916B
:100FB00047040E94F92461E0809148040E94F924CA
:100FC000809149048F3F19F061E00E94F9248091DB
:100FD0002F04813131F0813049F480913004853023
:100FE00029F461E080914A040E94F92480912F0441
:100FF000813079F0813131F09FEF91B9803149F43E
:1010000097B907C088E18093010180E283BB8BE33D
:101010008DB9E0913704F0913804908180914204B9
:10102000892B808365E070E080E090E00E943525A8
:10103000E0913704F09138049081809142048095CA
:10104000892380836FE070E080E090E00E94352586
:10105000E0913704F0913804908180914204892B0B
:1010600080836FE070E080E090E00E943525E091A1
:101070003504F09136049081809141048095892354
:101080008083E0912E048E2F90E0FC013297EE31A8
:10109000F10510F00C940F188827EE58FF4F8F4F72
:1010A0000C94ED3061E070E080E00E94992C64EADD
:1010B00078EA83E00E94992C60E070E08CE00E9466
:1010C000992C6CE078E08DE00E94992C60E07BE246
:1010D0008EE00E94992C67EB70E08EE10E94992CC3
:1010E0006FE37BE281E00E94992C60E076E082E091
:1010F0000E94992C60E070E080E10E94992C60E7EA
:1011000070E681E10E94992C60E070E085E00E9429
:10111000992C60E070E086E00E94992C6CE17FEEF3
:1011200086E10E94992C63E070E087E10E94992C8F
:1011300063E372E087E00E94992C60E070E08BE04E
:101140000E94992C60E070E08FE00E94992C60E092
:1011500070E081E40E94992C60E070E082E40E94DB
:10116000992C60E070E088E40E94992C6FE371E0B4
:1011700089E40E94992C60E070E08AE40E94992C36
:1011800060E070E08BE40E94992C60E07FEE84E4E4
:101190000E94992C60E070E085E40E94992C6FE336
:1011A00071E086E40E94992C67E077E080E30E947A
:1011B000992C64E072E081E30E94992C64E072E073
:1011C00082E30E94992C62E075E083E30E94992CEF
:1011D00067E075E084E30E94992C64E072E085E3A7
:1011E0000E94992C64E072E086E30E94992C62E0F0
:1011F00075E087E30E94992C62E073E08AE30E9425
:10120000992C62E073E08BE30E94992C60E070E01F
:1012100083E20E94992C60E070E084E20E94992CA5
:1012200060E070E885E20E94992C60E070E08FE455
:101230000E94992C60E070E08EE40C94231360EF20
:1012400078E785EE0E94992C60E071E081E00E94D1
:10125000992C60E072E082E00E94992C60E370E1DA
:1012600083E00E94992C60E070E084E00E94992C59
:1012700067E072E088E00E94992C60E070E089E00D
:101280000E94992C60E070E08AE00E94992C60E056
:1012900070E08CE00E94992C60E070E08DE00E948C
:1012A000992C60E070E08FE00E94992C60E070E083
:1012B00080E10E94992C67E070E081E10E94992C06
:1012C00060E070E082E10E94992C60E070E083E1D0
:1012D0000E94992C61E070E087E00E94992C68ECF4
:1012E00070E080E090E00E94352560E976E180E1E1
:1012F0000E94992C67E272E081E10E94992C62E3DE
:1013000070E080E090E00E9435256DE070E082E1C1
:101310000E94992C62E370E080E090E00E94352505
:1013200060E072E183E10E94992C6AE070E089E25A
:101330000E94992C6DE070E07DC060EF78E785EE4B
:101340000E94992C60E071E081E00E94992C60E09D
:1013500077E082E00E94992C60E370E183E00E94D4
:10136000992C60E070E084E00E94992C67E072E0C4
:1013700088E00E94992C60E070E089E00E94992C3E
:1013800060E070E08AE00E94992C60E070E08CE000
:101390000E94992C60E070E08DE00E94992C60E042
:1013A00070E08FE00E94992C60E070E080E10E9484
:1013B000992C67E070E081E10E94992C60E070E078
:1013C00082E10E94992C60E070E083E10E94992CF8
:1013D00061E070E087E00E94992C68EC70E080E0AA
:1013E00090E00E94352560E975E180E10E94992C2A
:1013F00067E272E081E10E94992C62E370E080E094
:1014000090E00E9435256CE970E082E10E94992C01
:1014100062E370E080E090E00E94352560E079E1D1
:1014200083E10E94992C63E270E089E20E94992C8A
:101430006EE070E08BE20E94992C62E370E080E045
:1014400090E00E94352560E070E080E20E94992CD7
:1014500060E070E081E20E94992C60E070E080E33F
:101460000E94992C64E074E081E30E94992C63E06F
:1014700070E082E30E94992C65E074E085E30E94AD
:10148000992C68E078E086E30E94992C67E074E08C
:1014900087E30E94992C63E073E088E30E94992C13
:1014A00067E077E089E30E94992C64E075E08CE3C3
:1014B0000E94992C68E078E08DE30E94992C60E00E
:1014C00070E080E50E94992C6FEE70E081E50E944B
:1014D000992C60E070E082E50E94992C6FE371E046
:1014E00083E50E94992C60E077EA80E60E94992CBF
:1014F00061E070E081E60E94992C60E070E08AE68D
:101500000E94992C60E070E080E80E94992C60E0D5
:1015100070E081E80E94992C60E070E082E80E940F
:10152000992C60E070E083E80E94992C60E070E004
:1015300084E80E94992C60E070E085E80E94992C74
:1015400060E170E080E90E94992C60E070E082E93F
:101550000E94992C63E371E087E00E94992C0C941F
:101560000F1864E870E086E20E94992C68E270E04F
:1015700080E090E00E94352568EB70E086E20E94F2
:10158000992C68E270E080E090E00E9435256CEBD9
:1015900070E086E20E94992C64E170E080E090E0C7
:1015A0000E94352560E070E080E60E94992C66E09C
:1015B00070E081E60E94992C60E070E082E60E9473
:1015C000992C68EC70E083E60E94992C64E170E04D
:1015D00080E090E00E94352560E770E083E70E949C
:1015E000992C60E070E080E40E94992C60E470E047
:1015F00081E40E94992C65E470E082E40E94992CB9
:1016000061E070E083E40E94992C60E670E084E47D
:101610000E94992C65E070E085E40E94992C6CE0B2
:1016200070E086E40E94992C61ED70E087E40E94EE
:10163000992C65E070E088E40E94992C65E770E0E1
:1016400080E50E94992C61E070E081E50E94992C70
:1016500067E670E082E50E94992C64E170E083E522
:101660000E94992C62EF70E084E50E94992C67E05B
:1016700070E085E50E94992C63E070E086E50E94A9
:10168000992C69E470E087E50E94992C64E170E090
:1016900080E090E00E94352563E070E08FE10E94D9
:1016A000992C60E070E080E20E94992C64E270E086
:1016B00084E20E94992C64E370E085E20E94992CF8
:1016C0006FE270E083E20E94992C64E170E080E0B8
:1016D00090E00E94352564E470E088E10E94992C36
:1016E00061E070E081E20E94992C60E070E081E0AE
:1016F0000E94992C63E070E08CE10E94992C66E0D6
:1017000070E089E10E94992C64E170E080E090E053
:101710000E94352564E870E086E20E94992C68E218
:1017200070E080E090E00E94352568EB70E086E292
:101730000E94992C68E270E080E090E00E943525DC
:101740006CEB70E086E20E94992C64E170E080E02E
:1017500090E00E94352560E070E082E00E94992CC4
:1017600060E070E083E00E94992C60E070E084E02B
:101770000E94992C6FEA70E085E00E94992C60E04D
:1017800070E086E00E94992C60E070E087E00E94A3
:10179000992C60E070E088E00E94992C6BED70E07D
:1017A00089E00E94992C64E170E080E090E00E9462
:1017B000352568E070E086E10E94992C65E070E0D4
:1017C00087E10E94992C81E20E94532C82E20E94C0
:1017D000532C0C940F1881E10E94532C6CE070E0A4
:1017E00080E090E00E94352581EB0E94532C81E03F
:1017F0000E94682C8CE20E94682C8DE20E94682C6A
:1018000082EB0E94532C81E00E94682C8CE20E94A3
:10181000682C8DE20E94682C83EB0E94532C81E09F
:101820000E94682C8CE20E94682C8DE20E94682C39
:1018300081E00E94682C8CE20E94682C8DE20E945C
:10184000682C84EB0E94532C87E00E94682C80EC6B
:101850000E94532C82EA0E94682C82E00E94682C2D
:1018600084E80E94682C81EC0E94532C85EC0E9435
:10187000682C82EC0E94532C8AE00E94682C80E045
:101880000E94682C83EC0E94532C8AE80E94682CEA
:101890008AE20E94682C84EC0E94532C8AE80E9401
:1018A000682C8EEE0E94682C85EC0E94532C8EE0F2
:1018B0000E94682C86E30E94532C88EC73C081E15F
:1018C0000E94532C6CE070E080E090E00E9435258F
:1018D00081EB0E94532C81E00E94682C8CE20E94D4
:1018E000682C8DE20E94682C82EB0E94532C81E0D0
:1018F0000E94682C8CE20E94682C8DE20E94682C69
:1019000083EB0E94532C81E00E94682C8CE20E94A1
:10191000682C8DE20E94682C81E00E94682C8CE289
:101920000E94682C8DE20E94682C84EB0E94532C4C
:1019300087E00E94682C80EC0E94532C82EA0E946F
:10194000682C82E00E94682C84E80E94682C81EC5C
:101950000E94532C85EC0E94682C82EC0E94532C30
:101960008AE00E94682C80E00E94682C83EC0E9430
:10197000532C8AE80E94682C8AE20E94682C84EC2E
:101980000E94532C8AE80E94682C8EEE0E94682CDC
:1019900085EC0E94532C8EE00E94682C86E30E9406
:1019A000532C80EC0E94682C80EE0E94532C8FE018
:1019B0000E94682C8AE10E94682C8FE00E94682CAB
:1019C00088E10E94682C8FE20E94682C88E20E94C5
:1019D000682C80E20E94682C82E20E94682C8FE1D1
:1019E0000E94682C8BE10E94682C83E20E94682C84
:1019F00087E30E94682C80E00E94682C87E00E94A8
:101A0000682C82E00E94682C80E10E94682C81EEA4
:101A10000E94532C8FE00E94682C8BE10E94682C5E
:101A20008FE00E94682C87E10E94682C83E30E946B
:101A3000682C8CE20E94682C89E20E94682C8EE25D
:101A40000E94682C80E30E94682C80E30E94682C2E
:101A500089E30E94682C8FE30E94682C80E00E943A
:101A6000682C87E00E94682C83E00E94682C80E14B
:101A70000E94682C8AE20E94532C80E00E94682C0D
:101A800080E00E94682C80E00E94682C8FE70E9412
:101A9000682C8BE20E94532C80E00E94682C80E02E
:101AA0000E94682C80E00E94682C8FE90E94682CBC
:101AB00080EF0E94532C81E00E94682C86EF0E94E8
:101AC000532C80E09CC681E00E94532C85E20E944A
:101AD000532C80E40E94682C81E10E94532C6AE020
:101AE00070E080E090E00E94352580E20E94532C57
:101AF00088E30E94532C89E20E94532C83E10E94C8
:101B0000532C86E30E94532C80E60E94682C8AE3C3
:101B10000E94532C85E00E94682C8AE20E94532C7C
:101B200080E00E94682C8FE70E94682C84EB0E9462
:101B3000532C83E00E94682C88E00E94682C8BE084
:101B40000E94682C8EE00E94682C8AEB0E94532C25
:101B500087E00E94682C8DE00E94682C8BE20E9436
:101B6000532C80E00E94682C8FE7FEC183E80E941E
:101B7000532C82E00E94682C85E80E94532C83E05D
:101B80000E94682C8BE80E94532C81E00E94682CF4
:101B90008CE80E94532C83E90E94682C81E90E9402
:101BA000532C81E00E94682C83E80E94532C80E033
:101BB0000E94682C8EE30E94532C80EB0E94682CBC
:101BC0008FE30E94532C83E00E94682C80E40E94E3
:101BD000532C80E10E94682C81E40E94532C86E5FE
:101BE0000E94682C82E40E94532C83E10E94682C9E
:101BF00083E40E94532C86E40E94682C84E40E94B3
:101C0000532C83E20E94682C85E40E94532C86E7C3
:101C10000E94682C86E40E94532C80E00E94682C6D
:101C200087E40E94532C8EE50E94682C88E40E9471
:101C3000532C8FE40E94682C89E40E94532C80E48A
:101C40000E94682C87E10E94532C81E90E94682C35
:101C50008BE20E94532C89EF0E94682C6AE070E0AE
:101C600080E090E00E9435258BE10E94532C84E1B6
:101C70000E94682C8AE10E94532C81E10E94682C0A
:101C80008CE10E94532C86E00E94682C8FE10E9418
:101C9000532C82E40E94682C64E170E080E090E0C4
:101CA0000E94352589E10E94532C8AE00E94682C0D
:101CB00089E10E94532C8AE10E94682C68E270E05E
:101CC00080E090E00E94352589E10E94532C82E15A
:101CD0000E94682C68E270E080E090E00E94352568
:101CE0008EE10E94532C87E20E94682C64E670E02B
:101CF00080E090E00E94352584E20E94532C80E62B
:101D00000E94682C8DE30E94532C80E40E94682C72
:101D100084E30E94532C88E30E94682C85E30E9490
:101D2000532C88E30E94682C84E20E94532C88E3A1
:101D30000E94682C68E270E080E090E00E94352507
:101D400084E20E94532C8CE30E94682C86E10E945E
:101D5000532C8CE10E94682C81E00E94532C86E079
:101D60000E94682C85E50E94532C80E00E94682C1C
:101D700082E00E94532C80E00E94682C83E00E9445
:101D8000532C80E00E94682C84E00E94532C80E059
:101D90000E94682C85E00E94532C8FEE0E94682CD4
:101DA00086E00E94532C80E00E94682C87E00E940D
:101DB000532C80E00E94682C88E00E94532C81E024
:101DC0000E94682C89E00E94532C8FE80E94682CA6
:101DD000FDCC82EE0E94532C83E20E94682C82E0AC
:101DE0000E94682C84E50E94682C80EE0E94532C8F
:101DF00081E00E94682C6AE070E080E090E00E9440
:101E0000352580EE0E94532C83E00E94682C6AE006
:101E100070E080E090E00E94352581E00E94532C24
:101E200064E670E080E090E00E94352586EE0E9436
:101E3000532C81E00E94682C8FE10E94682C8FEF68
:101E40000E94682C80EB0E94532C80E20E94682C38
:101E500080E00E94682C81E00E94682C8FED0E9437
:101E6000682C81E00E94682C8FE00E94682C80E042
:101E70000E94682C84EB0E94532C82E00E94682C04
:101E800083E10E94682C80E00E94682C88E00E9418
:101E9000682C8BE20E94682C80E00E94682C82E013
:101EA0000E94682C80E00E94682C86EB0E94532CD4
:101EB00081E00E94682C80E20E94682C80E00E94F1
:101EC000682C84E00E94682C8CE00E94682C80E0E2
:101ED0000E94682C82E00E94682C8AEB0E94532C9E
:101EE0008FE00E94682C88EB0E94532C87E00E94B0
:101EF000682C81E00E94682C86E30E94532C82E2C9
:101F00000E94682C80EF0E94532C83E00E94682C72
:101F100061E070E080E090E00E9435252FE031E044
:101F20004FED51E060E070E080E090E00E94142905
:101F300089E20E94532C8EEB0E94532C86E00E9473
:101F4000682C80EF0E94682C81E00E94682C80EF52
:101F50000E94682C80E00E94682C80E00E94682C1F
:101F600080ED0E94532C8DE00E94682C89C782EE80
:101F70000E94532C8EE10E94682C82E00E94682C03
:101F800084E50E94682C80EE0E94532C81E00E9420
:101F9000682C6AE070E080E090E00E94352580EED9
:101FA0000E94532C83E00E94682C6AE070E080E07D
:101FB00090E00E94352581E00E94532C64E670E099
:101FC00080E090E00E94352586EE0E94532C83E04D
:101FD0000E94682C8FEF0E94682C8FEF0E94682C63
:101FE00080EB0E94532C84E20E94682C80E00E94C7
:101FF000682C83E00E94682C8FE10E94682C81E0AD
:102000000E94682C8FED0E94682C80E00E94682C52
:1020100084EB0E94532C83E00E94682C80EA0E948B
:10202000682C80E00E94682C8EE20E94682C80E37D
:102030000E94682C80E00E94682C8FE00E94682C2F
:1020400080E00E94682C86EB0E94532C82E00E9464
:10205000682C8DE00E94682C80E00E94682C80E152
:102060000E94682C80E10E94682C80E00E94682C0D
:1020700088E00E94682C8AEB0E94532C8FE00E941B
:10208000682C88EB0E94532C87E00E94682C81E02A
:102090000E94682C86E30E94532C82E20E94682CE6
:1020A00080EF0E94532C83E00E94682C61E070E076
:1020B00080E090E0A3C082EE0E94532C83E20E9455
:1020C000682C82E00E94682C84E00E94682C80EEDC
:1020D0000E94532C81E00E94682C6AE070E080E04E
:1020E00090E00E94352580EE0E94532C83E00E94F0
:1020F000682C6AE070E080E090E00E94352581E085
:102100000E94532C64E670E080E090E00E94352548
:1021100086EE0E94532C84E00E94682C83E90E9482
:10212000682C80EE0E94682C80EB0E94532C80E08B
:102130000E94682C80E00E94682C83E00E94682C3A
:102140008FE10E94682C81E00E94682C8FED0E9434
:10215000682C80E00E94682C84EB0E94532C83E062
:102160000E94682C80EA0E94682C80E00E94682C03
:102170008EE20E94682C80E30E94682C80E00E941E
:10218000682C8FE00E94682C80E00E94682C86EB0F
:102190000E94532C82E00E94682C8DE00E94682CE3
:1021A00080E00E94682C80E10E94682C80E10E94FF
:1021B000682C80E00E94682C88E00E94682C8AEBE2
:1021C0000E94532C85E00E94682C88EB0E94532CBF
:1021D00087E00E94682C81E00E94682C86E30E94C0
:1021E000532C82E20E94682C80EF0E94532C83E0E3
:1021F0000E94682C6AE070E080E090E00E94352543
:102200002FED31E04FE153E08DCE64E070E281E1EB
:102210000E94992C60E07CEC83E10E94992C60E0A4
:1022200076E285E10E94992C6AE275E284E10E94DF
:10223000992C63E370E082E10E94992C64E07CECCD
:1022400083E10E94992C66E07CEC83E10E94992C4A
:102250006FE47CEC83E10E94992C6FE477E683E1E4
:102260000E94992C63E070E281E10E94992C69E060
:1022700076E280E30E94992C6CE274E281E30E9492
:10228000992C63E27FE182E30E94992C65E274E27B
:1022900083E30E94992C66E272E284E30E94992C07
:1022A00063E275E285E30E94992C6AE17CE186E3B2
:1022B0000E94992C6DE173E187E30E94992C61E102
:1022C0007BE088E30E94992C60E172E189E30E943F
:1022D000992C65E173E18AE30E94992C69E176E328
:1022E0008BE30E94992C60E07DE08CE30E94992CA6
:1022F0006DE070E08DE30E94992C67E070E086E16C
:102300000E94992C63E170E082E00E94992C63E0C6
:1023100070E083E00E94992C67E271E081E00E9406
:10232000992C63E073E088E00E94992C6BE070E0E8
:102330008AE00E94992C63E070E08BE00E94992C67
:1023400060E070E08CE00E94992C60E070E081E435
:102350000E94992C60E070E080E50E94992C65E075
:1023600070E080E60E94992C6BE070E080E70E94AC
:10237000992C60E070E081E70E94992C60E070E0A9
:1023800088E70E94992C60E070E08AE70E94992C0F
:1023900067E070E089E70E94992C61E570E087E0D2
:1023A0000E94992C63E570E087E00E94992C60E020
:1023B00070E089E748C181E10E94532C64E170E03C
:1023C00080E090E00E94352580ED0E94532C87E04C
:1023D0000E94682C82E40E94682C88E10E94682C8C
:1023E00081ED0E94532C80E00E94682C87E00E94BF
:1023F000682C80E10E94682C82ED0E94532C81E0C1
:102400000E94682C82E00E94682C80EC0E94532C71
:1024100080E10E94682C8BE30E94682C80E00E947F
:10242000682C82E00E94682C81E10E94682C85EC77
:102430000E94532C83E00E94682C88EC0E94532C4D
:1024400080E00E94682C82E30E94682C86E30E9450
:10245000682C85E40E94682C86E00E94682C86E146
:102460000E94682C87E30E94682C85E70E94682CF4
:1024700087E70E94682C84E50E94682C8CE00E940B
:10248000682C80E00E94682C86E30E94532C8AE02E
:102490000E94682C8AE30E94532C85E50E94682CD8
:1024A0008AE20E94532C80E00E94682C80E00E9407
:1024B000682C81E00E94682C8FE30E94682C8BE2DC
:1024C0000E94532C80E00E94682C80E00E94682CBF
:1024D00081E00E94682C80EE0E94682C68E770E022
:1024E00080E090E00E94352592C16AE170E081E1D0
:1024F0000E94992C61E271E382E10E94992C6CE6C2
:1025000070E083E10E94992C69E472E484E10E9406
:10251000992C60E078E080E10E94992C6AE070E0FC
:1025200080E090E00E9435256AE171E081E10E943F
:10253000992C6AE070E080E090E00E9435256AE125
:1025400073E081E10E94992C6AE070E080E090E005
:102550000E9435256AE177E081E10E94992C6AE0CA
:1025600070E080E090E00E9435256AE17FE081E143
:102570000E94992C6AE070E080E090E00E9435258E
:102580006AE37FE081E10E94992C6EE170E080E0D7
:1025900090E00E9435256CE171E081E00E94992C69
:1025A00060E071E082E00E94992C60E370E183E0DA
:1025B0000E94992C60E070E087E00E94992C68E00E
:1025C00078E088E00E94992C60E071E18BE00E9445
:1025D000992C60E070E08CE00E94992C61E074E13D
:1025E0008FE00E94992C60E070E085E10E94992CB8
:1025F00060E070E080E20E94992C60E070E081E28F
:102600000E94992C6FEA70E086E30E94992C60E0AA
:1026100070E087E30E94992C6BED70E088E30E94E4
:10262000992C60E070E089E30E94992C61E07BE0E6
:102630008FE00E94992C66E170E087E00E94992C5F
:1026400067E170E087E00E94992CC0C881E10E9498
:10265000532C68E770E080E090E00E94352581EB24
:102660000E94532C85E00E94682C8CE30E94682C09
:102670008CE30E94682C82EB0E94532C85E00E9420
:10268000682C8CE30E94682C8CE30E94682C83EBFE
:102690000E94532C85E00E94682C8CE30E94682CD9
:1026A0008CE30E94682C85E00E94682C8CE30E94D9
:1026B000682C8CE30E94682C84EB0E94532C83E0EE
:1026C0000E94682C80EC0E94532C88E20E94682CA7
:1026D00088E00E94682C84E00E94682C81EC0E94B3
:1026E000532C80EC0E94682C82EC0E94532C8DE0CD
:1026F0000E94682C80E00E94682C83EC0E94532C7E
:102700008DE80E94682C8AE20E94682C84EC0E946A
:10271000532C8DE80E94682C8EEE0E94682C85EC6C
:102720000E94532C8AE10E94682C86E30E94532C5D
:1027300080EC0E94682C80EE0E94532C83E00E9463
:10274000682C82E20E94682C87E00E94682C8AE054
:102750000E94682C8EE20E94682C80E30E94682C04
:1027600085E20E94682C8AE20E94682C88E20E941E
:10277000682C86E20E94682C8EE20E94682C8AE314
:102780000E94682C80E00E94682C81E00E94682CE6
:1027900083E00E94682C83E10E94682C81EE0E94F5
:1027A000532C84E00E94682C86E10E94682C86E00D
:1027B0000E94682C8DE00E94682C8DE20E94682C9B
:1027C00086E20E94682C83E20E94682C87E20E94C5
:1027D000682C87E20E94682C85E20E94682C8DE2BA
:1027E0000E94682C8BE30E94682C80E00E94682C79
:1027F00081E00E94682C84E00E94682C83E10E94A2
:10280000682C8AE30E94532C85E00E94682C89E2A0
:102810000C94E70B81E10E94532C64E170E080E0AE
:1028200090E00E94352588E20E94532C65E070E01C
:1028300080E090E00E9435258FEC0E94532C80E0D0
:102840000E94682C83E80E94682C80E30E94682C18
:102850008DEE0E94532C84E60E94682C83E00E9437
:10286000682C82E10E94682C81E80E94682C88EE26
:102870000E94532C85E80E94682C81E00E94682CFD
:1028800089E70E94682C8BEC0E94532C89E30E94FC
:10289000682C8CE20E94682C80E00E94682C84E303
:1028A0000E94682C82E00E94682C87EF0E94532CC3
:1028B00080E20E94682C8AEE0E94532C80E00E94E5
:1028C000682C80E00E94682C80EC0E94532C86E2E9
:1028D0000E94682C81EC0E94532C81E10E94682C9C
:1028E00085EC0E94532C85E30E94682C8EE30E94A5
:1028F000682C87EC0E94532C8EEB0E94682C81EB95
:102900000E94532C80E00E94682C8BE10E94682C6E
:1029100086EB0E94532C8AE00E94682C82E80E9479
:10292000682C87E20E94682C80E00E94682C87EB6C
:102930000E94532C87E00E94682C8AE30E94532C4B
:1029400085E50E94682C86E30E94532C88E40E944F
:10295000682C89E20E94532C65E070E080E090E0F2
:102960005CC38BEC0E94532C89E30E94682C8CE2A0
:102970000E94682C80E00E94682C84E30E94682CEE
:1029800082E00E94682C8FEC0E94532C80E00E9411
:10299000682C81EC0E94682C80E30E94682C88EEF1
:1029A0000E94532C85E80E94682C80E00E94682CCD
:1029B00088E70E94682C8AEE0E94532C80E00E94D7
:1029C000682C80E00E94682C8DEE0E94532C84E6D7
:1029D0000E94682C83E00E94682C82E10E94682C8F
:1029E00081E80E94682C87EF0E94532C80E20E94AD
:1029F000682C80EC0E94532C83E20E94682C81ECAE
:102A00000E94532C80E10E94682C85EC0E94532C7C
:102A10008EE30E94682C88E20E94682C87EC0E945A
:102A2000532C86E80E94682C86E30E94532C88E48D
:102A30000E94682C8AE30E94532C85E50E94682C32
:102A400081EB0E94532C80E00E94682C88E10E9458
:102A5000682C86EB0E94532C88E00E94682C82E848
:102A60000E94682C87E20E94682C81E10E94532C0E
:102A700068E770E080E090E0FEC180EB0E94532C9C
:102A80008EE10E94682C80EB0E94532C80E00E9413
:102A9000682C83EB0E94532C82E00E94682C80E01B
:102AA0000E94682C80E00E94682C80E10E94682CC3
:102AB00084EB0E94532C80E00E94682C80EC0E94E2
:102AC000532C83E00E94682C8BE30E94682C80E0EA
:102AD0000E94682C80E00E94682C80E00E94682C94
:102AE00081E00E94682C80E00E94682C83E40E94B0
:102AF000682C81EC0E94532C88E00E94682C85E1B0
:102B00000E94682C88E00E94682C88E00E94682C53
:102B100084EC0E94532C85E10E94682C83E00E9483
:102B2000682C83E00E94682C81E00E94682C86EC6F
:102B30000E94532C82E00E94682C88EC0E94532C47
:102B40008CE00E94682C85E00E94682C8AE00E943C
:102B5000682C8BE60E94682C84E00E94682C86E03A
:102B60000E94682C85E10E94682C80E10E94682CFC
:102B700080E00E94682C80E60E94682C86E30E9418
:102B8000532C8AE00E94682C8CE00E94532C85E52F
:102B90000E94682C8AE30E94532C85E50E94682CD1
:102BA00088E30E94532C80ED0E94532C87E00E9402
:102BB000682C87E00E94682C84E10E94682C82EADD
:102BC0000E94682C81ED0E94532C83E00E94682CA7
:102BD0008AE50E94682C80E10E94682C82ED0E94A8
:102BE000532C83E00E94682C84E00E94682C84E0CF
:102BF0000E94682C81E10E94532C66E970E080E01D
:102C000090E00E9435258AE20E94532C80E00E94C9
:102C1000682C80E00E94682C81E00E94682C8FED77
:102C20000E94682C8BE20E94532C80E00E94682C4A
:102C300080E00E94682C81E00E94682C8FE30E9453
:102C4000682C64E670E080E090E00E94352589E21F
:102C50000E94532C6EE170E080E090E00E943525E8
:102C60008CE20E94532C6EE170E080E090E0D5C1D0
:102C700081E10E94532C62E370E080E090E00E94CA
:102C8000352582EF0E94532C8CE10E94682C83EA48
:102C90000E94682C82E30E94682C82E00E94682CCB
:102CA00082EB0E94682C82E10E94682C8FEF0E94C8
:102CB000682C82E10E94682C80E00E94682C81EFE1
:102CC0000E94532C86E30E94682C84EA0E94682CA0
:102CD00088EF0E94532C81E20E94682C84E00E94BD
:102CE000682C89EF0E94532C80E00E94682C88E0B9
:102CF0000E94682C80EC0E94532C8DE00E94682C6E
:102D00008DE00E94682C81EC0E94532C83E40E9489
:102D1000682C80E00E94682C82EC0E94532C80E09A
:102D20000E94682C85EC0E94532C80E00E94682C45
:102D300088E40E94682C86EB0E94532C80E00E945D
:102D4000682C82E20E94682C8BE30E94682C80EE43
:102D50000E94532C8FE00E94682C84E20E94682C11
:102D60008CE10E94682C8AE00E94682C8FE00E940F
:102D7000682C88E00E94682C83E40E94682C88E814
:102D80000E94682C82E30E94682C8FE00E94682CCD
:102D900080E10E94682C86E00E94682C8FE00E94EF
:102DA000682C87E00E94682C80E00E94682C81EEED
:102DB0000E94532C8FE00E94682C88E30E94682CAC
:102DC00080E30E94682C89E00E94682C8FE00E94BA
:102DD000682C8FE00E94682C8EE40E94682C87E7A4
:102DE0000E94682C8CE30E94682C87E00E94682C6B
:102DF00080E10E94682C85E00E94682C83E20E949A
:102E0000682C8BE10E94682C80E00E94682C80E294
:102E10000E94532C80E00E94682C86E30E94532C71
:102E20008AE00E94682C8AE30E94532C85E50E9468
:102E3000682C8AE20E94532C80E00E94682C80E07B
:102E40000E94682C81E00E94682C8FED0E94682C03
:102E50008BE20E94532C80E00E94682C80E00E944C
:102E6000682C81E00E94682C8FE30E94682C62E34A
:102E700070E080E090E00E94352589E20E94532CAA
:102E80008CE20C94E70B80912504813019F41092A8
:102E9000250403C081E0809325048FE00E94532C19
:102EA00060E170E081E00E94992C8FE00C94E70BC8
:102EB00089EB0E94532C8FEF0E94682C83E80E94BC
:102EC000682C83E50E94682C80EB0E94532C8CE3D5
:102ED0000E94682C81E00E94682C86EB0E94532C93
:102EE00084E90E94682C8CE60E94682C80E50E9490
:102EF000682C81EB0E94532C80E00E94682C81E0BA
:102F00000E94682C8BE10E94682C83E00E94682C50
:102F100081E00E94682C88E00E94682C87E70E946C
:102F2000682C89E80E94682C80EE0E94532C80E572
:102F30000E94682C87E70E94682C80E40E94682C1D
:102F400088E00E94682C8FEB0E94682C80E00E9431
:102F5000682C83E00E94682C8FE00E94682C80E03F
:102F60000E94682C81E00E94682C83E70E94682CF4
:102F700080E00E94682C82E70E94682C83E00E9417
:102F8000682C80EB0E94682C8FE00E94682C88E0FF
:102F90000E94682C80E00E94682C8FE00E94682CC0
:102FA0008AE30E94532C85E00E94682C86E30E94ED
:102FB000532C80EC0E94682C81E10E94532C66E91E
:102FC00070E080E090E00E94352589E20E94532C59
:102FD00066E970E080E090E00E9435258DE20E9475
:102FE000532CC0E08C2F0E94682CCE5FC034D1F7E8
:102FF000C0E08C2F0E94682CCF5FC034D1F7C0E0B6
:103000008C2F0E94682CCE5FC034D1F78CE20E94D6
:10301000532C66E970E080E090E00E943525E09155
:103020003504F0913604908180914104892B80838E
:103030008FEF809321048093220410922304109236
:1030400024041092510410924C0410924B04E0910D
:103050003504F09136049081809141048095892354
:1030600080830E94212A80912F04813049F0E091D1
:103070003104F0913204908180913F04892B808348
:10308000E0912F0440912604509127046091280478
:103090007091290480912A0490912B04A0912C0412
:1030A000B0912D04E031B1F49A01AB012F5F3F4F95
:1030B0004F4F5F4FBC01CD016F5F7F4F8F4F9F4FD1
:1030C0000E9473309B01AC0160E070E080E090E012
:1030D000BED554C0E830A1F49A01AB012F5F3F4F39
:1030E0004F4F5F4FBC01CD016F5F7F4F8F4F9F4FA1
:1030F0000E947330AB01BC0180E090E0D7D23EC0AB
:10310000C12CD12C76018091260490912704A091A6
:103110002804B09129049C01AD012F5F3F4F4F4F10
:103120005F4F80912A0490912B04A0912C04B091C0
:103130002D04BC01CD016F5F7F4F8F4F9F4F0E94C9
:103140007330C616D706E806F906C4F440912F047A
:10315000413019F060E080E009C041E060E081E0CA
:103160000E94362A40912F0460E081E00E94362AB6
:10317000FFEFCF1ADF0AEF0AFF0AC5CFE09135044F
:10318000F0913604908180914104892B808382E004
:1031900090E09093010280930002DF91CF911F9104
:1031A0000F91FF90EF90DF90CF90BF90AF909F90E6
:1031B0008F907F906F905F904F903F902F900895E9
:1031C000682F892F0C947D2CCF93DF93FC01C1E2F3
:1031D000D4E0AC89BD893C9198A1909593239C93B0
:1031E0009B01AF01CF010E941429888190E0982FA4
:1031F00088272981822BE4DFEC89FD89908188A1D1
:10320000892B8083DF91CF910C94212A2F923F92BA
:103210004F925F926F927F928F929F92AF92BF92E6
:10322000CF92DF92EF92FF920F931F93CF93DF9392
:10323000CDB7DEB72E970FB6F894DEBF0FBECDBF69
:103240001B012DB73EB73C872B87FC01E480F5803E
:1032500097012F5F3F4F4DB75EB7421B530B0FB621
:10326000F8945EBF0FBE4DBF0DB71EB70F5F1F4F67
:10327000232B99F00115110581F0E114F10411F4EB
:10328000F8010AC0FC0160817181A701C8010E9498
:103290001A33F801EE0DFF1D1082F8010190002095
:1032A000E9F731979F01201B310B3E832D838091DD
:1032B000250420914D04811113C080912604909122
:1032C0002704A0912804B09129040196A11DB11DE5
:1032D0004D815E81249F6001259FD00C112412C076
:1032E00080912A0490912B04A0912C04B0912D047C
:1032F0000196A11DB11DED81FE812E9F60012F9FC2
:10330000D00C11240D2C000CEE08FF08BC01CD01DF
:103310006C197D098E099F0922E030E040E050E001
:103320000E94D13038872F831A8709871C821B821D
:103330008B819C81ED81FE818E179F070CF096C1D9
:1033400080914D042B813C81829F2001839F500CF2
:1033500011244F815885440E551EE985FA85019147
:10336000FA87E987E0913504F091360490818091E5
:1033700041048095892380832091510480914D04DC
:1033800090914E0410E02111F9C0209125042111E3
:1033900077C09101290F311D21503109A201480F39
:1033A000511D41505109B101C2010E94142980915F
:1033B0004D0486958695869590914E0420914F04F4
:1033C000021B1109899FC0011124089F7001099FE8
:1033D000F00C189FF00C1124F4E0EF0EF11CA12C5E
:1033E000B12C80914D0486958695869590914E04DA
:1033F000899FC0011124A816B90688F5E0914B04F5
:10340000F0914C04EE0DFF1DE491F7E0CF2ED12C8E
:103410000E2F10E0C8010C2C02C0959587950A94D8
:10342000E2F780FF08C08091210490E0982F882760
:103430002091220407C08091230490E0982F8827D0
:1034400020912404822BBCDE21E0C21AD10810F79F
:103450004FEFE41AF40A5FEFA51AB50AC2CFE09164
:103460003504F0913604908180914104892B80834A
:103470000E94212A8B819C8101969C838B8358CF4B
:1034800086958695869520914F04021B1109899F88
:10349000C0011124089F6001099FD00C189FD00C17
:1034A000112494E0C90ED11CA12CB12C30914D04F3
:1034B000632F66956695669580914E04689FC0015E
:1034C0001124A816B90658F670E0C5010E94BD3057
:1034D000620D731DA201430F511D415051099B0103
:1034E000C2010E941429E0904D04E694E694E6940B
:1034F000F12C4601E1E08E1A9108E114F10499F1F2
:10350000E0914B04F0914C04C4018E0D9F1DE80F17
:10351000F91FE491612C712C0E2F10E0C801062CCC
:1035200002C0959587950A94E2F780FF08C08091C4
:10353000210490E0982F88272091220407C08091D1
:10354000230490E0982F882720912404822B38DED2
:10355000FFEF6F1A7F0A28E062167104F9F631E076
:10356000E31AF108CACF80914D0486958695869519
:1035700090E0C80ED91EA80EB91E98CF86958695E4
:10358000869520914F04021B1109899FC0011124C7
:10359000089F3001099F700C189F700C112444E0A3
:1035A000640E711C810180914E0490E098012219F3
:1035B00033092817390708F052CF812C912CE12CC0
:1035C000F12CA8014F5F5F4F5E874D8780914D04BE
:1035D00086958695869590E0E816F9060CF041C030
:1035E000E0914B04F0914C04C701860D971DE80F44
:1035F000F91FE4916201C80CD91C37E0A32EB12C4D
:103600008E2F90E09A83898389819A810A2C02C047
:10361000959587950A94E2F780FF12C02D853E8527
:10362000A6014F5F5F4FB801C6010E941429809127
:10363000210490E0982F882720912204822BC0DD5E
:1036400091E0A91AB108EFEFCE1ADE0AFFEFAF162C
:10365000BF06D1F62FEFE21AF20A38E0830E911C72
:10366000B5CF680E791E0F5F1F4F9DCF2B853C8510
:103670000FB6F8943EBF0FBE2DBF2E960FB6F8942E
:10368000DEBF0FBECDBFDF91CF911F910F91FF9095
:10369000EF90DF90CF90BF90AF909F908F907F90F2
:1036A0006F905F904F903F902F9008958F929F92D0
:1036B000AF92BF92CF92DF92EF92FF926A017B01AD
:1036C00082B9CB01BA0120E130E040E050E00E9435
:1036D000D13049015A0180E090E0DC01881599055C
:1036E000AA05BB050CF064C2E0913304F0913404E8
:1036F000308120914004209523232083E0913304DE
:10370000F0913404308120914004232B2083E091F8
:103710003304F09134043081209140042095232318
:103720002083E0913304F0913404308120914004EF
:10373000232B2083E0913304F091340430812091D5
:103740004004209523232083E0913304F091340436
:10375000308120914004232B2083E0913304F091A9
:103760003404308120914004209523232083E0916C
:103770003304F0913404308120914004232B2083C2
:10378000E0913304F091340430812091400420957D
:1037900023232083E0913304F0913404308120917D
:1037A0004004232B2083E0913304F09134043081D2
:1037B00020914004209523232083E0913304F0914D
:1037C0003404308120914004232B2083E091330482
:1037D000F0913404308120914004209523232083EC
:1037E000E0913304F0913404308120914004232B84
:1037F0002083E0913304F09134043081209140041F
:10380000209523232083E0913304F0913404308108
:1038100020914004232B2083E0913304F091340461
:10382000308120914004209523232083E0913304AC
:10383000F0913404308120914004232B2083E091C7
:103840003304F091340430812091400420952323E7
:103850002083E0913304F0913404308120914004BE
:10386000232B2083E0913304F091340430812091A4
:103870004004209523232083E0913304F091340405
:10388000308120914004232B2083E0913304F09178
:103890003404308120914004209523232083E0913B
:1038A0003304F0913404308120914004232B208391
:1038B000E0913304F091340430812091400420954C
:1038C00023232083E0913304F0913404308120914C
:1038D0004004232B2083E0913304F09134043081A1
:1038E00020914004209523232083E0913304F0911C
:1038F0003404308120914004232B2083E091330451
:10390000F0913404308120914004209523232083BA
:10391000E0913304F0913404308120914004232B52
:103920002083E0913304F0913404308120914004ED
:10393000209523232083E0913304F09134043081D7
:1039400020914004232B2083E0913304F091340430
:10395000308120914004209523232083E09133047B
:10396000F0913404308120914004232B2083E09196
:103970003304F091340430812091400420952323B6
:103980002083E0913304F09134043081209140048D
:10399000232B2083E0913304F09134043081209173
:1039A0004004209523232083E0913304F0913404D4
:1039B000308120914004232B2083E0913304F09147
:1039C0003404308120914004209523232083E0910A
:1039D0003304F0913404308120914004232B208360
:1039E000E0913304F091340430812091400420951B
:1039F00023232083E0913304F0913404308120911B
:103A00004004232B2083E0913304F091340430816F
:103A100020914004209523232083E0913304F091EA
:103A20003404308120914004232B2083E09133041F
:103A3000F091340430812091400420952323208389
:103A4000E0913304F0913404308120914004232B21
:103A50002083E0913304F0913404308120914004BC
:103A6000209523232083E0913304F09134043081A6
:103A700020914004232B2083E0913304F0913404FF
:103A8000308120914004209523232083E09133044A
:103A9000F0913404308120914004232B2083E09165
:103AA0003304F09134043081209140042095232385
:103AB0002083E0913304F09134043081209140045C
:103AC000232B2083E0913304F09134043081209142
:103AD0004004209523232083E0913304F0913404A3
:103AE000308120914004232B2083E0913304F09116
:103AF0003404308120914004209523232083E091D9
:103B00003304F0913404308120914004232B20832E
:103B1000E0913304F09134043081209140042095E9
:103B200023232083E0913304F091340430812091E9
:103B30004004232B2083E0913304F091340430813E
:103B400020914004209523232083E0913304F091B9
:103B50003404308120914004232B2083E0913304EE
:103B6000F091340440813091400430953423308307
:103B7000E0913304F0913404208130914004322BE1
:103B80003083E0913304F09134044081309140045B
:103B9000309534233083E0913304F0913404208154
:103BA00030914004322B30830196A11DB11D96CD7A
:103BB000D701C6018F709927AA27BB27892B8A2B8B
:103BC0008B2BE1F1C701B60120E130E040E050E08D
:103BD0000E94D130C12CD12C76016C157D058E054B
:103BE0009F0564F1E0913304F09134043081209119
:103BF0004004209523232083E0913304F091340482
:103C0000308120914004232B2083E0913304F091F4
:103C10003404308120914004209523232083E091B7
:103C20003304F0913404308120914004232B20830D
:103C30002FEFC21AD20AE20AF20ACFCFFF90EF901A
:103C4000DF90CF90BF90AF909F908F9008958F920C
:103C50009F92AF92BF92CF92DF92EF92FF92690153
:103C60007A0182B968B9CA01B90120E130E040E0C7
:103C700050E00E94D13049015A0180E090E0DC011F
:103C800088159905AA05BB050CF034C1E0913304F1
:103C9000F091340430812091400420952323208327
:103CA000E0913304F0913404308120914004232BBF
:103CB0002083E0913304F09134043081209140045A
:103CC000209523232083E0913304F0913404308144
:103CD00020914004232B2083E0913304F09134049D
:103CE000308120914004209523232083E0913304E8
:103CF000F0913404308120914004232B2083E09103
:103D00003304F09134043081209140042095232322
:103D10002083E0913304F0913404308120914004F9
:103D2000232B2083E0913304F091340430812091DF
:103D30004004209523232083E0913304F091340440
:103D4000308120914004232B2083E0913304F091B3
:103D50003404308120914004209523232083E09176
:103D60003304F0913404308120914004232B2083CC
:103D7000E0913304F0913404308120914004209587
:103D800023232083E0913304F09134043081209187
:103D90004004232B2083E0913304F09134043081DC
:103DA00020914004209523232083E0913304F09157
:103DB0003404308120914004232B2083E09133048C
:103DC000F0913404308120914004209523232083F6
:103DD000E0913304F0913404308120914004232B8E
:103DE0002083E0913304F091340430812091400429
:103DF000209523232083E0913304F0913404308113
:103E000020914004232B2083E0913304F09134046B
:103E1000308120914004209523232083E0913304B6
:103E2000F0913404308120914004232B2083E091D1
:103E30003304F091340430812091400420952323F1
:103E40002083E0913304F0913404308120914004C8
:103E5000232B2083E0913304F091340430812091AE
:103E60004004209523232083E0913304F09134040F
:103E7000308120914004232B2083E0913304F09182
:103E80003404308120914004209523232083E09145
:103E90003304F0913404308120914004232B20839B
:103EA000E0913304F0913404408130914004309526
:103EB00034233083E0913304F09134042081309135
:103EC0004004322B3083E0913304F091340440817C
:103ED00030914004309534233083E0913304F091E5
:103EE0003404208130914004322B30830196A11D8F
:103EF000B11DC6CED701C6018F709927AA27BB274F
:103F0000892B8A2B8B2B49F1C701B60120E130E0C8
:103F100040E050E00E94D130C12CD12C76016C15CC
:103F20007D058E059F05CCF0E0913304F0913404BB
:103F3000308120914004209523232083E091330495
:103F4000F0913404308120914004232B20832FEF03
:103F5000C21AD20AE20AF20AE2CFFF90EF90DF9093
:103F6000CF90BF90AF909F908F9008950F931F9325
:103F7000CF93DF93FC01EA0157FF05C0640F751F63
:103F8000D195C195D109A0913504B09136042C91F9
:103F900090914104909592239C939B012C0F3D1F7F
:103FA000AF01CF010E94142980912F048031A9F420
:103FB000E0913104F0913204908180913F04892B8B
:103FC00080839E01DD0F440B550B6091220470E04D
:103FD0008091210490E03BDE27C08830C1F49091AD
:103FE000210480912204981312C0E0913104F091D1
:103FF0003204908180913F04892B8083AE01DD0FD4
:10400000660B770B8091210490E050DB0DC000E03F
:1040100010E060912204809121040E947D2C0F5FAA
:104020001F4FC017D107ACF7E0913504F09136046B
:10403000908180914104892B8083DF91CF911F91E2
:104040000F910C94212A0F931F93CF93DF93EA01D2
:1040500057FF05C0840F951FD195C195D109E091F7
:104060003504F09136044081309141043095342379
:104070003083AC014C0F5D1F9B010E94142980917D
:104080002F048031A9F4E0913104F0913204908141
:1040900080913F04892B80839E01DD0F440B550BDB
:1040A0006091220470E08091210490E0D0DD27C06F
:1040B0008830C1F49091210480912204981312C099
:1040C000E0913104F0913204908180913F04892B7A
:1040D0008083AE01DD0F660B770B8091210490E0A9
:1040E000E5DA0DC000E010E0609122048091210427
:1040F0000E947D2C0F5F1F4FC017D107ACF7E091D6
:104100003504F0913604908180914104892B80839D
:10411000DF91CF911F910F910C94212A2F923F9202
:104120004F925F926F927F928F929F92AF92BF92C7
:10413000CF92DF92EF92FF920F931F93CF93DF9373
:104140007C01EB018A016901481759072CF4982F6B
:104150008F2D7A01092F182FCC16DD062CF49C2FF9
:104160008D2FE601C92ED82E28014E185F0885E054
:10417000481651040CF451C016012C1A3D0A85E072
:10418000281631040CF449C04E018FEF881A980AA2
:1041900037018FEF681A780AB401C30115D85801A6
:1041A00081E0A81AB108B401C5010ED8460181E02A
:1041B000881A9108B401C30107D8B401C50104D815
:1041C00084E0481A5108570182E0A80EB11CA201F0
:1041D000BE01C50138DFA201B601C50134DF84E0AC
:1041E000281A31082296A101BE01C701BFDEA10134
:1041F000BE01C801DF91CF911F910F91FF90EF9009
:10420000DF90CF90BF90AF909F908F907F906F90F6
:104210005F904F903F902F90A9CEDF91CF911F914B
:104220000F91FF90EF90DF90CF90BF90AF909F9055
:104230008F907F906F905F904F903F902F90089558
:10424000CF93DF93482F50E060E070E02AE08CE3EA
:1042500093E045D2EC0167E772E08CE393E02AD269
:104260008C0F9D1FDF91CF910895CF93DF93E0EAEC
:10427000FDE08491E6EEFDE0D491E6E4FEE0C49139
:10428000CC2389F08111D2D2EC2FF0E0EE0FFF1F8A
:10429000E058FE4FA591B491EC91ED2381E090E0C0
:1042A00021F480E002C080E090E0DF91CF9108959A
:1042B000ECE3F3E0A089B18982E08C93A485B58515
:1042C0001C92A685B78580E18C93108EA489B58950
:1042D00086E08C93A289B3898C9180618C93A289AA
:1042E000B3898C9188608C93A289B3898C91806802
:1042F0008C930288F389E02D80818F7D80830895DF
:10430000CF92DF92EF92FF920F931F932FB7F89403
:10431000C090C202D090C302E090C402F090C502E7
:104320002FBFDC01CB018C0D9D1DAE1DBF1D4FB7F6
:10433000F8940091C2021091C3022091C4023091FE
:10434000C5024FBF0C151D052E053F0528F080172F
:104350009107A207B30758F71F910F91FF90EF90B5
:10436000DF90CF900895CF92DF92EF92FF920F935C
:104370001F93CF93DF936C017A018B01C0E0D0E0F3
:10438000CE15DF0589F0D8016D918D01D601ED9133
:10439000FC910190F081E02DC6011995892B11F453
:1043A0007E0102C02196ECCFC701DF91CF911F9112
:1043B0000F91FF90EF90DF90CF900895FC01538D07
:1043C000448D252F30E0842F90E0821B930B5417EF
:1043D00010F0CF96089501970895FC01918D828D7C
:1043E000981761F0828DDF01A80FB11D5D968C9149
:1043F000928D9F5F9F73928F90E008958FEF9FEF54
:104400000895FC01918D828D981731F0828DE80F0F
:10441000F11D858D90E008958FEF9FEF0895FC01C9
:10442000918D228D892F90E0805C9F4F821B910996
:104430008F73992708958CE393E0F1DF21E0892BB6
:1044400009F420E0822F0895FC01848DDF01A80F7C
:10445000B11DA35ABF4F2C91848D90E001968F73AC
:104460009927848FA689B7892C93A089B1898C91CB
:1044700080648C93938D848D981306C00288F38991
:10448000E02D80818F7D80830895EF92FF920F93BE
:104490001F93CF93DF93EC0181E0888F9B8D8C8DF0
:1044A000981305C0E889F989808185FD23C0F62E1F
:1044B0000B8D10E00F5F1F4F0F731127E02E8C8DB7
:1044C000E8120BC00FB607FCFACFE889F9898081A2
:1044D00085FFF5CFCE01B8DFF2CF8B8DFE01E80F5F
:1044E000F11DE35AFF4FF0820B8FEA89FB8980812F
:1044F000806207C0EE89FF896083E889F98980813D
:104500008064808381E090E0DF91CF911F910F91D3
:10451000FF90EF900895CF93DF93EC01888D88236F
:10452000C1F0EA89FB89808185FD05C0A889B98928
:104530008C9186FD0EC00FB607FCF5CF808185FFFC
:10454000F2CFA889B9898C9185FFEDCFCE017CDFB0
:10455000E8CFDF91CF91089580E090E0892B19F0AA
:104560006ADF811125C080E090E0892B41F080E076
:1045700090E0892B21F00E94000081111CC080E096
:1045800090E0892B41F080E090E0892B21F00E949F
:104590000000811113C080E090E0892BA1F080E041
:1045A00090E0892B81F00E94000081110AC00895DB
:1045B0000E940000D8CF0E940000E1CF0E940000BE
:1045C000EACF0C9400000895EF92FF920F931F938F
:1045D000CF93DF93EC017B018A0188819981009759
:1045E00029F02A813B8124173507F8F4B8016F5F61
:1045F0007F4F0E942232009759F0998388831B8352
:104600000A832C813D81232B81F4FC0110820DC093
:1046100088819981009711F00E948A31198218824D
:104620001D821C821B821A8207C01D830C83B70166
:10463000888199810E941333CE01DF91CF911F9120
:104640000F91FF90EF9008950E940633CF93DF9370
:10465000EC01FB0186179707A9F060817181611554
:10466000710521F044815581AFDF0CC088819981AB
:10467000009711F00E948A31198218821D821C82D3
:104680001B821A82CE01DF91CF910895FC01118225
:10469000108213821282158214826115710549F00D
:1046A000FB0101900020E9F73197AF01461B570B42
:1046B0008BCF08956115710579F0FB010190002001
:1046C000E9F73197AF01461B570BDC01ED91FC91E7
:1046D0000280F381E02D199480E090E008954F92DC
:1046E0005F926F927F92EF92FF920F931F93CF93FF
:1046F000DF93CDB7DEB7A1970FB6F894DEBF0FBE3C
:10470000CDBF7C01FA01CB0119A2223008F42AE0C6
:104710008E010F5D1F4F422E512C612C712CBF0159
:10472000A30192010E948230F901CA0101501109CE
:104730006A3014F4605D01C0695CD8016C93232B6E
:10474000242B252B61F7B801C701B4DFA1960FB662
:10475000F894DEBF0FBECDBFDF91CF911F910F91B7
:10476000FF90EF907F906F905F904F9008951F9211
:104770000F920FB60F9211240BB60F922F933F9307
:104780004F935F936F937F938F939F93AF93BF9359
:10479000EF93FF938CE393E057DEFF91EF91BF918E
:1047A000AF919F918F917F916F915F914F913F91C9
:1047B0002F910F900BBE0F900FBE0F901F9018956A
:1047C0001F920F920FB60F9211240BB60F922F93D8
:1047D0008F939F93EF93FF93E0914C03F0914D03E0
:1047E0008081E0915203F091530382FD12C09081C9
:1047F000809155038F5F8F7320915603821751F07C
:10480000E0915503F0E0E45CFC4F958F80935503F5
:1048100001C08081FF91EF919F918F912F910F9017
:104820000BBE0F900FBE0F901F90189590E0FC01EB
:104830003197E231F10508F04EC08827E057FF4F6D
:104840008F4F0C94ED30809180008F7703C0809162
:1048500080008F7D80938000089580918000877F05
:10486000F9CF84B58F7702C084B58F7D84BD08955C
:104870008091B0008F7703C08091B0008F7D8093CE
:10488000B0000895809190008F7707C080919000CC
:104890008F7D03C080919000877F80939000089562
:1048A0008091A0008F7707C08091A0008F7D03C00A
:1048B0008091A000877F8093A000089580912001BF
:1048C0008F7707C0809120018F7D03C080912001E8
:1048D000877F8093200108953FB7F8948091380333
:1048E00090913903A0913A03B0913B0326B5A89B60
:1048F00005C02F3F19F00196A11DB11D3FBFBA2F72
:10490000A92F982F8827820F911DA11DB11DBC01D1
:10491000CD0142E0660F771F881F991F4A95D1F796
:10492000089585ED8093BC008091BC0084FDFCCF90
:104930001092110308954091EB02262F30E0240FCE
:10494000311D21323105DCF4209111032430C9F4EA
:10495000FC0180E090E0861758F43091EB02219141
:10496000DC01A753BD4FA30FB11D2C930196F3CFCC
:104970008091EB02680F6093EB0280E0089581E084
:10498000089582E0089508958FEF9FEF08958FEFC7
:104990009FEF08958091C80290E0919581959109CB
:1049A0000895CF93DF931F921F92CDB7DEB7CB014F
:1049B000642F49835A83BFDF4981842F5A81952F01
:1049C0000F900F90DF91CF910895CF93DF931F92B7
:1049D000CDB7DEB7698361E0CE010196ACDF81E03F
:1049E00090E00F90DF91CF910895089580E090E0DE
:1049F0000895CF93DF9390E0FC01E252F24F2491AF
:104A0000FC01E25CF14F8491882361F190E0880F12
:104A1000991FFC01E258F24FC591D491FC01EC5D65
:104A2000F14FA591B491611109C09FB7F8948881A5
:104A3000209582238883EC912E230BC0623061F491
:104A40009FB7F8943881822F809583238883EC91D7
:104A50002E2B2C939FBF06C08FB7F894E8812E2B86
:104A600028838FBFDF91CF9108958F929F92AF924D
:104A7000BF92CF92DF92EF92FF926B017C012CDF0D
:104A80004B015C01C114D104E104F104E9F024DF1D
:104A9000DC01CB0188199909AA09BB09883E93401A
:104AA000A105B10578F321E0C21AD108E108F108A7
:104AB00088EE880E83E0981EA11CB11CC114D1049D
:104AC000E104F10421F7DECFFF90EF90DF90CF906B
:104AD000BF90AF909F908F9008951F920F920FB646
:104AE0000F9211242F933F938F939F93AF93BF9374
:104AF0008091C2029091C302A091C402B091C502FC
:104B00003091370323E0230F2D3720F40196A11DA8
:104B1000B11D05C026E8230F0296A11DB11D2093EB
:104B200037038093C2029093C302A093C402B09350
:104B3000C5028091380390913903A0913A03B09156
:104B40003B030196A11DB11D809338039093390357
:104B5000A0933A03B0933B03BF91AF919F918F9184
:104B60003F912F910F900FBE0F901F9018951F929D
:104B70000F920FB60F9211240BB60F922F933F9303
:104B80004F935F936F937F938F939F93AF93BF9355
:104B9000EF93FF938091B900887F803609F49CC021
:104BA00068F5883209F45BC090F4803109F454C090
:104BB00038F4882309F4F6C0883009F44DC0F5C0F4
:104BC000883109F44CC0803209F45DC0EEC08034F5
:104BD00009F468C048F4803309F455C0883309F0FB
:104BE000E4C080931003D8C0803509F44FC08835E5
:104BF00009F45DC0883409F0D8C0D6C0883909F4FA
:104C0000C7C0A8F4883709F467C038F4883609F4B7
:104C100063C0803709F460C0C8C0883809F4B8C0E0
:104C2000803909F45FC0803809F0BFC05BC0803BA9
:104C300009F486C038F4803A09F466C0883A09F469
:104C40007FC0B3C0803C09F4A7C0883C09F4A4C06D
:104C5000883B09F48AC0A9C08091360310C09091A6
:104C6000350380913403981770F5E091350381E0A6
:104C70008E0F80933503F0E0EC5EFC4F80818093D3
:104C8000BB0085EC86C0809310038EC0E091350395
:104C900081E08E0F809335038091BB00F0E0EC5EE5
:104CA000FC4F808390913503809134036EC0E09176
:104CB000350381E08E0F809335038091BB00F0E0D7
:104CC000EC5EFC4F80838091130381116DC081E005
:104CD0008093120384EA61C083E0809311031092F1
:104CE0000F03CFCF80910F03803208F051C0E091C5
:104CF0000F0381E08E0F80930F038091BB00F0E0E3
:104D0000E151FD4F8083BDCF85EC8093BC001092B4
:104D1000110380910F03803230F4E0910F03F0E033
:104D2000E151FD4F108260910F0370E0E091ED02C0
:104D3000F091EE028FEE92E0199510920F0335C0BC
:104D400084E0809311031092EC021092EB02E09148
:104D5000E902F091EA0219958091EB02811105C0F8
:104D600081E08093EB021092C902E091EC0281E0B5
:104D70008E0F8093EC02F0E0E753FD4F808180932B
:104D8000BB009091EC028091EB02981708F479CF68
:104D900085E88093BC0009C085EC8093BC0010922C
:104DA000110303C010921003BCDDFF91EF91BF917E
:104DB000AF919F918F917F916F915F914F913F91B3
:104DC0002F910F900BBE0F900FBE0F901F90189554
:104DD0002F923F924F925F926F927F928F929F920B
:104DE000AF92BF92CF92DF92EF92FF920F931F93F9
:104DF000CF93DF93CDB7DEB764970FB6F894DEBFDD
:104E00000FBECDBF8C012C0126E0420E511C212C7F
:104E1000312CF80184A990E0281639060CF0E9C07D
:104E2000F80184A195A19093210480932204C6A443
:104E3000D7A4E2A4F3A484A495A4A0A4B1A4EA14E2
:104E4000FB042CF49A2D8B2D5701E92EF82EC81453
:104E5000D9042CF4982D892D4601C92ED82EEA1894
:104E6000FB08F5E0EF16F1040CF061C0F80186A133
:104E700097A1909321048093220426A537A542A5EB
:104E800053A564A575A580A591A548D92AE931E067
:104E900030934C0420934B04F901849180934D048A
:104EA000EBE9F1E0849180934E04ECE9F1E0849128
:104EB00080934F04EDE9F1E0849180935004F80170
:104EC00084A195A1AC0150932304809324041092F3
:104ED0005104E4A4F5A4FAE0EF0EF11C1A82198241
:104EE0001C821B821E821D82B201CE010196AEDBA6
:104EF000B701CE0101960E94061989819A810E940C
:104F00008A31F80180A991A924A535A5280F391F58
:104F100035A724A726A537A5820F931F97A786A795
:104F2000FFEF2F1A3F0A26E0420E511C72CFC60136
:104F300088199909853091050CF498CF9C01359515
:104F40002795388B2F87612C712C970124503109BC
:104F500038872F8395012E5F3F4F3A872987970126
:104F6000225031093C872B8795012F5F3F4F3E87A9
:104F70002D8794012F5F3F4F3A8B298B960121504B
:104F800031093C8B2B8B6114710491F031E0631675
:104F90007104D1F44B855C8569897A898D859E85FC
:104FA00052D84B855C856B897C898D859E8517C021
:104FB0004F815885B40189859A8545D84F81588598
:104FC000B60189859A850BC0A701B301680D791DCB
:104FD000C50139D8A701B60166197709C50133D8CB
:104FE0008FEF681A780A2F853889261537055CF601
:104FF0003DCF64960FB6F894DEBF0FBECDBFDF91F4
:10500000CF911F910F91FF90EF90DF90CF90BF90C5
:10501000AF909F908F907F906F905F904F903F9058
:105020002F9008958F929F92AF92BF92EF92FF922E
:105030000F931F93CF93DF9300D000D0CDB7DEB78F
:105040008C01FC01F68CE78CE0913504F09136047C
:10505000908180914104809589238083F2D1809151
:105060002F04813049F0E0913104F09132049081B5
:1050700080913F04892B8083E0912F044091260486
:1050800050912704609128047091290480912A048A
:1050900090912B04A0912C04B0912D04E031C9F41F
:1050A0009A01AB012F5F3F4F4F4F5F4FBC01CD01C6
:1050B0006F5F7F4F8F4F9F4F0E9473309B01AC01FA
:1050C0006F2DFF0C770B8E2DEE0C990B0E94271E77
:1050D00054C0E830B9F4EF1015C09A01AB012F5F4E
:1050E0003F4F4F4F5F4FBC01CD016F5F7F4F8F4FE1
:1050F0009F4FF9D7AB01BC018E2DEE0C990B0E948E
:10510000561B3BC0812C912C540180912604909118
:105110002704A0912804B09129049C01AD012F5FC0
:105120003F4F4F4F5F4F80912A0490912B04A091E5
:105130002C04B0912D04BC01CD016F5F7F4F8F4FC8
:105140009F4FD1D786169706A806B906B4F44091AA
:105150002F04413019F06F2D8E2D08C041E06E2DC7
:1051600081E084D140912F046F2D81E07FD1FFEF4A
:105170008F1A9F0AAF0ABF0AC8CFE0913504F09199
:105180003604908180914104892B8083F80182A1AB
:1051900093A1AC01509323048093240410925104F2
:1051A000EAE9F1E0F0934C04E0934B04E491E093DE
:1051B0004D04EBE9F1E0E491E0934E04ECE9F1E019
:1051C000E491E0934F04EDE9F1E0E491E0935004C1
:1051D000F80180A191A190932104809322041A8266
:1051E00019821C821B821E821D82B801CE0101968B
:1051F0002DDA61E070E0CE0101960E9406198981E6
:105200009A810E948A3126960FB6F894DEBF0FBEAF
:10521000CDBFDF91CF911F910F91FF90EF90BF9085
:10522000AF909F908F900895CF92DF92EF92FF9270
:105230000F931F93CF93DF938C01F62EE72EEA0195
:10524000D22EC32E80912504813089F480912A04C6
:1052500090912B049C01201B310B841B950BCD2DB1
:10526000DC2DD22EC32E062F172FF82EE92EE0911B
:105270002E048E2F90E0FC013297EE31F10508F0FC
:10528000D7C08827EE55FF4F8F4FA7C7612F70E01B
:1052900082E04FD3B80183E04CD36D2F70E084E0FF
:1052A00048D3BE0185E045D36E2D70E086E041D342
:1052B0006F2D7E2D87E03DD36C2D70E044C07C2F98
:1052C0006627600F711F84E434D36F2D7E2D85E433
:1052D00030D36D2D7C2D86E42CD3B8018EE429D3F8
:1052E0006F2D7E2D8FE425D382E299C0B80180E234
:1052F00020D36F2D7E2D81E21CD3B80180E519D318
:105300006F2D7E2D82E515D3BE0181E512D36D2D63
:105310007C2D83E5E8CF60E070E082E00AD3B8013D
:1053200083E007D360E070E084E003D3BE0185E052
:1053300000D360E070E086E0FCD26F2D7E2D87E028
:10534000F8D260E070E088E0F4D26D2D7C2D89E029
:10535000CACF8AE2A8D2802FBBD28C2FB9D28BE2DF
:10536000A2D28F2D58C08AE29ED28E2DB1D28F2D1F
:10537000AFD28C2DADD28D2DABD28BE294D2812FBA
:10538000A7D2802FA5D28D2FA3D28C2F46C07C2FE1
:105390006627602B712B86E4CCD26D2D7C2D87E4A3
:1053A000C8D26F2D7E2D88E40DC0BE0186E3C1D228
:1053B000B80187E3BED26D2D7C2D88E3BAD26F2D64
:1053C0007E2D89E3B6D2B80180E2B3D26F2D7E2D57
:1053D00081E289CF6F2D7E2D82E0ABD2B80183E0D0
:1053E000A8D26D2D7C2D86E0A4D2BE0187E0A1D28B
:1053F0008FE015C08AE257D2812F6AD2802F68D2FF
:105400008D2F66D28C2F64D28BE24DD28E2D60D23E
:105410008F2D5ED28C2D5CD28D2D5AD28CE2DF91F5
:10542000CF911F910F91FF90EF90DF90CF903BC2F3
:10543000DF91CF911F910F91FF90EF90DF90CF9070
:1054400008952091250480912A0490912B04409185
:10545000260450912704211102C09C0102C09A0128
:10546000AC0160E070E080E090E0DECE483009F40E
:1054700048C118F4413041F00895403109F457C152
:10548000413109F468C1089590913004943019F5C0
:10549000E0913904F0913A0490914304813019F479
:1054A0008081982B03C08081909598239083E09110
:1054B0003B04F0913C0490818091440480958923C1
:1054C0008083E0913B04F0913C04908180914404FE
:1054D000892B80830FC0E0913104F09132049091C8
:1054E0003F04813019F48081982B03C0808190950E
:1054F00098239083E0913904F0913A048091430419
:10550000908167FF02C0892B02C080958923808328
:10551000E0913B04F0913C0490818091440480959B
:1055200089238083E0913B04F0913C049081809139
:105530004404892B8083E0913904F0913A048091EE
:105540004304908166FF02C0892B02C080958923A5
:105550008083E0913B04F0913C049081809144046D
:10556000809589238083E0913B04F0913C049081F5
:1055700080914404892B8083E0913904F0913A04AE
:1055800080914304908165FF02C0892B02C0809501
:1055900089238083E0913B04F0913C0490818091C9
:1055A0004404809589238083E0913B04F0913C047E
:1055B000908180914404892B8083E0913904F0919B
:1055C0003A0480914304908164FF02C0892B02C099
:1055D000809589238083E0913B04F0913C04908185
:1055E00080914404809589238083E0913B04F0916D
:1055F0003C04908180914404892B8083E09139049C
:10560000F0913A0480914304908163FF02C0892B9A
:1056100002C0809589238083E0913B04F0913C0493
:10562000908180914404809589238083E0913B049C
:10563000F0913C04908180914404892B8083E09117
:105640003904F0913A0480914304908162FF02C0D2
:10565000892B02C0809589238083E0913B04F091DF
:105660003C04908180914404809589238083E0915B
:105670003B04F0913C04908180914404892B808309
:10568000E0913904F0913A0480914304908161FFE4
:1056900002C0892B02C0809589238083E0913B045E
:1056A000F0913C049081809144048095892380830B
:1056B000E0913B04F0913C04908180914404892B5B
:1056C0008083E0913904F0913A0480914304908101
:1056D00060FF02C0892B02C0809589238083E091FE
:1056E0003B04F0913C04908180914404809589238F
:1056F0008083E0913B04F0913C04908180914404CC
:10570000CFC082B9E0913304F0913404908180914C
:105710004004809589238083E0913304F091340420
:10572000908180914004892B808362B902C082B944
:1057300068B9E0913304F091340490818091400481
:10574000809589238083E0913304F0913404908123
:1057500080914004A5C0A59824B3982F9071990F0B
:10576000922B94BB90910201977E909302019091AD
:105770000201282F082E000C330B207C332743E036
:10578000359527954A95E1F7292B209302019EB183
:10579000947C9EB92EB1382F3C70330F330F982F65
:1057A0009370390F8072082E000C990B9595879590
:1057B00095958795830F822B8EB9E0913D04F091EA
:1057C0003E04908180914504809589238083E091F7
:1057D0003D04F0913E04908180914504892B8083A3
:1057E000E0913D04F0913E049081809145048095C4
:1057F00089238083E0913504F09136049081809173
:105800004104809589238083A59894B3862F807165
:10581000880F892B84BB80910201877E80930201CF
:1058200020910201862F062E000C990B807C99276F
:1058300073E0959587957A95E1F7822B8093020125
:105840008EB1847C8EB98EB1962F9C70990F990F72
:10585000262F2370920F6072062E000C770B759521
:10586000679575956795690F682B6EB9E09133045C
:10587000F091340490818091400480958923808345
:10588000E0913304F0913404908180914004892B9D
:105890008083E0913504F091360490818091410439
:1058A000892B80830895682F80912F04813069F0BF
:1058B000E0913104F0913204208190913F04909561
:1058C0009223908340912F0401C041E080E0CECD2F
:1058D000682F80912F04813069F0E0913104F091BC
:1058E0003204808190913F04982B908340912F0443
:1058F00080E002C041E081E0B9CDCF9390912F04C8
:10590000913061F0E0913104F09132042081909166
:105910003F04922B908340912F0409C0C62F682F1B
:1059200041E081E0A3DD40912F046C2F81E0CF9115
:105930009DCDCF93DF931F921F92CDB7DEB76983C2
:105940007A83B1DF69817A81872F0F900F90DF9181
:10595000CF91D3CFCF93DF93CDB7DEB7C65DD1095B
:105960000FB6F894DEBF0FBECDBF789484B58260C9
:1059700084BD84B5816084BD85B5826085BD85B5F3
:10598000816085BD80916E00816080936E00109271
:1059900081008091810082608093810080918100EC
:1059A000816080938100809180008160809380007D
:1059B0008091B10084608093B1008091B0008160DB
:1059C0008093B000809191008260809391008091DB
:1059D000910081608093910080919000816080931C
:1059E00090008091A10082608093A1008091A1002D
:1059F00081608093A1008091A00081608093A000CD
:105A00008091210182608093210180912101816038
:105A100080932101809120018160809320018091F9
:105A20007A00846080937A0080917A00826080930B
:105A30007A0080917A00816080937A0080917A0068
:105A4000806880937A001092C10010921D04109219
:105A50001E0410921F04109220041092DB03109277
:105A6000DC031092DD031092DE0368EB7BE080E044
:105A700090E00E9480218CE393E090931C0480933B
:105A80001B040E9458212FB7F8948091C202909174
:105A9000C302A091C402B091C5022FBF8093DB0363
:105AA0009093DC03A093DD03B093DE0368E672E01D
:105AB00080911B0490911C040E945A236AE070E0BC
:105AC00080E090E00E94802181E08093EF038AB122
:105AD0008C678AB962E088E00E94F9240E9458210C
